{"contracts/PublicService.sol":{"PublicService":{"abi":[{"inputs":[],"stateMutability":"nonpayable","type":"constructor"},{"inputs":[],"name":"AccessControlBadConfirmation","type":"error"},{"inputs":[{"internalType":"address","name":"account","type":"address"},{"internalType":"bytes32","name":"neededRole","type":"bytes32"}],"name":"AccessControlUnauthorizedAccount","type":"error"},{"inputs":[],"name":"AlreadyRegistered","type":"error"},{"inputs":[],"name":"AlreadyVoted","type":"error"},{"inputs":[],"name":"CannotUpdateReport","type":"error"},{"inputs":[],"name":"CitizenLockedError","type":"error"},{"inputs":[],"name":"InsufficientStake","type":"error"},{"inputs":[],"name":"InvalidEconomicParams","type":"error"},{"inputs":[],"name":"NotRegistered","type":"error"},{"inputs":[],"name":"ReentrancyGuardReentrantCall","type":"error"},{"inputs":[],"name":"ReportNotFound","type":"error"},{"anonymous":false,"inputs":[{"indexed":true,"internalType":"address","name":"citizen","type":"address"}],"name":"AccountLocked","type":"event"},{"anonymous":false,"inputs":[{"indexed":true,"internalType":"address","name":"citizen","type":"address"}],"name":"AccountUnlocked","type":"event"},{"anonymous":false,"inputs":[{"indexed":true,"internalType":"address","name":"citizen","type":"address"},{"indexed":false,"internalType":"uint256","name":"stake","type":"uint256"}],"name":"CitizenRegistered","type":"event"},{"anonymous":false,"inputs":[{"indexed":false,"internalType":"uint256","name":"stakeAmount","type":"uint256"},{"indexed":false,"internalType":"uint256","name":"reportFee","type":"uint256"},{"indexed":false,"internalType":"uint256","name":"rewardAmount","type":"uint256"},{"indexed":true,"internalType":"address","name":"updatedBy","type":"address"}],"name":"EconomicParamsUpdated","type":"event"},{"anonymous":false,"inputs":[{"indexed":true,"internalType":"uint256","name":"reportId","type":"uint256"},{"indexed":false,"internalType":"bool","name":"approved","type":"bool"},{"indexed":true,"internalType":"address","name":"admin","type":"address"}],"name":"ReportResolved","type":"event"},{"anonymous":false,"inputs":[{"indexed":true,"internalType":"uint256","name":"reportId","type":"uint256"},{"indexed":true,"internalType":"address","name":"reporter","type":"address"}],"name":"ReportSubmitted","type":"event"},{"anonymous":false,"inputs":[{"indexed":true,"internalType":"uint256","name":"reportId","type":"uint256"}],"name":"ReportUpdated","type":"event"},{"anonymous":false,"inputs":[{"indexed":true,"internalType":"bytes32","name":"role","type":"bytes32"},{"indexed":true,"internalType":"bytes32","name":"previousAdminRole","type":"bytes32"},{"indexed":true,"internalType":"bytes32","name":"newAdminRole","type":"bytes32"}],"name":"RoleAdminChanged","type":"event"},{"anonymous":false,"inputs":[{"indexed":true,"internalType":"bytes32","name":"role","type":"bytes32"},{"indexed":true,"internalType":"address","name":"account","type":"address"},{"indexed":true,"internalType":"address","name":"sender","type":"address"}],"name":"RoleGranted","type":"event"},{"anonymous":false,"inputs":[{"indexed":true,"internalType":"bytes32","name":"role","type":"bytes32"},{"indexed":true,"internalType":"address","name":"account","type":"address"},{"indexed":true,"internalType":"address","name":"sender","type":"address"}],"name":"RoleRevoked","type":"event"},{"anonymous":false,"inputs":[{"indexed":true,"internalType":"address","name":"citizen","type":"address"},{"indexed":false,"internalType":"uint256","name":"newStake","type":"uint256"},{"indexed":false,"internalType":"string","name":"reason","type":"string"}],"name":"StakeUpdated","type":"event"},{"anonymous":false,"inputs":[{"indexed":true,"internalType":"uint256","name":"reportId","type":"uint256"},{"indexed":true,"internalType":"address","name":"voter","type":"address"},{"indexed":false,"internalType":"bool","name":"isUpVote","type":"bool"}],"name":"Voted","type":"event"},{"inputs":[],"name":"ADMIN_ROLE","outputs":[{"internalType":"bytes32","name":"","type":"bytes32"}],"stateMutability":"view","type":"function"},{"inputs":[],"name":"DEFAULT_ADMIN_ROLE","outputs":[{"internalType":"bytes32","name":"","type":"bytes32"}],"stateMutability":"view","type":"function"},{"inputs":[],"name":"REPORT_FEE","outputs":[{"internalType":"uint256","name":"","type":"uint256"}],"stateMutability":"view","type":"function"},{"inputs":[],"name":"REWARD_AMOUNT","outputs":[{"internalType":"uint256","name":"","type":"uint256"}],"stateMutability":"view","type":"function"},{"inputs":[],"name":"STAKE_AMOUNT","outputs":[{"internalType":"uint256","name":"","type":"uint256"}],"stateMutability":"view","type":"function"},{"inputs":[{"internalType":"uint256","name":"reportId","type":"uint256"},{"internalType":"bool","name":"approve","type":"bool"}],"name":"adminResolve","outputs":[],"stateMutability":"nonpayable","type":"function"},{"inputs":[{"internalType":"uint256","name":"reportId","type":"uint256"}],"name":"getReport","outputs":[{"components":[{"internalType":"address","name":"reporter","type":"address"},{"internalType":"string","name":"contentHash","type":"string"},{"internalType":"string[]","name":"imageCIDs","type":"string[]"},{"internalType":"string","name":"location","type":"string"},{"internalType":"int256","name":"score","type":"int256"},{"internalType":"enum PublicService.Status","name":"status","type":"uint8"},{"internalType":"uint256","name":"timestamp","type":"uint256"}],"internalType":"struct PublicService.Report","name":"","type":"tuple"}],"stateMutability":"view","type":"function"},{"inputs":[],"name":"getReports","outputs":[{"components":[{"internalType":"address","name":"reporter","type":"address"},{"internalType":"string","name":"contentHash","type":"string"},{"internalType":"string[]","name":"imageCIDs","type":"string[]"},{"internalType":"string","name":"location","type":"string"},{"internalType":"int256","name":"score","type":"int256"},{"internalType":"enum PublicService.Status","name":"status","type":"uint8"},{"internalType":"uint256","name":"timestamp","type":"uint256"}],"internalType":"struct PublicService.Report[]","name":"","type":"tuple[]"}],"stateMutability":"view","type":"function"},{"inputs":[{"internalType":"bytes32","name":"role","type":"bytes32"}],"name":"getRoleAdmin","outputs":[{"internalType":"bytes32","name":"","type":"bytes32"}],"stateMutability":"view","type":"function"},{"inputs":[{"internalType":"bytes32","name":"role","type":"bytes32"},{"internalType":"address","name":"account","type":"address"}],"name":"grantRole","outputs":[],"stateMutability":"nonpayable","type":"function"},{"inputs":[{"internalType":"bytes32","name":"role","type":"bytes32"},{"internalType":"address","name":"account","type":"address"}],"name":"hasRole","outputs":[{"internalType":"bool","name":"","type":"bool"}],"stateMutability":"view","type":"function"},{"inputs":[{"internalType":"address","name":"citizen","type":"address"}],"name":"isLocked","outputs":[{"internalType":"bool","name":"","type":"bool"}],"stateMutability":"view","type":"function"},{"inputs":[{"internalType":"address","name":"","type":"address"}],"name":"locked","outputs":[{"internalType":"bool","name":"","type":"bool"}],"stateMutability":"view","type":"function"},{"inputs":[],"name":"registerCitizen","outputs":[],"stateMutability":"payable","type":"function"},{"inputs":[{"internalType":"bytes32","name":"role","type":"bytes32"},{"internalType":"address","name":"callerConfirmation","type":"address"}],"name":"renounceRole","outputs":[],"stateMutability":"nonpayable","type":"function"},{"inputs":[],"name":"reportCount","outputs":[{"internalType":"uint256","name":"","type":"uint256"}],"stateMutability":"view","type":"function"},{"inputs":[{"internalType":"uint256","name":"","type":"uint256"}],"name":"reports","outputs":[{"internalType":"address","name":"reporter","type":"address"},{"internalType":"string","name":"contentHash","type":"string"},{"internalType":"string","name":"location","type":"string"},{"internalType":"int256","name":"score","type":"int256"},{"internalType":"enum PublicService.Status","name":"status","type":"uint8"},{"internalType":"uint256","name":"timestamp","type":"uint256"}],"stateMutability":"view","type":"function"},{"inputs":[{"internalType":"bytes32","name":"role","type":"bytes32"},{"internalType":"address","name":"account","type":"address"}],"name":"revokeRole","outputs":[],"stateMutability":"nonpayable","type":"function"},{"inputs":[{"internalType":"uint256","name":"stakeAmount","type":"uint256"},{"internalType":"uint256","name":"reportFee","type":"uint256"},{"internalType":"uint256","name":"rewardAmount","type":"uint256"}],"name":"setEconomicParams","outputs":[],"stateMutability":"nonpayable","type":"function"},{"inputs":[{"internalType":"uint256","name":"reportFee","type":"uint256"}],"name":"setReportFee","outputs":[],"stateMutability":"nonpayable","type":"function"},{"inputs":[{"internalType":"uint256","name":"rewardAmount","type":"uint256"}],"name":"setRewardAmount","outputs":[],"stateMutability":"nonpayable","type":"function"},{"inputs":[{"internalType":"uint256","name":"stakeAmount","type":"uint256"}],"name":"setStakeAmount","outputs":[],"stateMutability":"nonpayable","type":"function"},{"inputs":[{"internalType":"address","name":"","type":"address"}],"name":"stakes","outputs":[{"internalType":"uint256","name":"","type":"uint256"}],"stateMutability":"view","type":"function"},{"inputs":[{"internalType":"string","name":"contentHash","type":"string"},{"internalType":"string[]","name":"imageCIDs","type":"string[]"},{"internalType":"string","name":"location","type":"string"}],"name":"submitReport","outputs":[],"stateMutability":"payable","type":"function"},{"inputs":[{"internalType":"bytes4","name":"interfaceId","type":"bytes4"}],"name":"supportsInterface","outputs":[{"internalType":"bool","name":"","type":"bool"}],"stateMutability":"view","type":"function"},{"inputs":[{"internalType":"uint256","name":"reportId","type":"uint256"},{"internalType":"string","name":"newContentHash","type":"string"},{"internalType":"string[]","name":"newImageCIDs","type":"string[]"},{"internalType":"string","name":"newLocation","type":"string"}],"name":"updateReport","outputs":[],"stateMutability":"nonpayable","type":"function"},{"inputs":[{"internalType":"uint256","name":"reportId","type":"uint256"}],"name":"voteDown","outputs":[],"stateMutability":"nonpayable","type":"function"},{"inputs":[{"internalType":"uint256","name":"reportId","type":"uint256"}],"name":"voteUp","outputs":[],"stateMutability":"nonpayable","type":"function"}],"evm":{"bytecode":{"linkReferences":{},"object":"60806040523480156200001157600080fd5b50600162000034620000286200009860201b60201c565b620000c360201b60201c565b600001819055506200006d7fa49807205ce4d355092ef5a8a18f56e8913cf4a201fbe287825b095693c2177533620000cd60201b60201c565b50620000926512309ce5400065065dd083700064e8d4a51000620001d060201b60201c565b6200035c565b60007f9b779b17422d0df92223018b32b4d1fa46e071723d6817e2486d003becc55f0060001b905090565b6000819050919050565b6000620000e183836200029260201b60201c565b620001c557600160008085815260200190815260200160002060000160008473ffffffffffffffffffffffffffffffffffffffff1673ffffffffffffffffffffffffffffffffffffffff16815260200190815260200160002060006101000a81548160ff02191690831515021790555062000161620002fc60201b60201c565b73ffffffffffffffffffffffffffffffffffffffff168273ffffffffffffffffffffffffffffffffffffffff16847f2f8788117e7eff1d82e926ec794901d17c78024a50270940304540a733656f0d60405160405180910390a460019050620001ca565b600090505b92915050565b6000831480620001e05750600082145b80620001ec5750600081145b1562000224576040517f3db4717a00000000000000000000000000000000000000000000000000000000815260040160405180910390fd5b8260018190555081600281905550806003819055503373ffffffffffffffffffffffffffffffffffffffff167fe2d02d978aef6f01652b2eda9cc7e87c48b958fae23b1c19b60ea2da970811a284848460405162000285939291906200031f565b60405180910390a2505050565b600080600084815260200190815260200160002060000160008373ffffffffffffffffffffffffffffffffffffffff1673ffffffffffffffffffffffffffffffffffffffff16815260200190815260200160002060009054906101000a900460ff16905092915050565b600033905090565b6000819050919050565b620003198162000304565b82525050565b60006060820190506200033660008301866200030e565b6200034560208301856200030e565b6200035460408301846200030e565b949350505050565b61477c806200036c6000396000f3fe6080604052600436106101b75760003560e01c8063a217fddf116100ec578063cf8494421161008a578063d547741f11610064578063d547741f14610619578063ddac964614610642578063eda72b2e1461066b578063faf5625f14610694576101b7565b8063cf849442146105a9578063d043f5ce146105d4578063d4ebc5ff146105f0576101b7565b8063ae7c18df116100c6578063ae7c18df146104d8578063bffe3cce14610501578063c942adf71461052a578063cbf9fe5f1461056c576101b7565b8063a217fddf14610459578063a3c86daf14610484578063a8a65a78146104af576101b7565b806343808c501161015957806370912d241161013357806370912d24146103be57806375b238fc146103e7578063907de2cc1461041257806391d148541461041c576101b7565b806343808c501461031b5780634a4fbeec146103445780634e7f9b1914610381576101b7565b8063185c6f8411610195578063185c6f8414610261578063248a9ca31461028c5780632f2ff15d146102c957806336568abe146102f2576101b7565b806301ffc9a7146101bc5780630d636de6146101f957806316934fc414610224575b600080fd5b3480156101c857600080fd5b506101e360048036038101906101de91906132ff565b6106bf565b6040516101f09190613347565b60405180910390f35b34801561020557600080fd5b5061020e610739565b60405161021b919061337b565b60405180910390f35b34801561023057600080fd5b5061024b600480360381019061024691906133f4565b61073f565b604051610258919061337b565b60405180910390f35b34801561026d57600080fd5b50610276610757565b604051610283919061337b565b60405180910390f35b34801561029857600080fd5b506102b360048036038101906102ae9190613457565b61075d565b6040516102c09190613493565b60405180910390f35b3480156102d557600080fd5b506102f060048036038101906102eb91906134ae565b61077c565b005b3480156102fe57600080fd5b50610319600480360381019061031491906134ae565b61079e565b005b34801561032757600080fd5b50610342600480360381019061033d919061351a565b610819565b005b34801561035057600080fd5b5061036b600480360381019061036691906133f4565b610856565b6040516103789190613347565b60405180910390f35b34801561038d57600080fd5b506103a860048036038101906103a3919061351a565b6108ac565b6040516103b591906137f1565b60405180910390f35b3480156103ca57600080fd5b506103e560048036038101906103e0919061351a565b610b7b565b005b3480156103f357600080fd5b506103fc610bb8565b6040516104099190613493565b60405180910390f35b61041a610bdc565b005b34801561042857600080fd5b50610443600480360381019061043e91906134ae565b610e6b565b6040516104509190613347565b60405180910390f35b34801561046557600080fd5b5061046e610ed5565b60405161047b9190613493565b60405180910390f35b34801561049057600080fd5b50610499610edc565b6040516104a6919061397f565b60405180910390f35b3480156104bb57600080fd5b506104d660048036038101906104d1919061351a565b61133d565b005b3480156104e457600080fd5b506104ff60048036038101906104fa91906139cd565b61137a565b005b34801561050d57600080fd5b5061052860048036038101906105239190613c28565b6121f9565b005b34801561053657600080fd5b50610551600480360381019061054c919061351a565b6123cb565b60405161056396959493929190613d5a565b60405180910390f35b34801561057857600080fd5b50610593600480360381019061058e91906133f4565b612544565b6040516105a09190613347565b60405180910390f35b3480156105b557600080fd5b506105be612564565b6040516105cb919061337b565b60405180910390f35b6105ee60048036038101906105e99190613dc9565b61256a565b005b3480156105fc57600080fd5b506106176004803603810190610612919061351a565b612860565b005b34801561062557600080fd5b50610640600480360381019061063b91906134ae565b61286e565b005b34801561064e57600080fd5b5061066960048036038101906106649190613e70565b612890565b005b34801561067757600080fd5b50610692600480360381019061068d919061351a565b6128cb565b005b3480156106a057600080fd5b506106a96128d9565b6040516106b6919061337b565b60405180910390f35b60007f7965db0b000000000000000000000000000000000000000000000000000000007bffffffffffffffffffffffffffffffffffffffffffffffffffffffff1916827bffffffffffffffffffffffffffffffffffffffffffffffffffffffff191614806107325750610731826128df565b5b9050919050565b60025481565b60046020528060005260406000206000915090505481565b60065481565b6000806000838152602001908152602001600020600101549050919050565b6107858261075d565b61078e81612949565b610798838361295d565b50505050565b6107a6612a4e565b73ffffffffffffffffffffffffffffffffffffffff168173ffffffffffffffffffffffffffffffffffffffff161461080a576040517f6697b23200000000000000000000000000000000000000000000000000000000815260040160405180910390fd5b6108148282612a56565b505050565b7fa49807205ce4d355092ef5a8a18f56e8913cf4a201fbe287825b095693c2177561084381612949565b61085282600254600354612b48565b5050565b6000600760008373ffffffffffffffffffffffffffffffffffffffff1673ffffffffffffffffffffffffffffffffffffffff16815260200190815260200160002060009054906101000a900460ff169050919050565b6108b4613154565b600560008381526020019081526020016000206040518060e00160405290816000820160009054906101000a900473ffffffffffffffffffffffffffffffffffffffff1673ffffffffffffffffffffffffffffffffffffffff1673ffffffffffffffffffffffffffffffffffffffff16815260200160018201805461093890613ef2565b80601f016020809104026020016040519081016040528092919081815260200182805461096490613ef2565b80156109b15780601f10610986576101008083540402835291602001916109b1565b820191906000526020600020905b81548152906001019060200180831161099457829003601f168201915b5050505050815260200160028201805480602002602001604051908101604052809291908181526020016000905b82821015610a8b5783829060005260206000200180546109fe90613ef2565b80601f0160208091040260200160405190810160405280929190818152602001828054610a2a90613ef2565b8015610a775780601f10610a4c57610100808354040283529160200191610a77565b820191906000526020600020905b815481529060010190602001808311610a5a57829003601f168201915b5050505050815260200190600101906109df565b505050508152602001600382018054610aa390613ef2565b80601f0160208091040260200160405190810160405280929190818152602001828054610acf90613ef2565b8015610b1c5780601f10610af157610100808354040283529160200191610b1c565b820191906000526020600020905b815481529060010190602001808311610aff57829003601f168201915b50505050508152602001600482015481526020016005820160009054906101000a900460ff166002811115610b5457610b536136c1565b5b6002811115610b6657610b656136c1565b5b81526020016006820154815250509050919050565b7fa49807205ce4d355092ef5a8a18f56e8913cf4a201fbe287825b095693c21775610ba581612949565b610bb460015483600354612b48565b5050565b7fa49807205ce4d355092ef5a8a18f56e8913cf4a201fbe287825b095693c2177581565b600154600460003373ffffffffffffffffffffffffffffffffffffffff1673ffffffffffffffffffffffffffffffffffffffff1681526020019081526020016000205410158015610c775750600760003373ffffffffffffffffffffffffffffffffffffffff1673ffffffffffffffffffffffffffffffffffffffff16815260200190815260200160002060009054906101000a900460ff16155b15610cae576040517f3a81d6fc00000000000000000000000000000000000000000000000000000000815260040160405180910390fd5b6001543414610ce9576040517ff1bc94d200000000000000000000000000000000000000000000000000000000815260040160405180910390fd5b34600460003373ffffffffffffffffffffffffffffffffffffffff1673ffffffffffffffffffffffffffffffffffffffff16815260200190815260200160002081905550600760003373ffffffffffffffffffffffffffffffffffffffff1673ffffffffffffffffffffffffffffffffffffffff16815260200190815260200160002060009054906101000a900460ff1615610e1b576000600760003373ffffffffffffffffffffffffffffffffffffffff1673ffffffffffffffffffffffffffffffffffffffff16815260200190815260200160002060006101000a81548160ff0219169083151502179055503373ffffffffffffffffffffffffffffffffffffffff167fb7df7ef889418eecc895118f0d863c3074abf7769bfe39ba852192114c725dfc60405160405180910390a25b3373ffffffffffffffffffffffffffffffffffffffff167f9f4e1c382cdd9fb482444097babab40742f8a3624c0ab69305c3c396f26794b834604051610e61919061337b565b60405180910390a2565b600080600084815260200190815260200160002060000160008373ffffffffffffffffffffffffffffffffffffffff1673ffffffffffffffffffffffffffffffffffffffff16815260200190815260200160002060009054906101000a900460ff16905092915050565b6000801b81565b6060600060065467ffffffffffffffff811115610efc57610efb613a17565b5b604051908082528060200260200182016040528015610f3557816020015b610f22613154565b815260200190600190039081610f1a5790505b50905060005b60065481101561123057600560008281526020019081526020016000206040518060e00160405290816000820160009054906101000a900473ffffffffffffffffffffffffffffffffffffffff1673ffffffffffffffffffffffffffffffffffffffff1673ffffffffffffffffffffffffffffffffffffffff168152602001600182018054610fc990613ef2565b80601f0160208091040260200160405190810160405280929190818152602001828054610ff590613ef2565b80156110425780601f1061101757610100808354040283529160200191611042565b820191906000526020600020905b81548152906001019060200180831161102557829003601f168201915b5050505050815260200160028201805480602002602001604051908101604052809291908181526020016000905b8282101561111c57838290600052602060002001805461108f90613ef2565b80601f01602080910402602001604051908101604052809291908181526020018280546110bb90613ef2565b80156111085780601f106110dd57610100808354040283529160200191611108565b820191906000526020600020905b8154815290600101906020018083116110eb57829003601f168201915b505050505081526020019060010190611070565b50505050815260200160038201805461113490613ef2565b80601f016020809104026020016040519081016040528092919081815260200182805461116090613ef2565b80156111ad5780601f10611182576101008083540402835291602001916111ad565b820191906000526020600020905b81548152906001019060200180831161119057829003601f168201915b50505050508152602001600482015481526020016005820160009054906101000a900460ff1660028111156111e5576111e46136c1565b5b60028111156111f7576111f66136c1565b5b815260200160068201548152505082828151811061121857611217613f23565b5b60200260200101819052508080600101915050610f3b565b506000600190505b60065481101561133557600082828151811061125757611256613f23565b5b6020026020010151905060008160800151905060008390505b6000811180156112a95750818560018361128a9190613f81565b8151811061129b5761129a613f23565b5b602002602001015160800151125b1561130657846001826112bc9190613f81565b815181106112cd576112cc613f23565b5b60200260200101518582815181106112e8576112e7613f23565b5b602002602001018190525080806112fe90613fb5565b915050611270565b8285828151811061131a57611319613f23565b5b60200260200101819052505050508080600101915050611238565b508091505090565b7fa49807205ce4d355092ef5a8a18f56e8913cf4a201fbe287825b095693c2177561136781612949565b61137660015460025484612b48565b5050565b7fa49807205ce4d355092ef5a8a18f56e8913cf4a201fbe287825b095693c217756113a481612949565b6113ac612c05565b6000600560008581526020019081526020016000209050600060028111156113d7576113d66136c1565b5b8160050160009054906101000a900460ff1660028111156113fb576113fa6136c1565b5b14611432576040517f986b6fa200000000000000000000000000000000000000000000000000000000815260040160405180910390fd5b8261143e576002611441565b60015b8160050160006101000a81548160ff02191690836002811115611467576114666136c1565b5b021790555060006009600086815260200190815260200160002080548060200260200160405190810160405280929190818152602001828054801561150157602002820191906000526020600020905b8160009054906101000a900473ffffffffffffffffffffffffffffffffffffffff1673ffffffffffffffffffffffffffffffffffffffff16815260200190600101908083116114b7575b505050505090506000600a600087815260200190815260200160002080548060200260200160405190810160405280929190818152602001828054801561159d57602002820191906000526020600020905b8160009054906101000a900473ffffffffffffffffffffffffffffffffffffffff1673ffffffffffffffffffffffffffffffffffffffff1681526020019060010190808311611553575b505050505090508415611aa7576003546002546115ba9190613fde565b600460008560000160009054906101000a900473ffffffffffffffffffffffffffffffffffffffff1673ffffffffffffffffffffffffffffffffffffffff1673ffffffffffffffffffffffffffffffffffffffff168152602001908152602001600020600082825461162c9190613fde565b925050819055508260000160009054906101000a900473ffffffffffffffffffffffffffffffffffffffff1673ffffffffffffffffffffffffffffffffffffffff167f9a4e107c217fba3d242f257fd523c107ea3a28c2a71e8c7b6cf9a2893ecbb98d600460008660000160009054906101000a900473ffffffffffffffffffffffffffffffffffffffff1673ffffffffffffffffffffffffffffffffffffffff1673ffffffffffffffffffffffffffffffffffffffff16815260200190815260200160002054604051611700919061405e565b60405180910390a260005b8251811015611854576003546004600085848151811061172e5761172d613f23565b5b602002602001015173ffffffffffffffffffffffffffffffffffffffff1673ffffffffffffffffffffffffffffffffffffffff168152602001908152602001600020600082825461177f9190613fde565b9250508190555082818151811061179957611798613f23565b5b602002602001015173ffffffffffffffffffffffffffffffffffffffff167f9a4e107c217fba3d242f257fd523c107ea3a28c2a71e8c7b6cf9a2893ecbb98d600460008685815181106117ef576117ee613f23565b5b602002602001015173ffffffffffffffffffffffffffffffffffffffff1673ffffffffffffffffffffffffffffffffffffffff1681526020019081526020016000205460405161183f91906140d8565b60405180910390a2808060010191505061170b565b5060005b8151811015611aa157600082828151811061187657611875613f23565b5b60200260200101519050600354600460008373ffffffffffffffffffffffffffffffffffffffff1673ffffffffffffffffffffffffffffffffffffffff1681526020019081526020016000205410611a9357600354600460008373ffffffffffffffffffffffffffffffffffffffff1673ffffffffffffffffffffffffffffffffffffffff16815260200190815260200160002060008282546119199190613f81565b925050819055508073ffffffffffffffffffffffffffffffffffffffff167f9a4e107c217fba3d242f257fd523c107ea3a28c2a71e8c7b6cf9a2893ecbb98d600460008473ffffffffffffffffffffffffffffffffffffffff1673ffffffffffffffffffffffffffffffffffffffff168152602001908152602001600020546040516119a59190614152565b60405180910390a2600154600460008373ffffffffffffffffffffffffffffffffffffffff1673ffffffffffffffffffffffffffffffffffffffff168152602001908152602001600020541015611a92576001600760008373ffffffffffffffffffffffffffffffffffffffff1673ffffffffffffffffffffffffffffffffffffffff16815260200190815260200160002060006101000a81548160ff0219169083151502179055508073ffffffffffffffffffffffffffffffffffffffff167f78be06d07afe380e04d6deeba0f33c892db454f303fb739d9b768987a5ec6aca60405160405180910390a25b5b508080600101915050611858565b5061219a565b600354600254611ab79190613fde565b600460008560000160009054906101000a900473ffffffffffffffffffffffffffffffffffffffff1673ffffffffffffffffffffffffffffffffffffffff1673ffffffffffffffffffffffffffffffffffffffff1681526020019081526020016000205410611dd057600354600254611b309190613fde565b600460008560000160009054906101000a900473ffffffffffffffffffffffffffffffffffffffff1673ffffffffffffffffffffffffffffffffffffffff1673ffffffffffffffffffffffffffffffffffffffff1681526020019081526020016000206000828254611ba29190613f81565b925050819055508260000160009054906101000a900473ffffffffffffffffffffffffffffffffffffffff1673ffffffffffffffffffffffffffffffffffffffff167f9a4e107c217fba3d242f257fd523c107ea3a28c2a71e8c7b6cf9a2893ecbb98d600460008660000160009054906101000a900473ffffffffffffffffffffffffffffffffffffffff1673ffffffffffffffffffffffffffffffffffffffff1673ffffffffffffffffffffffffffffffffffffffff16815260200190815260200160002054604051611c7691906141cc565b60405180910390a2600154600460008560000160009054906101000a900473ffffffffffffffffffffffffffffffffffffffff1673ffffffffffffffffffffffffffffffffffffffff1673ffffffffffffffffffffffffffffffffffffffff168152602001908152602001600020541015611dcf576001600760008560000160009054906101000a900473ffffffffffffffffffffffffffffffffffffffff1673ffffffffffffffffffffffffffffffffffffffff1673ffffffffffffffffffffffffffffffffffffffff16815260200190815260200160002060006101000a81548160ff0219169083151502179055508260000160009054906101000a900473ffffffffffffffffffffffffffffffffffffffff1673ffffffffffffffffffffffffffffffffffffffff167f78be06d07afe380e04d6deeba0f33c892db454f303fb739d9b768987a5ec6aca60405160405180910390a25b5b60005b825181101561201c576000838281518110611df157611df0613f23565b5b60200260200101519050600354600460008373ffffffffffffffffffffffffffffffffffffffff1673ffffffffffffffffffffffffffffffffffffffff168152602001908152602001600020541061200e57600354600460008373ffffffffffffffffffffffffffffffffffffffff1673ffffffffffffffffffffffffffffffffffffffff1681526020019081526020016000206000828254611e949190613f81565b925050819055508073ffffffffffffffffffffffffffffffffffffffff167f9a4e107c217fba3d242f257fd523c107ea3a28c2a71e8c7b6cf9a2893ecbb98d600460008473ffffffffffffffffffffffffffffffffffffffff1673ffffffffffffffffffffffffffffffffffffffff16815260200190815260200160002054604051611f209190614246565b60405180910390a2600154600460008373ffffffffffffffffffffffffffffffffffffffff1673ffffffffffffffffffffffffffffffffffffffff16815260200190815260200160002054101561200d576001600760008373ffffffffffffffffffffffffffffffffffffffff1673ffffffffffffffffffffffffffffffffffffffff16815260200190815260200160002060006101000a81548160ff0219169083151502179055508073ffffffffffffffffffffffffffffffffffffffff167f78be06d07afe380e04d6deeba0f33c892db454f303fb739d9b768987a5ec6aca60405160405180910390a25b5b508080600101915050611dd3565b5060008151111561219957600060035483516120389190614274565b9050600082518261204991906142e5565b905060005b835181101561219557816004600086848151811061206f5761206e613f23565b5b602002602001015173ffffffffffffffffffffffffffffffffffffffff1673ffffffffffffffffffffffffffffffffffffffff16815260200190815260200160002060008282546120c09190613fde565b925050819055508381815181106120da576120d9613f23565b5b602002602001015173ffffffffffffffffffffffffffffffffffffffff167f9a4e107c217fba3d242f257fd523c107ea3a28c2a71e8c7b6cf9a2893ecbb98d600460008785815181106121305761212f613f23565b5b602002602001015173ffffffffffffffffffffffffffffffffffffffff1673ffffffffffffffffffffffffffffffffffffffff168152602001908152602001600020546040516121809190614362565b60405180910390a2808060010191505061204e565b5050505b5b3373ffffffffffffffffffffffffffffffffffffffff16867f73a083c80d929db87db12fef6279f69cc0ef1cff5eeb56af2423987136de754e876040516121e19190613347565b60405180910390a35050506121f4612c28565b505050565b60006005600086815260200190815260200160002090503373ffffffffffffffffffffffffffffffffffffffff168160000160009054906101000a900473ffffffffffffffffffffffffffffffffffffffff1673ffffffffffffffffffffffffffffffffffffffff1614612299576040517f98b54f9f00000000000000000000000000000000000000000000000000000000815260040160405180910390fd5b600060028111156122ad576122ac6136c1565b5b8160050160009054906101000a900460ff1660028111156122d1576122d06136c1565b5b14612308576040517f986b6fa200000000000000000000000000000000000000000000000000000000815260040160405180910390fd5b83816001019081612319919061453c565b508181600301908161232b919061453c565b5060005b8351811015612396578160020184828151811061234f5761234e613f23565b5b6020026020010151908060018154018082558091505060019003906000526020600020016000909190919091509081612388919061453c565b50808060010191505061232f565b50847f76e478f351e69959848b5018dcec20960fea6a512e8907cf29958307da6256b760405160405180910390a25050505050565b60056020528060005260406000206000915090508060000160009054906101000a900473ffffffffffffffffffffffffffffffffffffffff169080600101805461241490613ef2565b80601f016020809104026020016040519081016040528092919081815260200182805461244090613ef2565b801561248d5780601f106124625761010080835404028352916020019161248d565b820191906000526020600020905b81548152906001019060200180831161247057829003601f168201915b5050505050908060030180546124a290613ef2565b80601f01602080910402602001604051908101604052809291908181526020018280546124ce90613ef2565b801561251b5780601f106124f05761010080835404028352916020019161251b565b820191906000526020600020905b8154815290600101906020018083116124fe57829003601f168201915b5050505050908060040154908060050160009054906101000a900460ff16908060060154905086565b60076020528060005260406000206000915054906101000a900460ff1681565b60035481565b612572612c05565b600760003373ffffffffffffffffffffffffffffffffffffffff1673ffffffffffffffffffffffffffffffffffffffff16815260200190815260200160002060009054906101000a900460ff16156125f6576040517fdb0e247600000000000000000000000000000000000000000000000000000000815260040160405180910390fd5b600154600460003373ffffffffffffffffffffffffffffffffffffffff1673ffffffffffffffffffffffffffffffffffffffff168152602001908152602001600020541015612671576040517faba4733900000000000000000000000000000000000000000000000000000000815260040160405180910390fd5b60025434146126ac576040517ff1bc94d200000000000000000000000000000000000000000000000000000000815260040160405180910390fd5b6000600660008154809291906126c19061460e565b9190505590506040518060e001604052803373ffffffffffffffffffffffffffffffffffffffff168152602001858152602001848152602001838152602001600081526020016000600281111561271b5761271a6136c1565b5b8152602001428152506005600083815260200190815260200160002060008201518160000160006101000a81548173ffffffffffffffffffffffffffffffffffffffff021916908373ffffffffffffffffffffffffffffffffffffffff1602179055506020820151816001019081612793919061453c565b5060408201518160020190805190602001906127b09291906131b9565b5060608201518160030190816127c6919061453c565b506080820151816004015560a08201518160050160006101000a81548160ff021916908360028111156127fc576127fb6136c1565b5b021790555060c082015181600601559050503373ffffffffffffffffffffffffffffffffffffffff16817ffe73cf9b793e65d9d707a5bfe3063e5f3a58eb52b27a356478c30fc83f5200f260405160405180910390a35061285b612c28565b505050565b61286b816001612c43565b50565b6128778261075d565b61288081612949565b61288a8383612a56565b50505050565b7fa49807205ce4d355092ef5a8a18f56e8913cf4a201fbe287825b095693c217756128ba81612949565b6128c5848484612b48565b50505050565b6128d6816000612c43565b50565b60015481565b60007f01ffc9a7000000000000000000000000000000000000000000000000000000007bffffffffffffffffffffffffffffffffffffffffffffffffffffffff1916827bffffffffffffffffffffffffffffffffffffffffffffffffffffffff1916149050919050565b61295a81612955612a4e565b61306f565b50565b60006129698383610e6b565b612a4357600160008085815260200190815260200160002060000160008473ffffffffffffffffffffffffffffffffffffffff1673ffffffffffffffffffffffffffffffffffffffff16815260200190815260200160002060006101000a81548160ff0219169083151502179055506129e0612a4e565b73ffffffffffffffffffffffffffffffffffffffff168273ffffffffffffffffffffffffffffffffffffffff16847f2f8788117e7eff1d82e926ec794901d17c78024a50270940304540a733656f0d60405160405180910390a460019050612a48565b600090505b92915050565b600033905090565b6000612a628383610e6b565b15612b3d57600080600085815260200190815260200160002060000160008473ffffffffffffffffffffffffffffffffffffffff1673ffffffffffffffffffffffffffffffffffffffff16815260200190815260200160002060006101000a81548160ff021916908315150217905550612ada612a4e565b73ffffffffffffffffffffffffffffffffffffffff168273ffffffffffffffffffffffffffffffffffffffff16847ff6391f5c32d9c69d2a47ea670b442974b53935d1edc7fd64eb21e047a839171b60405160405180910390a460019050612b42565b600090505b92915050565b6000831480612b575750600082145b80612b625750600081145b15612b99576040517f3db4717a00000000000000000000000000000000000000000000000000000000815260040160405180910390fd5b8260018190555081600281905550806003819055503373ffffffffffffffffffffffffffffffffffffffff167fe2d02d978aef6f01652b2eda9cc7e87c48b958fae23b1c19b60ea2da970811a2848484604051612bf893929190614656565b60405180910390a2505050565b612c0d6130c0565b6002612c1f612c1a613101565b61312c565b60000181905550565b6001612c3a612c35613101565b61312c565b60000181905550565b600760003373ffffffffffffffffffffffffffffffffffffffff1673ffffffffffffffffffffffffffffffffffffffff16815260200190815260200160002060009054906101000a900460ff1615612cc7576040517fdb0e247600000000000000000000000000000000000000000000000000000000815260040160405180910390fd5b600154600460003373ffffffffffffffffffffffffffffffffffffffff1673ffffffffffffffffffffffffffffffffffffffff168152602001908152602001600020541015612d42576040517faba4733900000000000000000000000000000000000000000000000000000000815260040160405180910390fd5b600073ffffffffffffffffffffffffffffffffffffffff166005600084815260200190815260200160002060000160009054906101000a900473ffffffffffffffffffffffffffffffffffffffff1673ffffffffffffffffffffffffffffffffffffffff1603612dde576040517f98b54f9f00000000000000000000000000000000000000000000000000000000815260040160405180910390fd5b6008600083815260200190815260200160002060003373ffffffffffffffffffffffffffffffffffffffff1673ffffffffffffffffffffffffffffffffffffffff16815260200190815260200160002060009054906101000a900460ff1615612e73576040517f7c9a1cf900000000000000000000000000000000000000000000000000000000815260040160405180910390fd5b60016008600084815260200190815260200160002060003373ffffffffffffffffffffffffffffffffffffffff1673ffffffffffffffffffffffffffffffffffffffff16815260200190815260200160002060006101000a81548160ff02191690831515021790555060006005600084815260200190815260200160002090508115612f8c57806004016000815480929190612f0e9061468d565b919050555060096000848152602001908152602001600020339080600181540180825580915050600190039060005260206000200160009091909190916101000a81548173ffffffffffffffffffffffffffffffffffffffff021916908373ffffffffffffffffffffffffffffffffffffffff16021790555061301b565b806004016000815480929190612fa1906146d5565b9190505550600a6000848152602001908152602001600020339080600181540180825580915050600190039060005260206000200160009091909190916101000a81548173ffffffffffffffffffffffffffffffffffffffff021916908373ffffffffffffffffffffffffffffffffffffffff1602179055505b3373ffffffffffffffffffffffffffffffffffffffff16837ff2913dbe661ee2acc4a046d8fbcdc792373bda34c41c6086484b5345e5785e5f846040516130629190613347565b60405180910390a3505050565b6130798282610e6b565b6130bc5780826040517fe2517d3f0000000000000000000000000000000000000000000000000000000081526004016130b392919061471d565b60405180910390fd5b5050565b6130c8613136565b156130ff576040517f3ee5aeb500000000000000000000000000000000000000000000000000000000815260040160405180910390fd5b565b60007f9b779b17422d0df92223018b32b4d1fa46e071723d6817e2486d003becc55f0060001b905090565b6000819050919050565b6000600261314a613145613101565b61312c565b6000015414905090565b6040518060e00160405280600073ffffffffffffffffffffffffffffffffffffffff16815260200160608152602001606081526020016060815260200160008152602001600060028111156131ac576131ab6136c1565b5b8152602001600081525090565b828054828255906000526020600020908101928215613201579160200282015b828111156132005782518290816131f0919061453c565b50916020019190600101906131d9565b5b50905061320e9190613212565b5090565b5b8082111561323257600081816132299190613236565b50600101613213565b5090565b50805461324290613ef2565b6000825580601f106132545750613273565b601f0160209004906000526020600020908101906132729190613276565b5b50565b5b8082111561328f576000816000905550600101613277565b5090565b6000604051905090565b600080fd5b600080fd5b60007fffffffff0000000000000000000000000000000000000000000000000000000082169050919050565b6132dc816132a7565b81146132e757600080fd5b50565b6000813590506132f9816132d3565b92915050565b6000602082840312156133155761331461329d565b5b6000613323848285016132ea565b91505092915050565b60008115159050919050565b6133418161332c565b82525050565b600060208201905061335c6000830184613338565b92915050565b6000819050919050565b61337581613362565b82525050565b6000602082019050613390600083018461336c565b92915050565b600073ffffffffffffffffffffffffffffffffffffffff82169050919050565b60006133c182613396565b9050919050565b6133d1816133b6565b81146133dc57600080fd5b50565b6000813590506133ee816133c8565b92915050565b60006020828403121561340a5761340961329d565b5b6000613418848285016133df565b91505092915050565b6000819050919050565b61343481613421565b811461343f57600080fd5b50565b6000813590506134518161342b565b92915050565b60006020828403121561346d5761346c61329d565b5b600061347b84828501613442565b91505092915050565b61348d81613421565b82525050565b60006020820190506134a86000830184613484565b92915050565b600080604083850312156134c5576134c461329d565b5b60006134d385828601613442565b92505060206134e4858286016133df565b9150509250929050565b6134f781613362565b811461350257600080fd5b50565b600081359050613514816134ee565b92915050565b6000602082840312156135305761352f61329d565b5b600061353e84828501613505565b91505092915050565b613550816133b6565b82525050565b600081519050919050565b600082825260208201905092915050565b60005b83811015613590578082015181840152602081019050613575565b60008484015250505050565b6000601f19601f8301169050919050565b60006135b882613556565b6135c28185613561565b93506135d2818560208601613572565b6135db8161359c565b840191505092915050565b600081519050919050565b600082825260208201905092915050565b6000819050602082019050919050565b600061361e83836135ad565b905092915050565b6000602082019050919050565b600061363e826135e6565b61364881856135f1565b93508360208202850161365a85613602565b8060005b8581101561369657848403895281516136778582613612565b945061368283613626565b925060208a0199505060018101905061365e565b50829750879550505050505092915050565b6000819050919050565b6136bb816136a8565b82525050565b7f4e487b7100000000000000000000000000000000000000000000000000000000600052602160045260246000fd5b60038110613701576137006136c1565b5b50565b6000819050613712826136f0565b919050565b600061372282613704565b9050919050565b61373281613717565b82525050565b61374181613362565b82525050565b600060e08301600083015161375f6000860182613547565b506020830151848203602086015261377782826135ad565b915050604083015184820360408601526137918282613633565b915050606083015184820360608601526137ab82826135ad565b91505060808301516137c060808601826136b2565b5060a08301516137d360a0860182613729565b5060c08301516137e660c0860182613738565b508091505092915050565b6000602082019050818103600083015261380b8184613747565b905092915050565b600081519050919050565b600082825260208201905092915050565b6000819050602082019050919050565b600060e0830160008301516138576000860182613547565b506020830151848203602086015261386f82826135ad565b915050604083015184820360408601526138898282613633565b915050606083015184820360608601526138a382826135ad565b91505060808301516138b860808601826136b2565b5060a08301516138cb60a0860182613729565b5060c08301516138de60c0860182613738565b508091505092915050565b60006138f5838361383f565b905092915050565b6000602082019050919050565b600061391582613813565b61391f818561381e565b9350836020820285016139318561382f565b8060005b8581101561396d578484038952815161394e85826138e9565b9450613959836138fd565b925060208a01995050600181019050613935565b50829750879550505050505092915050565b60006020820190508181036000830152613999818461390a565b905092915050565b6139aa8161332c565b81146139b557600080fd5b50565b6000813590506139c7816139a1565b92915050565b600080604083850312156139e4576139e361329d565b5b60006139f285828601613505565b9250506020613a03858286016139b8565b9150509250929050565b600080fd5b600080fd5b7f4e487b7100000000000000000000000000000000000000000000000000000000600052604160045260246000fd5b613a4f8261359c565b810181811067ffffffffffffffff82111715613a6e57613a6d613a17565b5b80604052505050565b6000613a81613293565b9050613a8d8282613a46565b919050565b600067ffffffffffffffff821115613aad57613aac613a17565b5b613ab68261359c565b9050602081019050919050565b82818337600083830152505050565b6000613ae5613ae084613a92565b613a77565b905082815260208101848484011115613b0157613b00613a12565b5b613b0c848285613ac3565b509392505050565b600082601f830112613b2957613b28613a0d565b5b8135613b39848260208601613ad2565b91505092915050565b600067ffffffffffffffff821115613b5d57613b5c613a17565b5b602082029050602081019050919050565b600080fd5b6000613b86613b8184613b42565b613a77565b90508083825260208201905060208402830185811115613ba957613ba8613b6e565b5b835b81811015613bf057803567ffffffffffffffff811115613bce57613bcd613a0d565b5b808601613bdb8982613b14565b85526020850194505050602081019050613bab565b5050509392505050565b600082601f830112613c0f57613c0e613a0d565b5b8135613c1f848260208601613b73565b91505092915050565b60008060008060808587031215613c4257613c4161329d565b5b6000613c5087828801613505565b945050602085013567ffffffffffffffff811115613c7157613c706132a2565b5b613c7d87828801613b14565b935050604085013567ffffffffffffffff811115613c9e57613c9d6132a2565b5b613caa87828801613bfa565b925050606085013567ffffffffffffffff811115613ccb57613cca6132a2565b5b613cd787828801613b14565b91505092959194509250565b613cec816133b6565b82525050565b600082825260208201905092915050565b6000613d0e82613556565b613d188185613cf2565b9350613d28818560208601613572565b613d318161359c565b840191505092915050565b613d45816136a8565b82525050565b613d5481613717565b82525050565b600060c082019050613d6f6000830189613ce3565b8181036020830152613d818188613d03565b90508181036040830152613d958187613d03565b9050613da46060830186613d3c565b613db16080830185613d4b565b613dbe60a083018461336c565b979650505050505050565b600080600060608486031215613de257613de161329d565b5b600084013567ffffffffffffffff811115613e0057613dff6132a2565b5b613e0c86828701613b14565b935050602084013567ffffffffffffffff811115613e2d57613e2c6132a2565b5b613e3986828701613bfa565b925050604084013567ffffffffffffffff811115613e5a57613e596132a2565b5b613e6686828701613b14565b9150509250925092565b600080600060608486031215613e8957613e8861329d565b5b6000613e9786828701613505565b9350506020613ea886828701613505565b9250506040613eb986828701613505565b9150509250925092565b7f4e487b7100000000000000000000000000000000000000000000000000000000600052602260045260246000fd5b60006002820490506001821680613f0a57607f821691505b602082108103613f1d57613f1c613ec3565b5b50919050565b7f4e487b7100000000000000000000000000000000000000000000000000000000600052603260045260246000fd5b7f4e487b7100000000000000000000000000000000000000000000000000000000600052601160045260246000fd5b6000613f8c82613362565b9150613f9783613362565b9250828203905081811115613faf57613fae613f52565b5b92915050565b6000613fc082613362565b915060008203613fd357613fd2613f52565b5b600182039050919050565b6000613fe982613362565b9150613ff483613362565b925082820190508082111561400c5761400b613f52565b5b92915050565b7f417070726f766564207265706f72742072657761726400000000000000000000600082015250565b6000614048601683613cf2565b915061405382614012565b602082019050919050565b6000604082019050614073600083018461336c565b81810360208301526140848161403b565b905092915050565b7f436f72726563742075702d766f74652072657761726400000000000000000000600082015250565b60006140c2601683613cf2565b91506140cd8261408c565b602082019050919050565b60006040820190506140ed600083018461336c565b81810360208301526140fe816140b5565b905092915050565b7f496e636f727265637420646f776e2d766f74652070656e616c74790000000000600082015250565b600061413c601b83613cf2565b915061414782614106565b602082019050919050565b6000604082019050614167600083018461336c565b81810360208301526141788161412f565b905092915050565b7f52656a6563746564207265706f72742070656e616c7479000000000000000000600082015250565b60006141b6601783613cf2565b91506141c182614180565b602082019050919050565b60006040820190506141e1600083018461336c565b81810360208301526141f2816141a9565b905092915050565b7f496e636f72726563742075702d766f74652070656e616c747900000000000000600082015250565b6000614230601983613cf2565b915061423b826141fa565b602082019050919050565b600060408201905061425b600083018461336c565b818103602083015261426c81614223565b905092915050565b600061427f82613362565b915061428a83613362565b925082820261429881613362565b915082820484148315176142af576142ae613f52565b5b5092915050565b7f4e487b7100000000000000000000000000000000000000000000000000000000600052601260045260246000fd5b60006142f082613362565b91506142fb83613362565b92508261430b5761430a6142b6565b5b828204905092915050565b7f436f727265637420646f776e2d766f7465207265776172640000000000000000600082015250565b600061434c601883613cf2565b915061435782614316565b602082019050919050565b6000604082019050614377600083018461336c565b81810360208301526143888161433f565b905092915050565b60008190508160005260206000209050919050565b60006020601f8301049050919050565b600082821b905092915050565b6000600883026143f27fffffffffffffffffffffffffffffffffffffffffffffffffffffffffffffffff826143b5565b6143fc86836143b5565b95508019841693508086168417925050509392505050565b6000819050919050565b600061443961443461442f84613362565b614414565b613362565b9050919050565b6000819050919050565b6144538361441e565b61446761445f82614440565b8484546143c2565b825550505050565b600090565b61447c61446f565b61448781848461444a565b505050565b5b818110156144ab576144a0600082614474565b60018101905061448d565b5050565b601f8211156144f0576144c181614390565b6144ca846143a5565b810160208510156144d9578190505b6144ed6144e5856143a5565b83018261448c565b50505b505050565b600082821c905092915050565b6000614513600019846008026144f5565b1980831691505092915050565b600061452c8383614502565b9150826002028217905092915050565b61454582613556565b67ffffffffffffffff81111561455e5761455d613a17565b5b6145688254613ef2565b6145738282856144af565b600060209050601f8311600181146145a65760008415614594578287015190505b61459e8582614520565b865550614606565b601f1984166145b486614390565b60005b828110156145dc578489015182556001820191506020850194506020810190506145b7565b868310156145f957848901516145f5601f891682614502565b8355505b6001600288020188555050505b505050505050565b600061461982613362565b91507fffffffffffffffffffffffffffffffffffffffffffffffffffffffffffffffff820361464b5761464a613f52565b5b600182019050919050565b600060608201905061466b600083018661336c565b614678602083018561336c565b614685604083018461336c565b949350505050565b6000614698826136a8565b91507f7fffffffffffffffffffffffffffffffffffffffffffffffffffffffffffffff82036146ca576146c9613f52565b5b600182019050919050565b60006146e0826136a8565b91507f8000000000000000000000000000000000000000000000000000000000000000820361471257614711613f52565b5b600182039050919050565b60006040820190506147326000830185613ce3565b61473f6020830184613484565b939250505056fea264697066735822122059f5f26348cb48b72907e8a7dc1d63ad98f7127485acdfbcd2d5b0d72afea04164736f6c63430008180033","opcodes":"PUSH1 0x80 PUSH1 0x40 MSTORE CALLVALUE DUP1 ISZERO PUSH3 0x11 JUMPI PUSH1 0x0 DUP1 REVERT JUMPDEST POP PUSH1 0x1 PUSH3 0x34 PUSH3 0x28 PUSH3 0x98 PUSH1 0x20 SHL PUSH1 0x20 SHR JUMP JUMPDEST PUSH3 0xC3 PUSH1 0x20 SHL PUSH1 0x20 SHR JUMP JUMPDEST PUSH1 0x0 ADD DUP2 SWAP1 SSTORE POP PUSH3 0x6D PUSH32 0xA49807205CE4D355092EF5A8A18F56E8913CF4A201FBE287825B095693C21775 CALLER PUSH3 0xCD PUSH1 0x20 SHL PUSH1 0x20 SHR JUMP JUMPDEST POP PUSH3 0x92 PUSH6 0x12309CE54000 PUSH6 0x65DD0837000 PUSH5 0xE8D4A51000 PUSH3 0x1D0 PUSH1 0x20 SHL PUSH1 0x20 SHR JUMP JUMPDEST PUSH3 0x35C JUMP JUMPDEST PUSH1 0x0 PUSH32 0x9B779B17422D0DF92223018B32B4D1FA46E071723D6817E2486D003BECC55F00 PUSH1 0x0 SHL SWAP1 POP SWAP1 JUMP JUMPDEST PUSH1 0x0 DUP2 SWAP1 POP SWAP2 SWAP1 POP JUMP JUMPDEST PUSH1 0x0 PUSH3 0xE1 DUP4 DUP4 PUSH3 0x292 PUSH1 0x20 SHL PUSH1 0x20 SHR JUMP JUMPDEST PUSH3 0x1C5 JUMPI PUSH1 0x1 PUSH1 0x0 DUP1 DUP6 DUP2 MSTORE PUSH1 0x20 ADD SWAP1 DUP2 MSTORE PUSH1 0x20 ADD PUSH1 0x0 KECCAK256 PUSH1 0x0 ADD PUSH1 0x0 DUP5 PUSH20 0xFFFFFFFFFFFFFFFFFFFFFFFFFFFFFFFFFFFFFFFF AND PUSH20 0xFFFFFFFFFFFFFFFFFFFFFFFFFFFFFFFFFFFFFFFF AND DUP2 MSTORE PUSH1 0x20 ADD SWAP1 DUP2 MSTORE PUSH1 0x20 ADD PUSH1 0x0 KECCAK256 PUSH1 0x0 PUSH2 0x100 EXP DUP2 SLOAD DUP2 PUSH1 0xFF MUL NOT AND SWAP1 DUP4 ISZERO ISZERO MUL OR SWAP1 SSTORE POP PUSH3 0x161 PUSH3 0x2FC PUSH1 0x20 SHL PUSH1 0x20 SHR JUMP JUMPDEST PUSH20 0xFFFFFFFFFFFFFFFFFFFFFFFFFFFFFFFFFFFFFFFF AND DUP3 PUSH20 0xFFFFFFFFFFFFFFFFFFFFFFFFFFFFFFFFFFFFFFFF AND DUP5 PUSH32 0x2F8788117E7EFF1D82E926EC794901D17C78024A50270940304540A733656F0D PUSH1 0x40 MLOAD PUSH1 0x40 MLOAD DUP1 SWAP2 SUB SWAP1 LOG4 PUSH1 0x1 SWAP1 POP PUSH3 0x1CA JUMP JUMPDEST PUSH1 0x0 SWAP1 POP JUMPDEST SWAP3 SWAP2 POP POP JUMP JUMPDEST PUSH1 0x0 DUP4 EQ DUP1 PUSH3 0x1E0 JUMPI POP PUSH1 0x0 DUP3 EQ JUMPDEST DUP1 PUSH3 0x1EC JUMPI POP PUSH1 0x0 DUP2 EQ JUMPDEST ISZERO PUSH3 0x224 JUMPI PUSH1 0x40 MLOAD PUSH32 0x3DB4717A00000000000000000000000000000000000000000000000000000000 DUP2 MSTORE PUSH1 0x4 ADD PUSH1 0x40 MLOAD DUP1 SWAP2 SUB SWAP1 REVERT JUMPDEST DUP3 PUSH1 0x1 DUP2 SWAP1 SSTORE POP DUP2 PUSH1 0x2 DUP2 SWAP1 SSTORE POP DUP1 PUSH1 0x3 DUP2 SWAP1 SSTORE POP CALLER PUSH20 0xFFFFFFFFFFFFFFFFFFFFFFFFFFFFFFFFFFFFFFFF AND PUSH32 0xE2D02D978AEF6F01652B2EDA9CC7E87C48B958FAE23B1C19B60EA2DA970811A2 DUP5 DUP5 DUP5 PUSH1 0x40 MLOAD PUSH3 0x285 SWAP4 SWAP3 SWAP2 SWAP1 PUSH3 0x31F JUMP JUMPDEST PUSH1 0x40 MLOAD DUP1 SWAP2 SUB SWAP1 LOG2 POP POP POP JUMP JUMPDEST PUSH1 0x0 DUP1 PUSH1 0x0 DUP5 DUP2 MSTORE PUSH1 0x20 ADD SWAP1 DUP2 MSTORE PUSH1 0x20 ADD PUSH1 0x0 KECCAK256 PUSH1 0x0 ADD PUSH1 0x0 DUP4 PUSH20 0xFFFFFFFFFFFFFFFFFFFFFFFFFFFFFFFFFFFFFFFF AND PUSH20 0xFFFFFFFFFFFFFFFFFFFFFFFFFFFFFFFFFFFFFFFF AND DUP2 MSTORE PUSH1 0x20 ADD SWAP1 DUP2 MSTORE PUSH1 0x20 ADD PUSH1 0x0 KECCAK256 PUSH1 0x0 SWAP1 SLOAD SWAP1 PUSH2 0x100 EXP SWAP1 DIV PUSH1 0xFF AND SWAP1 POP SWAP3 SWAP2 POP POP JUMP JUMPDEST PUSH1 0x0 CALLER SWAP1 POP SWAP1 JUMP JUMPDEST PUSH1 0x0 DUP2 SWAP1 POP SWAP2 SWAP1 POP JUMP JUMPDEST PUSH3 0x319 DUP2 PUSH3 0x304 JUMP JUMPDEST DUP3 MSTORE POP POP JUMP JUMPDEST PUSH1 0x0 PUSH1 0x60 DUP3 ADD SWAP1 POP PUSH3 0x336 PUSH1 0x0 DUP4 ADD DUP7 PUSH3 0x30E JUMP JUMPDEST PUSH3 0x345 PUSH1 0x20 DUP4 ADD DUP6 PUSH3 0x30E JUMP JUMPDEST PUSH3 0x354 PUSH1 0x40 DUP4 ADD DUP5 PUSH3 0x30E JUMP JUMPDEST SWAP5 SWAP4 POP POP POP POP JUMP JUMPDEST PUSH2 0x477C DUP1 PUSH3 0x36C PUSH1 0x0 CODECOPY PUSH1 0x0 RETURN INVALID PUSH1 0x80 PUSH1 0x40 MSTORE PUSH1 0x4 CALLDATASIZE LT PUSH2 0x1B7 JUMPI PUSH1 0x0 CALLDATALOAD PUSH1 0xE0 SHR DUP1 PUSH4 0xA217FDDF GT PUSH2 0xEC JUMPI DUP1 PUSH4 0xCF849442 GT PUSH2 0x8A JUMPI DUP1 PUSH4 0xD547741F GT PUSH2 0x64 JUMPI DUP1 PUSH4 0xD547741F EQ PUSH2 0x619 JUMPI DUP1 PUSH4 0xDDAC9646 EQ PUSH2 0x642 JUMPI DUP1 PUSH4 0xEDA72B2E EQ PUSH2 0x66B JUMPI DUP1 PUSH4 0xFAF5625F EQ PUSH2 0x694 JUMPI PUSH2 0x1B7 JUMP JUMPDEST DUP1 PUSH4 0xCF849442 EQ PUSH2 0x5A9 JUMPI DUP1 PUSH4 0xD043F5CE EQ PUSH2 0x5D4 JUMPI DUP1 PUSH4 0xD4EBC5FF EQ PUSH2 0x5F0 JUMPI PUSH2 0x1B7 JUMP JUMPDEST DUP1 PUSH4 0xAE7C18DF GT PUSH2 0xC6 JUMPI DUP1 PUSH4 0xAE7C18DF EQ PUSH2 0x4D8 JUMPI DUP1 PUSH4 0xBFFE3CCE EQ PUSH2 0x501 JUMPI DUP1 PUSH4 0xC942ADF7 EQ PUSH2 0x52A JUMPI DUP1 PUSH4 0xCBF9FE5F EQ PUSH2 0x56C JUMPI PUSH2 0x1B7 JUMP JUMPDEST DUP1 PUSH4 0xA217FDDF EQ PUSH2 0x459 JUMPI DUP1 PUSH4 0xA3C86DAF EQ PUSH2 0x484 JUMPI DUP1 PUSH4 0xA8A65A78 EQ PUSH2 0x4AF JUMPI PUSH2 0x1B7 JUMP JUMPDEST DUP1 PUSH4 0x43808C50 GT PUSH2 0x159 JUMPI DUP1 PUSH4 0x70912D24 GT PUSH2 0x133 JUMPI DUP1 PUSH4 0x70912D24 EQ PUSH2 0x3BE JUMPI DUP1 PUSH4 0x75B238FC EQ PUSH2 0x3E7 JUMPI DUP1 PUSH4 0x907DE2CC EQ PUSH2 0x412 JUMPI DUP1 PUSH4 0x91D14854 EQ PUSH2 0x41C JUMPI PUSH2 0x1B7 JUMP JUMPDEST DUP1 PUSH4 0x43808C50 EQ PUSH2 0x31B JUMPI DUP1 PUSH4 0x4A4FBEEC EQ PUSH2 0x344 JUMPI DUP1 PUSH4 0x4E7F9B19 EQ PUSH2 0x381 JUMPI PUSH2 0x1B7 JUMP JUMPDEST DUP1 PUSH4 0x185C6F84 GT PUSH2 0x195 JUMPI DUP1 PUSH4 0x185C6F84 EQ PUSH2 0x261 JUMPI DUP1 PUSH4 0x248A9CA3 EQ PUSH2 0x28C JUMPI DUP1 PUSH4 0x2F2FF15D EQ PUSH2 0x2C9 JUMPI DUP1 PUSH4 0x36568ABE EQ PUSH2 0x2F2 JUMPI PUSH2 0x1B7 JUMP JUMPDEST DUP1 PUSH4 0x1FFC9A7 EQ PUSH2 0x1BC JUMPI DUP1 PUSH4 0xD636DE6 EQ PUSH2 0x1F9 JUMPI DUP1 PUSH4 0x16934FC4 EQ PUSH2 0x224 JUMPI JUMPDEST PUSH1 0x0 DUP1 REVERT JUMPDEST CALLVALUE DUP1 ISZERO PUSH2 0x1C8 JUMPI PUSH1 0x0 DUP1 REVERT JUMPDEST POP PUSH2 0x1E3 PUSH1 0x4 DUP1 CALLDATASIZE SUB DUP2 ADD SWAP1 PUSH2 0x1DE SWAP2 SWAP1 PUSH2 0x32FF JUMP JUMPDEST PUSH2 0x6BF JUMP JUMPDEST PUSH1 0x40 MLOAD PUSH2 0x1F0 SWAP2 SWAP1 PUSH2 0x3347 JUMP JUMPDEST PUSH1 0x40 MLOAD DUP1 SWAP2 SUB SWAP1 RETURN JUMPDEST CALLVALUE DUP1 ISZERO PUSH2 0x205 JUMPI PUSH1 0x0 DUP1 REVERT JUMPDEST POP PUSH2 0x20E PUSH2 0x739 JUMP JUMPDEST PUSH1 0x40 MLOAD PUSH2 0x21B SWAP2 SWAP1 PUSH2 0x337B JUMP JUMPDEST PUSH1 0x40 MLOAD DUP1 SWAP2 SUB SWAP1 RETURN JUMPDEST CALLVALUE DUP1 ISZERO PUSH2 0x230 JUMPI PUSH1 0x0 DUP1 REVERT JUMPDEST POP PUSH2 0x24B PUSH1 0x4 DUP1 CALLDATASIZE SUB DUP2 ADD SWAP1 PUSH2 0x246 SWAP2 SWAP1 PUSH2 0x33F4 JUMP JUMPDEST PUSH2 0x73F JUMP JUMPDEST PUSH1 0x40 MLOAD PUSH2 0x258 SWAP2 SWAP1 PUSH2 0x337B JUMP JUMPDEST PUSH1 0x40 MLOAD DUP1 SWAP2 SUB SWAP1 RETURN JUMPDEST CALLVALUE DUP1 ISZERO PUSH2 0x26D JUMPI PUSH1 0x0 DUP1 REVERT JUMPDEST POP PUSH2 0x276 PUSH2 0x757 JUMP JUMPDEST PUSH1 0x40 MLOAD PUSH2 0x283 SWAP2 SWAP1 PUSH2 0x337B JUMP JUMPDEST PUSH1 0x40 MLOAD DUP1 SWAP2 SUB SWAP1 RETURN JUMPDEST CALLVALUE DUP1 ISZERO PUSH2 0x298 JUMPI PUSH1 0x0 DUP1 REVERT JUMPDEST POP PUSH2 0x2B3 PUSH1 0x4 DUP1 CALLDATASIZE SUB DUP2 ADD SWAP1 PUSH2 0x2AE SWAP2 SWAP1 PUSH2 0x3457 JUMP JUMPDEST PUSH2 0x75D JUMP JUMPDEST PUSH1 0x40 MLOAD PUSH2 0x2C0 SWAP2 SWAP1 PUSH2 0x3493 JUMP JUMPDEST PUSH1 0x40 MLOAD DUP1 SWAP2 SUB SWAP1 RETURN JUMPDEST CALLVALUE DUP1 ISZERO PUSH2 0x2D5 JUMPI PUSH1 0x0 DUP1 REVERT JUMPDEST POP PUSH2 0x2F0 PUSH1 0x4 DUP1 CALLDATASIZE SUB DUP2 ADD SWAP1 PUSH2 0x2EB SWAP2 SWAP1 PUSH2 0x34AE JUMP JUMPDEST PUSH2 0x77C JUMP JUMPDEST STOP JUMPDEST CALLVALUE DUP1 ISZERO PUSH2 0x2FE JUMPI PUSH1 0x0 DUP1 REVERT JUMPDEST POP PUSH2 0x319 PUSH1 0x4 DUP1 CALLDATASIZE SUB DUP2 ADD SWAP1 PUSH2 0x314 SWAP2 SWAP1 PUSH2 0x34AE JUMP JUMPDEST PUSH2 0x79E JUMP JUMPDEST STOP JUMPDEST CALLVALUE DUP1 ISZERO PUSH2 0x327 JUMPI PUSH1 0x0 DUP1 REVERT JUMPDEST POP PUSH2 0x342 PUSH1 0x4 DUP1 CALLDATASIZE SUB DUP2 ADD SWAP1 PUSH2 0x33D SWAP2 SWAP1 PUSH2 0x351A JUMP JUMPDEST PUSH2 0x819 JUMP JUMPDEST STOP JUMPDEST CALLVALUE DUP1 ISZERO PUSH2 0x350 JUMPI PUSH1 0x0 DUP1 REVERT JUMPDEST POP PUSH2 0x36B PUSH1 0x4 DUP1 CALLDATASIZE SUB DUP2 ADD SWAP1 PUSH2 0x366 SWAP2 SWAP1 PUSH2 0x33F4 JUMP JUMPDEST PUSH2 0x856 JUMP JUMPDEST PUSH1 0x40 MLOAD PUSH2 0x378 SWAP2 SWAP1 PUSH2 0x3347 JUMP JUMPDEST PUSH1 0x40 MLOAD DUP1 SWAP2 SUB SWAP1 RETURN JUMPDEST CALLVALUE DUP1 ISZERO PUSH2 0x38D JUMPI PUSH1 0x0 DUP1 REVERT JUMPDEST POP PUSH2 0x3A8 PUSH1 0x4 DUP1 CALLDATASIZE SUB DUP2 ADD SWAP1 PUSH2 0x3A3 SWAP2 SWAP1 PUSH2 0x351A JUMP JUMPDEST PUSH2 0x8AC JUMP JUMPDEST PUSH1 0x40 MLOAD PUSH2 0x3B5 SWAP2 SWAP1 PUSH2 0x37F1 JUMP JUMPDEST PUSH1 0x40 MLOAD DUP1 SWAP2 SUB SWAP1 RETURN JUMPDEST CALLVALUE DUP1 ISZERO PUSH2 0x3CA JUMPI PUSH1 0x0 DUP1 REVERT JUMPDEST POP PUSH2 0x3E5 PUSH1 0x4 DUP1 CALLDATASIZE SUB DUP2 ADD SWAP1 PUSH2 0x3E0 SWAP2 SWAP1 PUSH2 0x351A JUMP JUMPDEST PUSH2 0xB7B JUMP JUMPDEST STOP JUMPDEST CALLVALUE DUP1 ISZERO PUSH2 0x3F3 JUMPI PUSH1 0x0 DUP1 REVERT JUMPDEST POP PUSH2 0x3FC PUSH2 0xBB8 JUMP JUMPDEST PUSH1 0x40 MLOAD PUSH2 0x409 SWAP2 SWAP1 PUSH2 0x3493 JUMP JUMPDEST PUSH1 0x40 MLOAD DUP1 SWAP2 SUB SWAP1 RETURN JUMPDEST PUSH2 0x41A PUSH2 0xBDC JUMP JUMPDEST STOP JUMPDEST CALLVALUE DUP1 ISZERO PUSH2 0x428 JUMPI PUSH1 0x0 DUP1 REVERT JUMPDEST POP PUSH2 0x443 PUSH1 0x4 DUP1 CALLDATASIZE SUB DUP2 ADD SWAP1 PUSH2 0x43E SWAP2 SWAP1 PUSH2 0x34AE JUMP JUMPDEST PUSH2 0xE6B JUMP JUMPDEST PUSH1 0x40 MLOAD PUSH2 0x450 SWAP2 SWAP1 PUSH2 0x3347 JUMP JUMPDEST PUSH1 0x40 MLOAD DUP1 SWAP2 SUB SWAP1 RETURN JUMPDEST CALLVALUE DUP1 ISZERO PUSH2 0x465 JUMPI PUSH1 0x0 DUP1 REVERT JUMPDEST POP PUSH2 0x46E PUSH2 0xED5 JUMP JUMPDEST PUSH1 0x40 MLOAD PUSH2 0x47B SWAP2 SWAP1 PUSH2 0x3493 JUMP JUMPDEST PUSH1 0x40 MLOAD DUP1 SWAP2 SUB SWAP1 RETURN JUMPDEST CALLVALUE DUP1 ISZERO PUSH2 0x490 JUMPI PUSH1 0x0 DUP1 REVERT JUMPDEST POP PUSH2 0x499 PUSH2 0xEDC JUMP JUMPDEST PUSH1 0x40 MLOAD PUSH2 0x4A6 SWAP2 SWAP1 PUSH2 0x397F JUMP JUMPDEST PUSH1 0x40 MLOAD DUP1 SWAP2 SUB SWAP1 RETURN JUMPDEST CALLVALUE DUP1 ISZERO PUSH2 0x4BB JUMPI PUSH1 0x0 DUP1 REVERT JUMPDEST POP PUSH2 0x4D6 PUSH1 0x4 DUP1 CALLDATASIZE SUB DUP2 ADD SWAP1 PUSH2 0x4D1 SWAP2 SWAP1 PUSH2 0x351A JUMP JUMPDEST PUSH2 0x133D JUMP JUMPDEST STOP JUMPDEST CALLVALUE DUP1 ISZERO PUSH2 0x4E4 JUMPI PUSH1 0x0 DUP1 REVERT JUMPDEST POP PUSH2 0x4FF PUSH1 0x4 DUP1 CALLDATASIZE SUB DUP2 ADD SWAP1 PUSH2 0x4FA SWAP2 SWAP1 PUSH2 0x39CD JUMP JUMPDEST PUSH2 0x137A JUMP JUMPDEST STOP JUMPDEST CALLVALUE DUP1 ISZERO PUSH2 0x50D JUMPI PUSH1 0x0 DUP1 REVERT JUMPDEST POP PUSH2 0x528 PUSH1 0x4 DUP1 CALLDATASIZE SUB DUP2 ADD SWAP1 PUSH2 0x523 SWAP2 SWAP1 PUSH2 0x3C28 JUMP JUMPDEST PUSH2 0x21F9 JUMP JUMPDEST STOP JUMPDEST CALLVALUE DUP1 ISZERO PUSH2 0x536 JUMPI PUSH1 0x0 DUP1 REVERT JUMPDEST POP PUSH2 0x551 PUSH1 0x4 DUP1 CALLDATASIZE SUB DUP2 ADD SWAP1 PUSH2 0x54C SWAP2 SWAP1 PUSH2 0x351A JUMP JUMPDEST PUSH2 0x23CB JUMP JUMPDEST PUSH1 0x40 MLOAD PUSH2 0x563 SWAP7 SWAP6 SWAP5 SWAP4 SWAP3 SWAP2 SWAP1 PUSH2 0x3D5A JUMP JUMPDEST PUSH1 0x40 MLOAD DUP1 SWAP2 SUB SWAP1 RETURN JUMPDEST CALLVALUE DUP1 ISZERO PUSH2 0x578 JUMPI PUSH1 0x0 DUP1 REVERT JUMPDEST POP PUSH2 0x593 PUSH1 0x4 DUP1 CALLDATASIZE SUB DUP2 ADD SWAP1 PUSH2 0x58E SWAP2 SWAP1 PUSH2 0x33F4 JUMP JUMPDEST PUSH2 0x2544 JUMP JUMPDEST PUSH1 0x40 MLOAD PUSH2 0x5A0 SWAP2 SWAP1 PUSH2 0x3347 JUMP JUMPDEST PUSH1 0x40 MLOAD DUP1 SWAP2 SUB SWAP1 RETURN JUMPDEST CALLVALUE DUP1 ISZERO PUSH2 0x5B5 JUMPI PUSH1 0x0 DUP1 REVERT JUMPDEST POP PUSH2 0x5BE PUSH2 0x2564 JUMP JUMPDEST PUSH1 0x40 MLOAD PUSH2 0x5CB SWAP2 SWAP1 PUSH2 0x337B JUMP JUMPDEST PUSH1 0x40 MLOAD DUP1 SWAP2 SUB SWAP1 RETURN JUMPDEST PUSH2 0x5EE PUSH1 0x4 DUP1 CALLDATASIZE SUB DUP2 ADD SWAP1 PUSH2 0x5E9 SWAP2 SWAP1 PUSH2 0x3DC9 JUMP JUMPDEST PUSH2 0x256A JUMP JUMPDEST STOP JUMPDEST CALLVALUE DUP1 ISZERO PUSH2 0x5FC JUMPI PUSH1 0x0 DUP1 REVERT JUMPDEST POP PUSH2 0x617 PUSH1 0x4 DUP1 CALLDATASIZE SUB DUP2 ADD SWAP1 PUSH2 0x612 SWAP2 SWAP1 PUSH2 0x351A JUMP JUMPDEST PUSH2 0x2860 JUMP JUMPDEST STOP JUMPDEST CALLVALUE DUP1 ISZERO PUSH2 0x625 JUMPI PUSH1 0x0 DUP1 REVERT JUMPDEST POP PUSH2 0x640 PUSH1 0x4 DUP1 CALLDATASIZE SUB DUP2 ADD SWAP1 PUSH2 0x63B SWAP2 SWAP1 PUSH2 0x34AE JUMP JUMPDEST PUSH2 0x286E JUMP JUMPDEST STOP JUMPDEST CALLVALUE DUP1 ISZERO PUSH2 0x64E JUMPI PUSH1 0x0 DUP1 REVERT JUMPDEST POP PUSH2 0x669 PUSH1 0x4 DUP1 CALLDATASIZE SUB DUP2 ADD SWAP1 PUSH2 0x664 SWAP2 SWAP1 PUSH2 0x3E70 JUMP JUMPDEST PUSH2 0x2890 JUMP JUMPDEST STOP JUMPDEST CALLVALUE DUP1 ISZERO PUSH2 0x677 JUMPI PUSH1 0x0 DUP1 REVERT JUMPDEST POP PUSH2 0x692 PUSH1 0x4 DUP1 CALLDATASIZE SUB DUP2 ADD SWAP1 PUSH2 0x68D SWAP2 SWAP1 PUSH2 0x351A JUMP JUMPDEST PUSH2 0x28CB JUMP JUMPDEST STOP JUMPDEST CALLVALUE DUP1 ISZERO PUSH2 0x6A0 JUMPI PUSH1 0x0 DUP1 REVERT JUMPDEST POP PUSH2 0x6A9 PUSH2 0x28D9 JUMP JUMPDEST PUSH1 0x40 MLOAD PUSH2 0x6B6 SWAP2 SWAP1 PUSH2 0x337B JUMP JUMPDEST PUSH1 0x40 MLOAD DUP1 SWAP2 SUB SWAP1 RETURN JUMPDEST PUSH1 0x0 PUSH32 0x7965DB0B00000000000000000000000000000000000000000000000000000000 PUSH28 0xFFFFFFFFFFFFFFFFFFFFFFFFFFFFFFFFFFFFFFFFFFFFFFFFFFFFFFFF NOT AND DUP3 PUSH28 0xFFFFFFFFFFFFFFFFFFFFFFFFFFFFFFFFFFFFFFFFFFFFFFFFFFFFFFFF NOT AND EQ DUP1 PUSH2 0x732 JUMPI POP PUSH2 0x731 DUP3 PUSH2 0x28DF JUMP JUMPDEST JUMPDEST SWAP1 POP SWAP2 SWAP1 POP JUMP JUMPDEST PUSH1 0x2 SLOAD DUP2 JUMP JUMPDEST PUSH1 0x4 PUSH1 0x20 MSTORE DUP1 PUSH1 0x0 MSTORE PUSH1 0x40 PUSH1 0x0 KECCAK256 PUSH1 0x0 SWAP2 POP SWAP1 POP SLOAD DUP2 JUMP JUMPDEST PUSH1 0x6 SLOAD DUP2 JUMP JUMPDEST PUSH1 0x0 DUP1 PUSH1 0x0 DUP4 DUP2 MSTORE PUSH1 0x20 ADD SWAP1 DUP2 MSTORE PUSH1 0x20 ADD PUSH1 0x0 KECCAK256 PUSH1 0x1 ADD SLOAD SWAP1 POP SWAP2 SWAP1 POP JUMP JUMPDEST PUSH2 0x785 DUP3 PUSH2 0x75D JUMP JUMPDEST PUSH2 0x78E DUP2 PUSH2 0x2949 JUMP JUMPDEST PUSH2 0x798 DUP4 DUP4 PUSH2 0x295D JUMP JUMPDEST POP POP POP POP JUMP JUMPDEST PUSH2 0x7A6 PUSH2 0x2A4E JUMP JUMPDEST PUSH20 0xFFFFFFFFFFFFFFFFFFFFFFFFFFFFFFFFFFFFFFFF AND DUP2 PUSH20 0xFFFFFFFFFFFFFFFFFFFFFFFFFFFFFFFFFFFFFFFF AND EQ PUSH2 0x80A JUMPI PUSH1 0x40 MLOAD PUSH32 0x6697B23200000000000000000000000000000000000000000000000000000000 DUP2 MSTORE PUSH1 0x4 ADD PUSH1 0x40 MLOAD DUP1 SWAP2 SUB SWAP1 REVERT JUMPDEST PUSH2 0x814 DUP3 DUP3 PUSH2 0x2A56 JUMP JUMPDEST POP POP POP JUMP JUMPDEST PUSH32 0xA49807205CE4D355092EF5A8A18F56E8913CF4A201FBE287825B095693C21775 PUSH2 0x843 DUP2 PUSH2 0x2949 JUMP JUMPDEST PUSH2 0x852 DUP3 PUSH1 0x2 SLOAD PUSH1 0x3 SLOAD PUSH2 0x2B48 JUMP JUMPDEST POP POP JUMP JUMPDEST PUSH1 0x0 PUSH1 0x7 PUSH1 0x0 DUP4 PUSH20 0xFFFFFFFFFFFFFFFFFFFFFFFFFFFFFFFFFFFFFFFF AND PUSH20 0xFFFFFFFFFFFFFFFFFFFFFFFFFFFFFFFFFFFFFFFF AND DUP2 MSTORE PUSH1 0x20 ADD SWAP1 DUP2 MSTORE PUSH1 0x20 ADD PUSH1 0x0 KECCAK256 PUSH1 0x0 SWAP1 SLOAD SWAP1 PUSH2 0x100 EXP SWAP1 DIV PUSH1 0xFF AND SWAP1 POP SWAP2 SWAP1 POP JUMP JUMPDEST PUSH2 0x8B4 PUSH2 0x3154 JUMP JUMPDEST PUSH1 0x5 PUSH1 0x0 DUP4 DUP2 MSTORE PUSH1 0x20 ADD SWAP1 DUP2 MSTORE PUSH1 0x20 ADD PUSH1 0x0 KECCAK256 PUSH1 0x40 MLOAD DUP1 PUSH1 0xE0 ADD PUSH1 0x40 MSTORE SWAP1 DUP2 PUSH1 0x0 DUP3 ADD PUSH1 0x0 SWAP1 SLOAD SWAP1 PUSH2 0x100 EXP SWAP1 DIV PUSH20 0xFFFFFFFFFFFFFFFFFFFFFFFFFFFFFFFFFFFFFFFF AND PUSH20 0xFFFFFFFFFFFFFFFFFFFFFFFFFFFFFFFFFFFFFFFF AND PUSH20 0xFFFFFFFFFFFFFFFFFFFFFFFFFFFFFFFFFFFFFFFF AND DUP2 MSTORE PUSH1 0x20 ADD PUSH1 0x1 DUP3 ADD DUP1 SLOAD PUSH2 0x938 SWAP1 PUSH2 0x3EF2 JUMP JUMPDEST DUP1 PUSH1 0x1F ADD PUSH1 0x20 DUP1 SWAP2 DIV MUL PUSH1 0x20 ADD PUSH1 0x40 MLOAD SWAP1 DUP2 ADD PUSH1 0x40 MSTORE DUP1 SWAP3 SWAP2 SWAP1 DUP2 DUP2 MSTORE PUSH1 0x20 ADD DUP3 DUP1 SLOAD PUSH2 0x964 SWAP1 PUSH2 0x3EF2 JUMP JUMPDEST DUP1 ISZERO PUSH2 0x9B1 JUMPI DUP1 PUSH1 0x1F LT PUSH2 0x986 JUMPI PUSH2 0x100 DUP1 DUP4 SLOAD DIV MUL DUP4 MSTORE SWAP2 PUSH1 0x20 ADD SWAP2 PUSH2 0x9B1 JUMP JUMPDEST DUP3 ADD SWAP2 SWAP1 PUSH1 0x0 MSTORE PUSH1 0x20 PUSH1 0x0 KECCAK256 SWAP1 JUMPDEST DUP2 SLOAD DUP2 MSTORE SWAP1 PUSH1 0x1 ADD SWAP1 PUSH1 0x20 ADD DUP1 DUP4 GT PUSH2 0x994 JUMPI DUP3 SWAP1 SUB PUSH1 0x1F AND DUP3 ADD SWAP2 JUMPDEST POP POP POP POP POP DUP2 MSTORE PUSH1 0x20 ADD PUSH1 0x2 DUP3 ADD DUP1 SLOAD DUP1 PUSH1 0x20 MUL PUSH1 0x20 ADD PUSH1 0x40 MLOAD SWAP1 DUP2 ADD PUSH1 0x40 MSTORE DUP1 SWAP3 SWAP2 SWAP1 DUP2 DUP2 MSTORE PUSH1 0x20 ADD PUSH1 0x0 SWAP1 JUMPDEST DUP3 DUP3 LT ISZERO PUSH2 0xA8B JUMPI DUP4 DUP3 SWAP1 PUSH1 0x0 MSTORE PUSH1 0x20 PUSH1 0x0 KECCAK256 ADD DUP1 SLOAD PUSH2 0x9FE SWAP1 PUSH2 0x3EF2 JUMP JUMPDEST DUP1 PUSH1 0x1F ADD PUSH1 0x20 DUP1 SWAP2 DIV MUL PUSH1 0x20 ADD PUSH1 0x40 MLOAD SWAP1 DUP2 ADD PUSH1 0x40 MSTORE DUP1 SWAP3 SWAP2 SWAP1 DUP2 DUP2 MSTORE PUSH1 0x20 ADD DUP3 DUP1 SLOAD PUSH2 0xA2A SWAP1 PUSH2 0x3EF2 JUMP JUMPDEST DUP1 ISZERO PUSH2 0xA77 JUMPI DUP1 PUSH1 0x1F LT PUSH2 0xA4C JUMPI PUSH2 0x100 DUP1 DUP4 SLOAD DIV MUL DUP4 MSTORE SWAP2 PUSH1 0x20 ADD SWAP2 PUSH2 0xA77 JUMP JUMPDEST DUP3 ADD SWAP2 SWAP1 PUSH1 0x0 MSTORE PUSH1 0x20 PUSH1 0x0 KECCAK256 SWAP1 JUMPDEST DUP2 SLOAD DUP2 MSTORE SWAP1 PUSH1 0x1 ADD SWAP1 PUSH1 0x20 ADD DUP1 DUP4 GT PUSH2 0xA5A JUMPI DUP3 SWAP1 SUB PUSH1 0x1F AND DUP3 ADD SWAP2 JUMPDEST POP POP POP POP POP DUP2 MSTORE PUSH1 0x20 ADD SWAP1 PUSH1 0x1 ADD SWAP1 PUSH2 0x9DF JUMP JUMPDEST POP POP POP POP DUP2 MSTORE PUSH1 0x20 ADD PUSH1 0x3 DUP3 ADD DUP1 SLOAD PUSH2 0xAA3 SWAP1 PUSH2 0x3EF2 JUMP JUMPDEST DUP1 PUSH1 0x1F ADD PUSH1 0x20 DUP1 SWAP2 DIV MUL PUSH1 0x20 ADD PUSH1 0x40 MLOAD SWAP1 DUP2 ADD PUSH1 0x40 MSTORE DUP1 SWAP3 SWAP2 SWAP1 DUP2 DUP2 MSTORE PUSH1 0x20 ADD DUP3 DUP1 SLOAD PUSH2 0xACF SWAP1 PUSH2 0x3EF2 JUMP JUMPDEST DUP1 ISZERO PUSH2 0xB1C JUMPI DUP1 PUSH1 0x1F LT PUSH2 0xAF1 JUMPI PUSH2 0x100 DUP1 DUP4 SLOAD DIV MUL DUP4 MSTORE SWAP2 PUSH1 0x20 ADD SWAP2 PUSH2 0xB1C JUMP JUMPDEST DUP3 ADD SWAP2 SWAP1 PUSH1 0x0 MSTORE PUSH1 0x20 PUSH1 0x0 KECCAK256 SWAP1 JUMPDEST DUP2 SLOAD DUP2 MSTORE SWAP1 PUSH1 0x1 ADD SWAP1 PUSH1 0x20 ADD DUP1 DUP4 GT PUSH2 0xAFF JUMPI DUP3 SWAP1 SUB PUSH1 0x1F AND DUP3 ADD SWAP2 JUMPDEST POP POP POP POP POP DUP2 MSTORE PUSH1 0x20 ADD PUSH1 0x4 DUP3 ADD SLOAD DUP2 MSTORE PUSH1 0x20 ADD PUSH1 0x5 DUP3 ADD PUSH1 0x0 SWAP1 SLOAD SWAP1 PUSH2 0x100 EXP SWAP1 DIV PUSH1 0xFF AND PUSH1 0x2 DUP2 GT ISZERO PUSH2 0xB54 JUMPI PUSH2 0xB53 PUSH2 0x36C1 JUMP JUMPDEST JUMPDEST PUSH1 0x2 DUP2 GT ISZERO PUSH2 0xB66 JUMPI PUSH2 0xB65 PUSH2 0x36C1 JUMP JUMPDEST JUMPDEST DUP2 MSTORE PUSH1 0x20 ADD PUSH1 0x6 DUP3 ADD SLOAD DUP2 MSTORE POP POP SWAP1 POP SWAP2 SWAP1 POP JUMP JUMPDEST PUSH32 0xA49807205CE4D355092EF5A8A18F56E8913CF4A201FBE287825B095693C21775 PUSH2 0xBA5 DUP2 PUSH2 0x2949 JUMP JUMPDEST PUSH2 0xBB4 PUSH1 0x1 SLOAD DUP4 PUSH1 0x3 SLOAD PUSH2 0x2B48 JUMP JUMPDEST POP POP JUMP JUMPDEST PUSH32 0xA49807205CE4D355092EF5A8A18F56E8913CF4A201FBE287825B095693C21775 DUP2 JUMP JUMPDEST PUSH1 0x1 SLOAD PUSH1 0x4 PUSH1 0x0 CALLER PUSH20 0xFFFFFFFFFFFFFFFFFFFFFFFFFFFFFFFFFFFFFFFF AND PUSH20 0xFFFFFFFFFFFFFFFFFFFFFFFFFFFFFFFFFFFFFFFF AND DUP2 MSTORE PUSH1 0x20 ADD SWAP1 DUP2 MSTORE PUSH1 0x20 ADD PUSH1 0x0 KECCAK256 SLOAD LT ISZERO DUP1 ISZERO PUSH2 0xC77 JUMPI POP PUSH1 0x7 PUSH1 0x0 CALLER PUSH20 0xFFFFFFFFFFFFFFFFFFFFFFFFFFFFFFFFFFFFFFFF AND PUSH20 0xFFFFFFFFFFFFFFFFFFFFFFFFFFFFFFFFFFFFFFFF AND DUP2 MSTORE PUSH1 0x20 ADD SWAP1 DUP2 MSTORE PUSH1 0x20 ADD PUSH1 0x0 KECCAK256 PUSH1 0x0 SWAP1 SLOAD SWAP1 PUSH2 0x100 EXP SWAP1 DIV PUSH1 0xFF AND ISZERO JUMPDEST ISZERO PUSH2 0xCAE JUMPI PUSH1 0x40 MLOAD PUSH32 0x3A81D6FC00000000000000000000000000000000000000000000000000000000 DUP2 MSTORE PUSH1 0x4 ADD PUSH1 0x40 MLOAD DUP1 SWAP2 SUB SWAP1 REVERT JUMPDEST PUSH1 0x1 SLOAD CALLVALUE EQ PUSH2 0xCE9 JUMPI PUSH1 0x40 MLOAD PUSH32 0xF1BC94D200000000000000000000000000000000000000000000000000000000 DUP2 MSTORE PUSH1 0x4 ADD PUSH1 0x40 MLOAD DUP1 SWAP2 SUB SWAP1 REVERT JUMPDEST CALLVALUE PUSH1 0x4 PUSH1 0x0 CALLER PUSH20 0xFFFFFFFFFFFFFFFFFFFFFFFFFFFFFFFFFFFFFFFF AND PUSH20 0xFFFFFFFFFFFFFFFFFFFFFFFFFFFFFFFFFFFFFFFF AND DUP2 MSTORE PUSH1 0x20 ADD SWAP1 DUP2 MSTORE PUSH1 0x20 ADD PUSH1 0x0 KECCAK256 DUP2 SWAP1 SSTORE POP PUSH1 0x7 PUSH1 0x0 CALLER PUSH20 0xFFFFFFFFFFFFFFFFFFFFFFFFFFFFFFFFFFFFFFFF AND PUSH20 0xFFFFFFFFFFFFFFFFFFFFFFFFFFFFFFFFFFFFFFFF AND DUP2 MSTORE PUSH1 0x20 ADD SWAP1 DUP2 MSTORE PUSH1 0x20 ADD PUSH1 0x0 KECCAK256 PUSH1 0x0 SWAP1 SLOAD SWAP1 PUSH2 0x100 EXP SWAP1 DIV PUSH1 0xFF AND ISZERO PUSH2 0xE1B JUMPI PUSH1 0x0 PUSH1 0x7 PUSH1 0x0 CALLER PUSH20 0xFFFFFFFFFFFFFFFFFFFFFFFFFFFFFFFFFFFFFFFF AND PUSH20 0xFFFFFFFFFFFFFFFFFFFFFFFFFFFFFFFFFFFFFFFF AND DUP2 MSTORE PUSH1 0x20 ADD SWAP1 DUP2 MSTORE PUSH1 0x20 ADD PUSH1 0x0 KECCAK256 PUSH1 0x0 PUSH2 0x100 EXP DUP2 SLOAD DUP2 PUSH1 0xFF MUL NOT AND SWAP1 DUP4 ISZERO ISZERO MUL OR SWAP1 SSTORE POP CALLER PUSH20 0xFFFFFFFFFFFFFFFFFFFFFFFFFFFFFFFFFFFFFFFF AND PUSH32 0xB7DF7EF889418EECC895118F0D863C3074ABF7769BFE39BA852192114C725DFC PUSH1 0x40 MLOAD PUSH1 0x40 MLOAD DUP1 SWAP2 SUB SWAP1 LOG2 JUMPDEST CALLER PUSH20 0xFFFFFFFFFFFFFFFFFFFFFFFFFFFFFFFFFFFFFFFF AND PUSH32 0x9F4E1C382CDD9FB482444097BABAB40742F8A3624C0AB69305C3C396F26794B8 CALLVALUE PUSH1 0x40 MLOAD PUSH2 0xE61 SWAP2 SWAP1 PUSH2 0x337B JUMP JUMPDEST PUSH1 0x40 MLOAD DUP1 SWAP2 SUB SWAP1 LOG2 JUMP JUMPDEST PUSH1 0x0 DUP1 PUSH1 0x0 DUP5 DUP2 MSTORE PUSH1 0x20 ADD SWAP1 DUP2 MSTORE PUSH1 0x20 ADD PUSH1 0x0 KECCAK256 PUSH1 0x0 ADD PUSH1 0x0 DUP4 PUSH20 0xFFFFFFFFFFFFFFFFFFFFFFFFFFFFFFFFFFFFFFFF AND PUSH20 0xFFFFFFFFFFFFFFFFFFFFFFFFFFFFFFFFFFFFFFFF AND DUP2 MSTORE PUSH1 0x20 ADD SWAP1 DUP2 MSTORE PUSH1 0x20 ADD PUSH1 0x0 KECCAK256 PUSH1 0x0 SWAP1 SLOAD SWAP1 PUSH2 0x100 EXP SWAP1 DIV PUSH1 0xFF AND SWAP1 POP SWAP3 SWAP2 POP POP JUMP JUMPDEST PUSH1 0x0 DUP1 SHL DUP2 JUMP JUMPDEST PUSH1 0x60 PUSH1 0x0 PUSH1 0x6 SLOAD PUSH8 0xFFFFFFFFFFFFFFFF DUP2 GT ISZERO PUSH2 0xEFC JUMPI PUSH2 0xEFB PUSH2 0x3A17 JUMP JUMPDEST JUMPDEST PUSH1 0x40 MLOAD SWAP1 DUP1 DUP3 MSTORE DUP1 PUSH1 0x20 MUL PUSH1 0x20 ADD DUP3 ADD PUSH1 0x40 MSTORE DUP1 ISZERO PUSH2 0xF35 JUMPI DUP2 PUSH1 0x20 ADD JUMPDEST PUSH2 0xF22 PUSH2 0x3154 JUMP JUMPDEST DUP2 MSTORE PUSH1 0x20 ADD SWAP1 PUSH1 0x1 SWAP1 SUB SWAP1 DUP2 PUSH2 0xF1A JUMPI SWAP1 POP JUMPDEST POP SWAP1 POP PUSH1 0x0 JUMPDEST PUSH1 0x6 SLOAD DUP2 LT ISZERO PUSH2 0x1230 JUMPI PUSH1 0x5 PUSH1 0x0 DUP3 DUP2 MSTORE PUSH1 0x20 ADD SWAP1 DUP2 MSTORE PUSH1 0x20 ADD PUSH1 0x0 KECCAK256 PUSH1 0x40 MLOAD DUP1 PUSH1 0xE0 ADD PUSH1 0x40 MSTORE SWAP1 DUP2 PUSH1 0x0 DUP3 ADD PUSH1 0x0 SWAP1 SLOAD SWAP1 PUSH2 0x100 EXP SWAP1 DIV PUSH20 0xFFFFFFFFFFFFFFFFFFFFFFFFFFFFFFFFFFFFFFFF AND PUSH20 0xFFFFFFFFFFFFFFFFFFFFFFFFFFFFFFFFFFFFFFFF AND PUSH20 0xFFFFFFFFFFFFFFFFFFFFFFFFFFFFFFFFFFFFFFFF AND DUP2 MSTORE PUSH1 0x20 ADD PUSH1 0x1 DUP3 ADD DUP1 SLOAD PUSH2 0xFC9 SWAP1 PUSH2 0x3EF2 JUMP JUMPDEST DUP1 PUSH1 0x1F ADD PUSH1 0x20 DUP1 SWAP2 DIV MUL PUSH1 0x20 ADD PUSH1 0x40 MLOAD SWAP1 DUP2 ADD PUSH1 0x40 MSTORE DUP1 SWAP3 SWAP2 SWAP1 DUP2 DUP2 MSTORE PUSH1 0x20 ADD DUP3 DUP1 SLOAD PUSH2 0xFF5 SWAP1 PUSH2 0x3EF2 JUMP JUMPDEST DUP1 ISZERO PUSH2 0x1042 JUMPI DUP1 PUSH1 0x1F LT PUSH2 0x1017 JUMPI PUSH2 0x100 DUP1 DUP4 SLOAD DIV MUL DUP4 MSTORE SWAP2 PUSH1 0x20 ADD SWAP2 PUSH2 0x1042 JUMP JUMPDEST DUP3 ADD SWAP2 SWAP1 PUSH1 0x0 MSTORE PUSH1 0x20 PUSH1 0x0 KECCAK256 SWAP1 JUMPDEST DUP2 SLOAD DUP2 MSTORE SWAP1 PUSH1 0x1 ADD SWAP1 PUSH1 0x20 ADD DUP1 DUP4 GT PUSH2 0x1025 JUMPI DUP3 SWAP1 SUB PUSH1 0x1F AND DUP3 ADD SWAP2 JUMPDEST POP POP POP POP POP DUP2 MSTORE PUSH1 0x20 ADD PUSH1 0x2 DUP3 ADD DUP1 SLOAD DUP1 PUSH1 0x20 MUL PUSH1 0x20 ADD PUSH1 0x40 MLOAD SWAP1 DUP2 ADD PUSH1 0x40 MSTORE DUP1 SWAP3 SWAP2 SWAP1 DUP2 DUP2 MSTORE PUSH1 0x20 ADD PUSH1 0x0 SWAP1 JUMPDEST DUP3 DUP3 LT ISZERO PUSH2 0x111C JUMPI DUP4 DUP3 SWAP1 PUSH1 0x0 MSTORE PUSH1 0x20 PUSH1 0x0 KECCAK256 ADD DUP1 SLOAD PUSH2 0x108F SWAP1 PUSH2 0x3EF2 JUMP JUMPDEST DUP1 PUSH1 0x1F ADD PUSH1 0x20 DUP1 SWAP2 DIV MUL PUSH1 0x20 ADD PUSH1 0x40 MLOAD SWAP1 DUP2 ADD PUSH1 0x40 MSTORE DUP1 SWAP3 SWAP2 SWAP1 DUP2 DUP2 MSTORE PUSH1 0x20 ADD DUP3 DUP1 SLOAD PUSH2 0x10BB SWAP1 PUSH2 0x3EF2 JUMP JUMPDEST DUP1 ISZERO PUSH2 0x1108 JUMPI DUP1 PUSH1 0x1F LT PUSH2 0x10DD JUMPI PUSH2 0x100 DUP1 DUP4 SLOAD DIV MUL DUP4 MSTORE SWAP2 PUSH1 0x20 ADD SWAP2 PUSH2 0x1108 JUMP JUMPDEST DUP3 ADD SWAP2 SWAP1 PUSH1 0x0 MSTORE PUSH1 0x20 PUSH1 0x0 KECCAK256 SWAP1 JUMPDEST DUP2 SLOAD DUP2 MSTORE SWAP1 PUSH1 0x1 ADD SWAP1 PUSH1 0x20 ADD DUP1 DUP4 GT PUSH2 0x10EB JUMPI DUP3 SWAP1 SUB PUSH1 0x1F AND DUP3 ADD SWAP2 JUMPDEST POP POP POP POP POP DUP2 MSTORE PUSH1 0x20 ADD SWAP1 PUSH1 0x1 ADD SWAP1 PUSH2 0x1070 JUMP JUMPDEST POP POP POP POP DUP2 MSTORE PUSH1 0x20 ADD PUSH1 0x3 DUP3 ADD DUP1 SLOAD PUSH2 0x1134 SWAP1 PUSH2 0x3EF2 JUMP JUMPDEST DUP1 PUSH1 0x1F ADD PUSH1 0x20 DUP1 SWAP2 DIV MUL PUSH1 0x20 ADD PUSH1 0x40 MLOAD SWAP1 DUP2 ADD PUSH1 0x40 MSTORE DUP1 SWAP3 SWAP2 SWAP1 DUP2 DUP2 MSTORE PUSH1 0x20 ADD DUP3 DUP1 SLOAD PUSH2 0x1160 SWAP1 PUSH2 0x3EF2 JUMP JUMPDEST DUP1 ISZERO PUSH2 0x11AD JUMPI DUP1 PUSH1 0x1F LT PUSH2 0x1182 JUMPI PUSH2 0x100 DUP1 DUP4 SLOAD DIV MUL DUP4 MSTORE SWAP2 PUSH1 0x20 ADD SWAP2 PUSH2 0x11AD JUMP JUMPDEST DUP3 ADD SWAP2 SWAP1 PUSH1 0x0 MSTORE PUSH1 0x20 PUSH1 0x0 KECCAK256 SWAP1 JUMPDEST DUP2 SLOAD DUP2 MSTORE SWAP1 PUSH1 0x1 ADD SWAP1 PUSH1 0x20 ADD DUP1 DUP4 GT PUSH2 0x1190 JUMPI DUP3 SWAP1 SUB PUSH1 0x1F AND DUP3 ADD SWAP2 JUMPDEST POP POP POP POP POP DUP2 MSTORE PUSH1 0x20 ADD PUSH1 0x4 DUP3 ADD SLOAD DUP2 MSTORE PUSH1 0x20 ADD PUSH1 0x5 DUP3 ADD PUSH1 0x0 SWAP1 SLOAD SWAP1 PUSH2 0x100 EXP SWAP1 DIV PUSH1 0xFF AND PUSH1 0x2 DUP2 GT ISZERO PUSH2 0x11E5 JUMPI PUSH2 0x11E4 PUSH2 0x36C1 JUMP JUMPDEST JUMPDEST PUSH1 0x2 DUP2 GT ISZERO PUSH2 0x11F7 JUMPI PUSH2 0x11F6 PUSH2 0x36C1 JUMP JUMPDEST JUMPDEST DUP2 MSTORE PUSH1 0x20 ADD PUSH1 0x6 DUP3 ADD SLOAD DUP2 MSTORE POP POP DUP3 DUP3 DUP2 MLOAD DUP2 LT PUSH2 0x1218 JUMPI PUSH2 0x1217 PUSH2 0x3F23 JUMP JUMPDEST JUMPDEST PUSH1 0x20 MUL PUSH1 0x20 ADD ADD DUP2 SWAP1 MSTORE POP DUP1 DUP1 PUSH1 0x1 ADD SWAP2 POP POP PUSH2 0xF3B JUMP JUMPDEST POP PUSH1 0x0 PUSH1 0x1 SWAP1 POP JUMPDEST PUSH1 0x6 SLOAD DUP2 LT ISZERO PUSH2 0x1335 JUMPI PUSH1 0x0 DUP3 DUP3 DUP2 MLOAD DUP2 LT PUSH2 0x1257 JUMPI PUSH2 0x1256 PUSH2 0x3F23 JUMP JUMPDEST JUMPDEST PUSH1 0x20 MUL PUSH1 0x20 ADD ADD MLOAD SWAP1 POP PUSH1 0x0 DUP2 PUSH1 0x80 ADD MLOAD SWAP1 POP PUSH1 0x0 DUP4 SWAP1 POP JUMPDEST PUSH1 0x0 DUP2 GT DUP1 ISZERO PUSH2 0x12A9 JUMPI POP DUP2 DUP6 PUSH1 0x1 DUP4 PUSH2 0x128A SWAP2 SWAP1 PUSH2 0x3F81 JUMP JUMPDEST DUP2 MLOAD DUP2 LT PUSH2 0x129B JUMPI PUSH2 0x129A PUSH2 0x3F23 JUMP JUMPDEST JUMPDEST PUSH1 0x20 MUL PUSH1 0x20 ADD ADD MLOAD PUSH1 0x80 ADD MLOAD SLT JUMPDEST ISZERO PUSH2 0x1306 JUMPI DUP5 PUSH1 0x1 DUP3 PUSH2 0x12BC SWAP2 SWAP1 PUSH2 0x3F81 JUMP JUMPDEST DUP2 MLOAD DUP2 LT PUSH2 0x12CD JUMPI PUSH2 0x12CC PUSH2 0x3F23 JUMP JUMPDEST JUMPDEST PUSH1 0x20 MUL PUSH1 0x20 ADD ADD MLOAD DUP6 DUP3 DUP2 MLOAD DUP2 LT PUSH2 0x12E8 JUMPI PUSH2 0x12E7 PUSH2 0x3F23 JUMP JUMPDEST JUMPDEST PUSH1 0x20 MUL PUSH1 0x20 ADD ADD DUP2 SWAP1 MSTORE POP DUP1 DUP1 PUSH2 0x12FE SWAP1 PUSH2 0x3FB5 JUMP JUMPDEST SWAP2 POP POP PUSH2 0x1270 JUMP JUMPDEST DUP3 DUP6 DUP3 DUP2 MLOAD DUP2 LT PUSH2 0x131A JUMPI PUSH2 0x1319 PUSH2 0x3F23 JUMP JUMPDEST JUMPDEST PUSH1 0x20 MUL PUSH1 0x20 ADD ADD DUP2 SWAP1 MSTORE POP POP POP POP DUP1 DUP1 PUSH1 0x1 ADD SWAP2 POP POP PUSH2 0x1238 JUMP JUMPDEST POP DUP1 SWAP2 POP POP SWAP1 JUMP JUMPDEST PUSH32 0xA49807205CE4D355092EF5A8A18F56E8913CF4A201FBE287825B095693C21775 PUSH2 0x1367 DUP2 PUSH2 0x2949 JUMP JUMPDEST PUSH2 0x1376 PUSH1 0x1 SLOAD PUSH1 0x2 SLOAD DUP5 PUSH2 0x2B48 JUMP JUMPDEST POP POP JUMP JUMPDEST PUSH32 0xA49807205CE4D355092EF5A8A18F56E8913CF4A201FBE287825B095693C21775 PUSH2 0x13A4 DUP2 PUSH2 0x2949 JUMP JUMPDEST PUSH2 0x13AC PUSH2 0x2C05 JUMP JUMPDEST PUSH1 0x0 PUSH1 0x5 PUSH1 0x0 DUP6 DUP2 MSTORE PUSH1 0x20 ADD SWAP1 DUP2 MSTORE PUSH1 0x20 ADD PUSH1 0x0 KECCAK256 SWAP1 POP PUSH1 0x0 PUSH1 0x2 DUP2 GT ISZERO PUSH2 0x13D7 JUMPI PUSH2 0x13D6 PUSH2 0x36C1 JUMP JUMPDEST JUMPDEST DUP2 PUSH1 0x5 ADD PUSH1 0x0 SWAP1 SLOAD SWAP1 PUSH2 0x100 EXP SWAP1 DIV PUSH1 0xFF AND PUSH1 0x2 DUP2 GT ISZERO PUSH2 0x13FB JUMPI PUSH2 0x13FA PUSH2 0x36C1 JUMP JUMPDEST JUMPDEST EQ PUSH2 0x1432 JUMPI PUSH1 0x40 MLOAD PUSH32 0x986B6FA200000000000000000000000000000000000000000000000000000000 DUP2 MSTORE PUSH1 0x4 ADD PUSH1 0x40 MLOAD DUP1 SWAP2 SUB SWAP1 REVERT JUMPDEST DUP3 PUSH2 0x143E JUMPI PUSH1 0x2 PUSH2 0x1441 JUMP JUMPDEST PUSH1 0x1 JUMPDEST DUP2 PUSH1 0x5 ADD PUSH1 0x0 PUSH2 0x100 EXP DUP2 SLOAD DUP2 PUSH1 0xFF MUL NOT AND SWAP1 DUP4 PUSH1 0x2 DUP2 GT ISZERO PUSH2 0x1467 JUMPI PUSH2 0x1466 PUSH2 0x36C1 JUMP JUMPDEST JUMPDEST MUL OR SWAP1 SSTORE POP PUSH1 0x0 PUSH1 0x9 PUSH1 0x0 DUP7 DUP2 MSTORE PUSH1 0x20 ADD SWAP1 DUP2 MSTORE PUSH1 0x20 ADD PUSH1 0x0 KECCAK256 DUP1 SLOAD DUP1 PUSH1 0x20 MUL PUSH1 0x20 ADD PUSH1 0x40 MLOAD SWAP1 DUP2 ADD PUSH1 0x40 MSTORE DUP1 SWAP3 SWAP2 SWAP1 DUP2 DUP2 MSTORE PUSH1 0x20 ADD DUP3 DUP1 SLOAD DUP1 ISZERO PUSH2 0x1501 JUMPI PUSH1 0x20 MUL DUP3 ADD SWAP2 SWAP1 PUSH1 0x0 MSTORE PUSH1 0x20 PUSH1 0x0 KECCAK256 SWAP1 JUMPDEST DUP2 PUSH1 0x0 SWAP1 SLOAD SWAP1 PUSH2 0x100 EXP SWAP1 DIV PUSH20 0xFFFFFFFFFFFFFFFFFFFFFFFFFFFFFFFFFFFFFFFF AND PUSH20 0xFFFFFFFFFFFFFFFFFFFFFFFFFFFFFFFFFFFFFFFF AND DUP2 MSTORE PUSH1 0x20 ADD SWAP1 PUSH1 0x1 ADD SWAP1 DUP1 DUP4 GT PUSH2 0x14B7 JUMPI JUMPDEST POP POP POP POP POP SWAP1 POP PUSH1 0x0 PUSH1 0xA PUSH1 0x0 DUP8 DUP2 MSTORE PUSH1 0x20 ADD SWAP1 DUP2 MSTORE PUSH1 0x20 ADD PUSH1 0x0 KECCAK256 DUP1 SLOAD DUP1 PUSH1 0x20 MUL PUSH1 0x20 ADD PUSH1 0x40 MLOAD SWAP1 DUP2 ADD PUSH1 0x40 MSTORE DUP1 SWAP3 SWAP2 SWAP1 DUP2 DUP2 MSTORE PUSH1 0x20 ADD DUP3 DUP1 SLOAD DUP1 ISZERO PUSH2 0x159D JUMPI PUSH1 0x20 MUL DUP3 ADD SWAP2 SWAP1 PUSH1 0x0 MSTORE PUSH1 0x20 PUSH1 0x0 KECCAK256 SWAP1 JUMPDEST DUP2 PUSH1 0x0 SWAP1 SLOAD SWAP1 PUSH2 0x100 EXP SWAP1 DIV PUSH20 0xFFFFFFFFFFFFFFFFFFFFFFFFFFFFFFFFFFFFFFFF AND PUSH20 0xFFFFFFFFFFFFFFFFFFFFFFFFFFFFFFFFFFFFFFFF AND DUP2 MSTORE PUSH1 0x20 ADD SWAP1 PUSH1 0x1 ADD SWAP1 DUP1 DUP4 GT PUSH2 0x1553 JUMPI JUMPDEST POP POP POP POP POP SWAP1 POP DUP5 ISZERO PUSH2 0x1AA7 JUMPI PUSH1 0x3 SLOAD PUSH1 0x2 SLOAD PUSH2 0x15BA SWAP2 SWAP1 PUSH2 0x3FDE JUMP JUMPDEST PUSH1 0x4 PUSH1 0x0 DUP6 PUSH1 0x0 ADD PUSH1 0x0 SWAP1 SLOAD SWAP1 PUSH2 0x100 EXP SWAP1 DIV PUSH20 0xFFFFFFFFFFFFFFFFFFFFFFFFFFFFFFFFFFFFFFFF AND PUSH20 0xFFFFFFFFFFFFFFFFFFFFFFFFFFFFFFFFFFFFFFFF AND PUSH20 0xFFFFFFFFFFFFFFFFFFFFFFFFFFFFFFFFFFFFFFFF AND DUP2 MSTORE PUSH1 0x20 ADD SWAP1 DUP2 MSTORE PUSH1 0x20 ADD PUSH1 0x0 KECCAK256 PUSH1 0x0 DUP3 DUP3 SLOAD PUSH2 0x162C SWAP2 SWAP1 PUSH2 0x3FDE JUMP JUMPDEST SWAP3 POP POP DUP2 SWAP1 SSTORE POP DUP3 PUSH1 0x0 ADD PUSH1 0x0 SWAP1 SLOAD SWAP1 PUSH2 0x100 EXP SWAP1 DIV PUSH20 0xFFFFFFFFFFFFFFFFFFFFFFFFFFFFFFFFFFFFFFFF AND PUSH20 0xFFFFFFFFFFFFFFFFFFFFFFFFFFFFFFFFFFFFFFFF AND PUSH32 0x9A4E107C217FBA3D242F257FD523C107EA3A28C2A71E8C7B6CF9A2893ECBB98D PUSH1 0x4 PUSH1 0x0 DUP7 PUSH1 0x0 ADD PUSH1 0x0 SWAP1 SLOAD SWAP1 PUSH2 0x100 EXP SWAP1 DIV PUSH20 0xFFFFFFFFFFFFFFFFFFFFFFFFFFFFFFFFFFFFFFFF AND PUSH20 0xFFFFFFFFFFFFFFFFFFFFFFFFFFFFFFFFFFFFFFFF AND PUSH20 0xFFFFFFFFFFFFFFFFFFFFFFFFFFFFFFFFFFFFFFFF AND DUP2 MSTORE PUSH1 0x20 ADD SWAP1 DUP2 MSTORE PUSH1 0x20 ADD PUSH1 0x0 KECCAK256 SLOAD PUSH1 0x40 MLOAD PUSH2 0x1700 SWAP2 SWAP1 PUSH2 0x405E JUMP JUMPDEST PUSH1 0x40 MLOAD DUP1 SWAP2 SUB SWAP1 LOG2 PUSH1 0x0 JUMPDEST DUP3 MLOAD DUP2 LT ISZERO PUSH2 0x1854 JUMPI PUSH1 0x3 SLOAD PUSH1 0x4 PUSH1 0x0 DUP6 DUP5 DUP2 MLOAD DUP2 LT PUSH2 0x172E JUMPI PUSH2 0x172D PUSH2 0x3F23 JUMP JUMPDEST JUMPDEST PUSH1 0x20 MUL PUSH1 0x20 ADD ADD MLOAD PUSH20 0xFFFFFFFFFFFFFFFFFFFFFFFFFFFFFFFFFFFFFFFF AND PUSH20 0xFFFFFFFFFFFFFFFFFFFFFFFFFFFFFFFFFFFFFFFF AND DUP2 MSTORE PUSH1 0x20 ADD SWAP1 DUP2 MSTORE PUSH1 0x20 ADD PUSH1 0x0 KECCAK256 PUSH1 0x0 DUP3 DUP3 SLOAD PUSH2 0x177F SWAP2 SWAP1 PUSH2 0x3FDE JUMP JUMPDEST SWAP3 POP POP DUP2 SWAP1 SSTORE POP DUP3 DUP2 DUP2 MLOAD DUP2 LT PUSH2 0x1799 JUMPI PUSH2 0x1798 PUSH2 0x3F23 JUMP JUMPDEST JUMPDEST PUSH1 0x20 MUL PUSH1 0x20 ADD ADD MLOAD PUSH20 0xFFFFFFFFFFFFFFFFFFFFFFFFFFFFFFFFFFFFFFFF AND PUSH32 0x9A4E107C217FBA3D242F257FD523C107EA3A28C2A71E8C7B6CF9A2893ECBB98D PUSH1 0x4 PUSH1 0x0 DUP7 DUP6 DUP2 MLOAD DUP2 LT PUSH2 0x17EF JUMPI PUSH2 0x17EE PUSH2 0x3F23 JUMP JUMPDEST JUMPDEST PUSH1 0x20 MUL PUSH1 0x20 ADD ADD MLOAD PUSH20 0xFFFFFFFFFFFFFFFFFFFFFFFFFFFFFFFFFFFFFFFF AND PUSH20 0xFFFFFFFFFFFFFFFFFFFFFFFFFFFFFFFFFFFFFFFF AND DUP2 MSTORE PUSH1 0x20 ADD SWAP1 DUP2 MSTORE PUSH1 0x20 ADD PUSH1 0x0 KECCAK256 SLOAD PUSH1 0x40 MLOAD PUSH2 0x183F SWAP2 SWAP1 PUSH2 0x40D8 JUMP JUMPDEST PUSH1 0x40 MLOAD DUP1 SWAP2 SUB SWAP1 LOG2 DUP1 DUP1 PUSH1 0x1 ADD SWAP2 POP POP PUSH2 0x170B JUMP JUMPDEST POP PUSH1 0x0 JUMPDEST DUP2 MLOAD DUP2 LT ISZERO PUSH2 0x1AA1 JUMPI PUSH1 0x0 DUP3 DUP3 DUP2 MLOAD DUP2 LT PUSH2 0x1876 JUMPI PUSH2 0x1875 PUSH2 0x3F23 JUMP JUMPDEST JUMPDEST PUSH1 0x20 MUL PUSH1 0x20 ADD ADD MLOAD SWAP1 POP PUSH1 0x3 SLOAD PUSH1 0x4 PUSH1 0x0 DUP4 PUSH20 0xFFFFFFFFFFFFFFFFFFFFFFFFFFFFFFFFFFFFFFFF AND PUSH20 0xFFFFFFFFFFFFFFFFFFFFFFFFFFFFFFFFFFFFFFFF AND DUP2 MSTORE PUSH1 0x20 ADD SWAP1 DUP2 MSTORE PUSH1 0x20 ADD PUSH1 0x0 KECCAK256 SLOAD LT PUSH2 0x1A93 JUMPI PUSH1 0x3 SLOAD PUSH1 0x4 PUSH1 0x0 DUP4 PUSH20 0xFFFFFFFFFFFFFFFFFFFFFFFFFFFFFFFFFFFFFFFF AND PUSH20 0xFFFFFFFFFFFFFFFFFFFFFFFFFFFFFFFFFFFFFFFF AND DUP2 MSTORE PUSH1 0x20 ADD SWAP1 DUP2 MSTORE PUSH1 0x20 ADD PUSH1 0x0 KECCAK256 PUSH1 0x0 DUP3 DUP3 SLOAD PUSH2 0x1919 SWAP2 SWAP1 PUSH2 0x3F81 JUMP JUMPDEST SWAP3 POP POP DUP2 SWAP1 SSTORE POP DUP1 PUSH20 0xFFFFFFFFFFFFFFFFFFFFFFFFFFFFFFFFFFFFFFFF AND PUSH32 0x9A4E107C217FBA3D242F257FD523C107EA3A28C2A71E8C7B6CF9A2893ECBB98D PUSH1 0x4 PUSH1 0x0 DUP5 PUSH20 0xFFFFFFFFFFFFFFFFFFFFFFFFFFFFFFFFFFFFFFFF AND PUSH20 0xFFFFFFFFFFFFFFFFFFFFFFFFFFFFFFFFFFFFFFFF AND DUP2 MSTORE PUSH1 0x20 ADD SWAP1 DUP2 MSTORE PUSH1 0x20 ADD PUSH1 0x0 KECCAK256 SLOAD PUSH1 0x40 MLOAD PUSH2 0x19A5 SWAP2 SWAP1 PUSH2 0x4152 JUMP JUMPDEST PUSH1 0x40 MLOAD DUP1 SWAP2 SUB SWAP1 LOG2 PUSH1 0x1 SLOAD PUSH1 0x4 PUSH1 0x0 DUP4 PUSH20 0xFFFFFFFFFFFFFFFFFFFFFFFFFFFFFFFFFFFFFFFF AND PUSH20 0xFFFFFFFFFFFFFFFFFFFFFFFFFFFFFFFFFFFFFFFF AND DUP2 MSTORE PUSH1 0x20 ADD SWAP1 DUP2 MSTORE PUSH1 0x20 ADD PUSH1 0x0 KECCAK256 SLOAD LT ISZERO PUSH2 0x1A92 JUMPI PUSH1 0x1 PUSH1 0x7 PUSH1 0x0 DUP4 PUSH20 0xFFFFFFFFFFFFFFFFFFFFFFFFFFFFFFFFFFFFFFFF AND PUSH20 0xFFFFFFFFFFFFFFFFFFFFFFFFFFFFFFFFFFFFFFFF AND DUP2 MSTORE PUSH1 0x20 ADD SWAP1 DUP2 MSTORE PUSH1 0x20 ADD PUSH1 0x0 KECCAK256 PUSH1 0x0 PUSH2 0x100 EXP DUP2 SLOAD DUP2 PUSH1 0xFF MUL NOT AND SWAP1 DUP4 ISZERO ISZERO MUL OR SWAP1 SSTORE POP DUP1 PUSH20 0xFFFFFFFFFFFFFFFFFFFFFFFFFFFFFFFFFFFFFFFF AND PUSH32 0x78BE06D07AFE380E04D6DEEBA0F33C892DB454F303FB739D9B768987A5EC6ACA PUSH1 0x40 MLOAD PUSH1 0x40 MLOAD DUP1 SWAP2 SUB SWAP1 LOG2 JUMPDEST JUMPDEST POP DUP1 DUP1 PUSH1 0x1 ADD SWAP2 POP POP PUSH2 0x1858 JUMP JUMPDEST POP PUSH2 0x219A JUMP JUMPDEST PUSH1 0x3 SLOAD PUSH1 0x2 SLOAD PUSH2 0x1AB7 SWAP2 SWAP1 PUSH2 0x3FDE JUMP JUMPDEST PUSH1 0x4 PUSH1 0x0 DUP6 PUSH1 0x0 ADD PUSH1 0x0 SWAP1 SLOAD SWAP1 PUSH2 0x100 EXP SWAP1 DIV PUSH20 0xFFFFFFFFFFFFFFFFFFFFFFFFFFFFFFFFFFFFFFFF AND PUSH20 0xFFFFFFFFFFFFFFFFFFFFFFFFFFFFFFFFFFFFFFFF AND PUSH20 0xFFFFFFFFFFFFFFFFFFFFFFFFFFFFFFFFFFFFFFFF AND DUP2 MSTORE PUSH1 0x20 ADD SWAP1 DUP2 MSTORE PUSH1 0x20 ADD PUSH1 0x0 KECCAK256 SLOAD LT PUSH2 0x1DD0 JUMPI PUSH1 0x3 SLOAD PUSH1 0x2 SLOAD PUSH2 0x1B30 SWAP2 SWAP1 PUSH2 0x3FDE JUMP JUMPDEST PUSH1 0x4 PUSH1 0x0 DUP6 PUSH1 0x0 ADD PUSH1 0x0 SWAP1 SLOAD SWAP1 PUSH2 0x100 EXP SWAP1 DIV PUSH20 0xFFFFFFFFFFFFFFFFFFFFFFFFFFFFFFFFFFFFFFFF AND PUSH20 0xFFFFFFFFFFFFFFFFFFFFFFFFFFFFFFFFFFFFFFFF AND PUSH20 0xFFFFFFFFFFFFFFFFFFFFFFFFFFFFFFFFFFFFFFFF AND DUP2 MSTORE PUSH1 0x20 ADD SWAP1 DUP2 MSTORE PUSH1 0x20 ADD PUSH1 0x0 KECCAK256 PUSH1 0x0 DUP3 DUP3 SLOAD PUSH2 0x1BA2 SWAP2 SWAP1 PUSH2 0x3F81 JUMP JUMPDEST SWAP3 POP POP DUP2 SWAP1 SSTORE POP DUP3 PUSH1 0x0 ADD PUSH1 0x0 SWAP1 SLOAD SWAP1 PUSH2 0x100 EXP SWAP1 DIV PUSH20 0xFFFFFFFFFFFFFFFFFFFFFFFFFFFFFFFFFFFFFFFF AND PUSH20 0xFFFFFFFFFFFFFFFFFFFFFFFFFFFFFFFFFFFFFFFF AND PUSH32 0x9A4E107C217FBA3D242F257FD523C107EA3A28C2A71E8C7B6CF9A2893ECBB98D PUSH1 0x4 PUSH1 0x0 DUP7 PUSH1 0x0 ADD PUSH1 0x0 SWAP1 SLOAD SWAP1 PUSH2 0x100 EXP SWAP1 DIV PUSH20 0xFFFFFFFFFFFFFFFFFFFFFFFFFFFFFFFFFFFFFFFF AND PUSH20 0xFFFFFFFFFFFFFFFFFFFFFFFFFFFFFFFFFFFFFFFF AND PUSH20 0xFFFFFFFFFFFFFFFFFFFFFFFFFFFFFFFFFFFFFFFF AND DUP2 MSTORE PUSH1 0x20 ADD SWAP1 DUP2 MSTORE PUSH1 0x20 ADD PUSH1 0x0 KECCAK256 SLOAD PUSH1 0x40 MLOAD PUSH2 0x1C76 SWAP2 SWAP1 PUSH2 0x41CC JUMP JUMPDEST PUSH1 0x40 MLOAD DUP1 SWAP2 SUB SWAP1 LOG2 PUSH1 0x1 SLOAD PUSH1 0x4 PUSH1 0x0 DUP6 PUSH1 0x0 ADD PUSH1 0x0 SWAP1 SLOAD SWAP1 PUSH2 0x100 EXP SWAP1 DIV PUSH20 0xFFFFFFFFFFFFFFFFFFFFFFFFFFFFFFFFFFFFFFFF AND PUSH20 0xFFFFFFFFFFFFFFFFFFFFFFFFFFFFFFFFFFFFFFFF AND PUSH20 0xFFFFFFFFFFFFFFFFFFFFFFFFFFFFFFFFFFFFFFFF AND DUP2 MSTORE PUSH1 0x20 ADD SWAP1 DUP2 MSTORE PUSH1 0x20 ADD PUSH1 0x0 KECCAK256 SLOAD LT ISZERO PUSH2 0x1DCF JUMPI PUSH1 0x1 PUSH1 0x7 PUSH1 0x0 DUP6 PUSH1 0x0 ADD PUSH1 0x0 SWAP1 SLOAD SWAP1 PUSH2 0x100 EXP SWAP1 DIV PUSH20 0xFFFFFFFFFFFFFFFFFFFFFFFFFFFFFFFFFFFFFFFF AND PUSH20 0xFFFFFFFFFFFFFFFFFFFFFFFFFFFFFFFFFFFFFFFF AND PUSH20 0xFFFFFFFFFFFFFFFFFFFFFFFFFFFFFFFFFFFFFFFF AND DUP2 MSTORE PUSH1 0x20 ADD SWAP1 DUP2 MSTORE PUSH1 0x20 ADD PUSH1 0x0 KECCAK256 PUSH1 0x0 PUSH2 0x100 EXP DUP2 SLOAD DUP2 PUSH1 0xFF MUL NOT AND SWAP1 DUP4 ISZERO ISZERO MUL OR SWAP1 SSTORE POP DUP3 PUSH1 0x0 ADD PUSH1 0x0 SWAP1 SLOAD SWAP1 PUSH2 0x100 EXP SWAP1 DIV PUSH20 0xFFFFFFFFFFFFFFFFFFFFFFFFFFFFFFFFFFFFFFFF AND PUSH20 0xFFFFFFFFFFFFFFFFFFFFFFFFFFFFFFFFFFFFFFFF AND PUSH32 0x78BE06D07AFE380E04D6DEEBA0F33C892DB454F303FB739D9B768987A5EC6ACA PUSH1 0x40 MLOAD PUSH1 0x40 MLOAD DUP1 SWAP2 SUB SWAP1 LOG2 JUMPDEST JUMPDEST PUSH1 0x0 JUMPDEST DUP3 MLOAD DUP2 LT ISZERO PUSH2 0x201C JUMPI PUSH1 0x0 DUP4 DUP3 DUP2 MLOAD DUP2 LT PUSH2 0x1DF1 JUMPI PUSH2 0x1DF0 PUSH2 0x3F23 JUMP JUMPDEST JUMPDEST PUSH1 0x20 MUL PUSH1 0x20 ADD ADD MLOAD SWAP1 POP PUSH1 0x3 SLOAD PUSH1 0x4 PUSH1 0x0 DUP4 PUSH20 0xFFFFFFFFFFFFFFFFFFFFFFFFFFFFFFFFFFFFFFFF AND PUSH20 0xFFFFFFFFFFFFFFFFFFFFFFFFFFFFFFFFFFFFFFFF AND DUP2 MSTORE PUSH1 0x20 ADD SWAP1 DUP2 MSTORE PUSH1 0x20 ADD PUSH1 0x0 KECCAK256 SLOAD LT PUSH2 0x200E JUMPI PUSH1 0x3 SLOAD PUSH1 0x4 PUSH1 0x0 DUP4 PUSH20 0xFFFFFFFFFFFFFFFFFFFFFFFFFFFFFFFFFFFFFFFF AND PUSH20 0xFFFFFFFFFFFFFFFFFFFFFFFFFFFFFFFFFFFFFFFF AND DUP2 MSTORE PUSH1 0x20 ADD SWAP1 DUP2 MSTORE PUSH1 0x20 ADD PUSH1 0x0 KECCAK256 PUSH1 0x0 DUP3 DUP3 SLOAD PUSH2 0x1E94 SWAP2 SWAP1 PUSH2 0x3F81 JUMP JUMPDEST SWAP3 POP POP DUP2 SWAP1 SSTORE POP DUP1 PUSH20 0xFFFFFFFFFFFFFFFFFFFFFFFFFFFFFFFFFFFFFFFF AND PUSH32 0x9A4E107C217FBA3D242F257FD523C107EA3A28C2A71E8C7B6CF9A2893ECBB98D PUSH1 0x4 PUSH1 0x0 DUP5 PUSH20 0xFFFFFFFFFFFFFFFFFFFFFFFFFFFFFFFFFFFFFFFF AND PUSH20 0xFFFFFFFFFFFFFFFFFFFFFFFFFFFFFFFFFFFFFFFF AND DUP2 MSTORE PUSH1 0x20 ADD SWAP1 DUP2 MSTORE PUSH1 0x20 ADD PUSH1 0x0 KECCAK256 SLOAD PUSH1 0x40 MLOAD PUSH2 0x1F20 SWAP2 SWAP1 PUSH2 0x4246 JUMP JUMPDEST PUSH1 0x40 MLOAD DUP1 SWAP2 SUB SWAP1 LOG2 PUSH1 0x1 SLOAD PUSH1 0x4 PUSH1 0x0 DUP4 PUSH20 0xFFFFFFFFFFFFFFFFFFFFFFFFFFFFFFFFFFFFFFFF AND PUSH20 0xFFFFFFFFFFFFFFFFFFFFFFFFFFFFFFFFFFFFFFFF AND DUP2 MSTORE PUSH1 0x20 ADD SWAP1 DUP2 MSTORE PUSH1 0x20 ADD PUSH1 0x0 KECCAK256 SLOAD LT ISZERO PUSH2 0x200D JUMPI PUSH1 0x1 PUSH1 0x7 PUSH1 0x0 DUP4 PUSH20 0xFFFFFFFFFFFFFFFFFFFFFFFFFFFFFFFFFFFFFFFF AND PUSH20 0xFFFFFFFFFFFFFFFFFFFFFFFFFFFFFFFFFFFFFFFF AND DUP2 MSTORE PUSH1 0x20 ADD SWAP1 DUP2 MSTORE PUSH1 0x20 ADD PUSH1 0x0 KECCAK256 PUSH1 0x0 PUSH2 0x100 EXP DUP2 SLOAD DUP2 PUSH1 0xFF MUL NOT AND SWAP1 DUP4 ISZERO ISZERO MUL OR SWAP1 SSTORE POP DUP1 PUSH20 0xFFFFFFFFFFFFFFFFFFFFFFFFFFFFFFFFFFFFFFFF AND PUSH32 0x78BE06D07AFE380E04D6DEEBA0F33C892DB454F303FB739D9B768987A5EC6ACA PUSH1 0x40 MLOAD PUSH1 0x40 MLOAD DUP1 SWAP2 SUB SWAP1 LOG2 JUMPDEST JUMPDEST POP DUP1 DUP1 PUSH1 0x1 ADD SWAP2 POP POP PUSH2 0x1DD3 JUMP JUMPDEST POP PUSH1 0x0 DUP2 MLOAD GT ISZERO PUSH2 0x2199 JUMPI PUSH1 0x0 PUSH1 0x3 SLOAD DUP4 MLOAD PUSH2 0x2038 SWAP2 SWAP1 PUSH2 0x4274 JUMP JUMPDEST SWAP1 POP PUSH1 0x0 DUP3 MLOAD DUP3 PUSH2 0x2049 SWAP2 SWAP1 PUSH2 0x42E5 JUMP JUMPDEST SWAP1 POP PUSH1 0x0 JUMPDEST DUP4 MLOAD DUP2 LT ISZERO PUSH2 0x2195 JUMPI DUP2 PUSH1 0x4 PUSH1 0x0 DUP7 DUP5 DUP2 MLOAD DUP2 LT PUSH2 0x206F JUMPI PUSH2 0x206E PUSH2 0x3F23 JUMP JUMPDEST JUMPDEST PUSH1 0x20 MUL PUSH1 0x20 ADD ADD MLOAD PUSH20 0xFFFFFFFFFFFFFFFFFFFFFFFFFFFFFFFFFFFFFFFF AND PUSH20 0xFFFFFFFFFFFFFFFFFFFFFFFFFFFFFFFFFFFFFFFF AND DUP2 MSTORE PUSH1 0x20 ADD SWAP1 DUP2 MSTORE PUSH1 0x20 ADD PUSH1 0x0 KECCAK256 PUSH1 0x0 DUP3 DUP3 SLOAD PUSH2 0x20C0 SWAP2 SWAP1 PUSH2 0x3FDE JUMP JUMPDEST SWAP3 POP POP DUP2 SWAP1 SSTORE POP DUP4 DUP2 DUP2 MLOAD DUP2 LT PUSH2 0x20DA JUMPI PUSH2 0x20D9 PUSH2 0x3F23 JUMP JUMPDEST JUMPDEST PUSH1 0x20 MUL PUSH1 0x20 ADD ADD MLOAD PUSH20 0xFFFFFFFFFFFFFFFFFFFFFFFFFFFFFFFFFFFFFFFF AND PUSH32 0x9A4E107C217FBA3D242F257FD523C107EA3A28C2A71E8C7B6CF9A2893ECBB98D PUSH1 0x4 PUSH1 0x0 DUP8 DUP6 DUP2 MLOAD DUP2 LT PUSH2 0x2130 JUMPI PUSH2 0x212F PUSH2 0x3F23 JUMP JUMPDEST JUMPDEST PUSH1 0x20 MUL PUSH1 0x20 ADD ADD MLOAD PUSH20 0xFFFFFFFFFFFFFFFFFFFFFFFFFFFFFFFFFFFFFFFF AND PUSH20 0xFFFFFFFFFFFFFFFFFFFFFFFFFFFFFFFFFFFFFFFF AND DUP2 MSTORE PUSH1 0x20 ADD SWAP1 DUP2 MSTORE PUSH1 0x20 ADD PUSH1 0x0 KECCAK256 SLOAD PUSH1 0x40 MLOAD PUSH2 0x2180 SWAP2 SWAP1 PUSH2 0x4362 JUMP JUMPDEST PUSH1 0x40 MLOAD DUP1 SWAP2 SUB SWAP1 LOG2 DUP1 DUP1 PUSH1 0x1 ADD SWAP2 POP POP PUSH2 0x204E JUMP JUMPDEST POP POP POP JUMPDEST JUMPDEST CALLER PUSH20 0xFFFFFFFFFFFFFFFFFFFFFFFFFFFFFFFFFFFFFFFF AND DUP7 PUSH32 0x73A083C80D929DB87DB12FEF6279F69CC0EF1CFF5EEB56AF2423987136DE754E DUP8 PUSH1 0x40 MLOAD PUSH2 0x21E1 SWAP2 SWAP1 PUSH2 0x3347 JUMP JUMPDEST PUSH1 0x40 MLOAD DUP1 SWAP2 SUB SWAP1 LOG3 POP POP POP PUSH2 0x21F4 PUSH2 0x2C28 JUMP JUMPDEST POP POP POP JUMP JUMPDEST PUSH1 0x0 PUSH1 0x5 PUSH1 0x0 DUP7 DUP2 MSTORE PUSH1 0x20 ADD SWAP1 DUP2 MSTORE PUSH1 0x20 ADD PUSH1 0x0 KECCAK256 SWAP1 POP CALLER PUSH20 0xFFFFFFFFFFFFFFFFFFFFFFFFFFFFFFFFFFFFFFFF AND DUP2 PUSH1 0x0 ADD PUSH1 0x0 SWAP1 SLOAD SWAP1 PUSH2 0x100 EXP SWAP1 DIV PUSH20 0xFFFFFFFFFFFFFFFFFFFFFFFFFFFFFFFFFFFFFFFF AND PUSH20 0xFFFFFFFFFFFFFFFFFFFFFFFFFFFFFFFFFFFFFFFF AND EQ PUSH2 0x2299 JUMPI PUSH1 0x40 MLOAD PUSH32 0x98B54F9F00000000000000000000000000000000000000000000000000000000 DUP2 MSTORE PUSH1 0x4 ADD PUSH1 0x40 MLOAD DUP1 SWAP2 SUB SWAP1 REVERT JUMPDEST PUSH1 0x0 PUSH1 0x2 DUP2 GT ISZERO PUSH2 0x22AD JUMPI PUSH2 0x22AC PUSH2 0x36C1 JUMP JUMPDEST JUMPDEST DUP2 PUSH1 0x5 ADD PUSH1 0x0 SWAP1 SLOAD SWAP1 PUSH2 0x100 EXP SWAP1 DIV PUSH1 0xFF AND PUSH1 0x2 DUP2 GT ISZERO PUSH2 0x22D1 JUMPI PUSH2 0x22D0 PUSH2 0x36C1 JUMP JUMPDEST JUMPDEST EQ PUSH2 0x2308 JUMPI PUSH1 0x40 MLOAD PUSH32 0x986B6FA200000000000000000000000000000000000000000000000000000000 DUP2 MSTORE PUSH1 0x4 ADD PUSH1 0x40 MLOAD DUP1 SWAP2 SUB SWAP1 REVERT JUMPDEST DUP4 DUP2 PUSH1 0x1 ADD SWAP1 DUP2 PUSH2 0x2319 SWAP2 SWAP1 PUSH2 0x453C JUMP JUMPDEST POP DUP2 DUP2 PUSH1 0x3 ADD SWAP1 DUP2 PUSH2 0x232B SWAP2 SWAP1 PUSH2 0x453C JUMP JUMPDEST POP PUSH1 0x0 JUMPDEST DUP4 MLOAD DUP2 LT ISZERO PUSH2 0x2396 JUMPI DUP2 PUSH1 0x2 ADD DUP5 DUP3 DUP2 MLOAD DUP2 LT PUSH2 0x234F JUMPI PUSH2 0x234E PUSH2 0x3F23 JUMP JUMPDEST JUMPDEST PUSH1 0x20 MUL PUSH1 0x20 ADD ADD MLOAD SWAP1 DUP1 PUSH1 0x1 DUP2 SLOAD ADD DUP1 DUP3 SSTORE DUP1 SWAP2 POP POP PUSH1 0x1 SWAP1 SUB SWAP1 PUSH1 0x0 MSTORE PUSH1 0x20 PUSH1 0x0 KECCAK256 ADD PUSH1 0x0 SWAP1 SWAP2 SWAP1 SWAP2 SWAP1 SWAP2 POP SWAP1 DUP2 PUSH2 0x2388 SWAP2 SWAP1 PUSH2 0x453C JUMP JUMPDEST POP DUP1 DUP1 PUSH1 0x1 ADD SWAP2 POP POP PUSH2 0x232F JUMP JUMPDEST POP DUP5 PUSH32 0x76E478F351E69959848B5018DCEC20960FEA6A512E8907CF29958307DA6256B7 PUSH1 0x40 MLOAD PUSH1 0x40 MLOAD DUP1 SWAP2 SUB SWAP1 LOG2 POP POP POP POP POP JUMP JUMPDEST PUSH1 0x5 PUSH1 0x20 MSTORE DUP1 PUSH1 0x0 MSTORE PUSH1 0x40 PUSH1 0x0 KECCAK256 PUSH1 0x0 SWAP2 POP SWAP1 POP DUP1 PUSH1 0x0 ADD PUSH1 0x0 SWAP1 SLOAD SWAP1 PUSH2 0x100 EXP SWAP1 DIV PUSH20 0xFFFFFFFFFFFFFFFFFFFFFFFFFFFFFFFFFFFFFFFF AND SWAP1 DUP1 PUSH1 0x1 ADD DUP1 SLOAD PUSH2 0x2414 SWAP1 PUSH2 0x3EF2 JUMP JUMPDEST DUP1 PUSH1 0x1F ADD PUSH1 0x20 DUP1 SWAP2 DIV MUL PUSH1 0x20 ADD PUSH1 0x40 MLOAD SWAP1 DUP2 ADD PUSH1 0x40 MSTORE DUP1 SWAP3 SWAP2 SWAP1 DUP2 DUP2 MSTORE PUSH1 0x20 ADD DUP3 DUP1 SLOAD PUSH2 0x2440 SWAP1 PUSH2 0x3EF2 JUMP JUMPDEST DUP1 ISZERO PUSH2 0x248D JUMPI DUP1 PUSH1 0x1F LT PUSH2 0x2462 JUMPI PUSH2 0x100 DUP1 DUP4 SLOAD DIV MUL DUP4 MSTORE SWAP2 PUSH1 0x20 ADD SWAP2 PUSH2 0x248D JUMP JUMPDEST DUP3 ADD SWAP2 SWAP1 PUSH1 0x0 MSTORE PUSH1 0x20 PUSH1 0x0 KECCAK256 SWAP1 JUMPDEST DUP2 SLOAD DUP2 MSTORE SWAP1 PUSH1 0x1 ADD SWAP1 PUSH1 0x20 ADD DUP1 DUP4 GT PUSH2 0x2470 JUMPI DUP3 SWAP1 SUB PUSH1 0x1F AND DUP3 ADD SWAP2 JUMPDEST POP POP POP POP POP SWAP1 DUP1 PUSH1 0x3 ADD DUP1 SLOAD PUSH2 0x24A2 SWAP1 PUSH2 0x3EF2 JUMP JUMPDEST DUP1 PUSH1 0x1F ADD PUSH1 0x20 DUP1 SWAP2 DIV MUL PUSH1 0x20 ADD PUSH1 0x40 MLOAD SWAP1 DUP2 ADD PUSH1 0x40 MSTORE DUP1 SWAP3 SWAP2 SWAP1 DUP2 DUP2 MSTORE PUSH1 0x20 ADD DUP3 DUP1 SLOAD PUSH2 0x24CE SWAP1 PUSH2 0x3EF2 JUMP JUMPDEST DUP1 ISZERO PUSH2 0x251B JUMPI DUP1 PUSH1 0x1F LT PUSH2 0x24F0 JUMPI PUSH2 0x100 DUP1 DUP4 SLOAD DIV MUL DUP4 MSTORE SWAP2 PUSH1 0x20 ADD SWAP2 PUSH2 0x251B JUMP JUMPDEST DUP3 ADD SWAP2 SWAP1 PUSH1 0x0 MSTORE PUSH1 0x20 PUSH1 0x0 KECCAK256 SWAP1 JUMPDEST DUP2 SLOAD DUP2 MSTORE SWAP1 PUSH1 0x1 ADD SWAP1 PUSH1 0x20 ADD DUP1 DUP4 GT PUSH2 0x24FE JUMPI DUP3 SWAP1 SUB PUSH1 0x1F AND DUP3 ADD SWAP2 JUMPDEST POP POP POP POP POP SWAP1 DUP1 PUSH1 0x4 ADD SLOAD SWAP1 DUP1 PUSH1 0x5 ADD PUSH1 0x0 SWAP1 SLOAD SWAP1 PUSH2 0x100 EXP SWAP1 DIV PUSH1 0xFF AND SWAP1 DUP1 PUSH1 0x6 ADD SLOAD SWAP1 POP DUP7 JUMP JUMPDEST PUSH1 0x7 PUSH1 0x20 MSTORE DUP1 PUSH1 0x0 MSTORE PUSH1 0x40 PUSH1 0x0 KECCAK256 PUSH1 0x0 SWAP2 POP SLOAD SWAP1 PUSH2 0x100 EXP SWAP1 DIV PUSH1 0xFF AND DUP2 JUMP JUMPDEST PUSH1 0x3 SLOAD DUP2 JUMP JUMPDEST PUSH2 0x2572 PUSH2 0x2C05 JUMP JUMPDEST PUSH1 0x7 PUSH1 0x0 CALLER PUSH20 0xFFFFFFFFFFFFFFFFFFFFFFFFFFFFFFFFFFFFFFFF AND PUSH20 0xFFFFFFFFFFFFFFFFFFFFFFFFFFFFFFFFFFFFFFFF AND DUP2 MSTORE PUSH1 0x20 ADD SWAP1 DUP2 MSTORE PUSH1 0x20 ADD PUSH1 0x0 KECCAK256 PUSH1 0x0 SWAP1 SLOAD SWAP1 PUSH2 0x100 EXP SWAP1 DIV PUSH1 0xFF AND ISZERO PUSH2 0x25F6 JUMPI PUSH1 0x40 MLOAD PUSH32 0xDB0E247600000000000000000000000000000000000000000000000000000000 DUP2 MSTORE PUSH1 0x4 ADD PUSH1 0x40 MLOAD DUP1 SWAP2 SUB SWAP1 REVERT JUMPDEST PUSH1 0x1 SLOAD PUSH1 0x4 PUSH1 0x0 CALLER PUSH20 0xFFFFFFFFFFFFFFFFFFFFFFFFFFFFFFFFFFFFFFFF AND PUSH20 0xFFFFFFFFFFFFFFFFFFFFFFFFFFFFFFFFFFFFFFFF AND DUP2 MSTORE PUSH1 0x20 ADD SWAP1 DUP2 MSTORE PUSH1 0x20 ADD PUSH1 0x0 KECCAK256 SLOAD LT ISZERO PUSH2 0x2671 JUMPI PUSH1 0x40 MLOAD PUSH32 0xABA4733900000000000000000000000000000000000000000000000000000000 DUP2 MSTORE PUSH1 0x4 ADD PUSH1 0x40 MLOAD DUP1 SWAP2 SUB SWAP1 REVERT JUMPDEST PUSH1 0x2 SLOAD CALLVALUE EQ PUSH2 0x26AC JUMPI PUSH1 0x40 MLOAD PUSH32 0xF1BC94D200000000000000000000000000000000000000000000000000000000 DUP2 MSTORE PUSH1 0x4 ADD PUSH1 0x40 MLOAD DUP1 SWAP2 SUB SWAP1 REVERT JUMPDEST PUSH1 0x0 PUSH1 0x6 PUSH1 0x0 DUP2 SLOAD DUP1 SWAP3 SWAP2 SWAP1 PUSH2 0x26C1 SWAP1 PUSH2 0x460E JUMP JUMPDEST SWAP2 SWAP1 POP SSTORE SWAP1 POP PUSH1 0x40 MLOAD DUP1 PUSH1 0xE0 ADD PUSH1 0x40 MSTORE DUP1 CALLER PUSH20 0xFFFFFFFFFFFFFFFFFFFFFFFFFFFFFFFFFFFFFFFF AND DUP2 MSTORE PUSH1 0x20 ADD DUP6 DUP2 MSTORE PUSH1 0x20 ADD DUP5 DUP2 MSTORE PUSH1 0x20 ADD DUP4 DUP2 MSTORE PUSH1 0x20 ADD PUSH1 0x0 DUP2 MSTORE PUSH1 0x20 ADD PUSH1 0x0 PUSH1 0x2 DUP2 GT ISZERO PUSH2 0x271B JUMPI PUSH2 0x271A PUSH2 0x36C1 JUMP JUMPDEST JUMPDEST DUP2 MSTORE PUSH1 0x20 ADD TIMESTAMP DUP2 MSTORE POP PUSH1 0x5 PUSH1 0x0 DUP4 DUP2 MSTORE PUSH1 0x20 ADD SWAP1 DUP2 MSTORE PUSH1 0x20 ADD PUSH1 0x0 KECCAK256 PUSH1 0x0 DUP3 ADD MLOAD DUP2 PUSH1 0x0 ADD PUSH1 0x0 PUSH2 0x100 EXP DUP2 SLOAD DUP2 PUSH20 0xFFFFFFFFFFFFFFFFFFFFFFFFFFFFFFFFFFFFFFFF MUL NOT AND SWAP1 DUP4 PUSH20 0xFFFFFFFFFFFFFFFFFFFFFFFFFFFFFFFFFFFFFFFF AND MUL OR SWAP1 SSTORE POP PUSH1 0x20 DUP3 ADD MLOAD DUP2 PUSH1 0x1 ADD SWAP1 DUP2 PUSH2 0x2793 SWAP2 SWAP1 PUSH2 0x453C JUMP JUMPDEST POP PUSH1 0x40 DUP3 ADD MLOAD DUP2 PUSH1 0x2 ADD SWAP1 DUP1 MLOAD SWAP1 PUSH1 0x20 ADD SWAP1 PUSH2 0x27B0 SWAP3 SWAP2 SWAP1 PUSH2 0x31B9 JUMP JUMPDEST POP PUSH1 0x60 DUP3 ADD MLOAD DUP2 PUSH1 0x3 ADD SWAP1 DUP2 PUSH2 0x27C6 SWAP2 SWAP1 PUSH2 0x453C JUMP JUMPDEST POP PUSH1 0x80 DUP3 ADD MLOAD DUP2 PUSH1 0x4 ADD SSTORE PUSH1 0xA0 DUP3 ADD MLOAD DUP2 PUSH1 0x5 ADD PUSH1 0x0 PUSH2 0x100 EXP DUP2 SLOAD DUP2 PUSH1 0xFF MUL NOT AND SWAP1 DUP4 PUSH1 0x2 DUP2 GT ISZERO PUSH2 0x27FC JUMPI PUSH2 0x27FB PUSH2 0x36C1 JUMP JUMPDEST JUMPDEST MUL OR SWAP1 SSTORE POP PUSH1 0xC0 DUP3 ADD MLOAD DUP2 PUSH1 0x6 ADD SSTORE SWAP1 POP POP CALLER PUSH20 0xFFFFFFFFFFFFFFFFFFFFFFFFFFFFFFFFFFFFFFFF AND DUP2 PUSH32 0xFE73CF9B793E65D9D707A5BFE3063E5F3A58EB52B27A356478C30FC83F5200F2 PUSH1 0x40 MLOAD PUSH1 0x40 MLOAD DUP1 SWAP2 SUB SWAP1 LOG3 POP PUSH2 0x285B PUSH2 0x2C28 JUMP JUMPDEST POP POP POP JUMP JUMPDEST PUSH2 0x286B DUP2 PUSH1 0x1 PUSH2 0x2C43 JUMP JUMPDEST POP JUMP JUMPDEST PUSH2 0x2877 DUP3 PUSH2 0x75D JUMP JUMPDEST PUSH2 0x2880 DUP2 PUSH2 0x2949 JUMP JUMPDEST PUSH2 0x288A DUP4 DUP4 PUSH2 0x2A56 JUMP JUMPDEST POP POP POP POP JUMP JUMPDEST PUSH32 0xA49807205CE4D355092EF5A8A18F56E8913CF4A201FBE287825B095693C21775 PUSH2 0x28BA DUP2 PUSH2 0x2949 JUMP JUMPDEST PUSH2 0x28C5 DUP5 DUP5 DUP5 PUSH2 0x2B48 JUMP JUMPDEST POP POP POP POP JUMP JUMPDEST PUSH2 0x28D6 DUP2 PUSH1 0x0 PUSH2 0x2C43 JUMP JUMPDEST POP JUMP JUMPDEST PUSH1 0x1 SLOAD DUP2 JUMP JUMPDEST PUSH1 0x0 PUSH32 0x1FFC9A700000000000000000000000000000000000000000000000000000000 PUSH28 0xFFFFFFFFFFFFFFFFFFFFFFFFFFFFFFFFFFFFFFFFFFFFFFFFFFFFFFFF NOT AND DUP3 PUSH28 0xFFFFFFFFFFFFFFFFFFFFFFFFFFFFFFFFFFFFFFFFFFFFFFFFFFFFFFFF NOT AND EQ SWAP1 POP SWAP2 SWAP1 POP JUMP JUMPDEST PUSH2 0x295A DUP2 PUSH2 0x2955 PUSH2 0x2A4E JUMP JUMPDEST PUSH2 0x306F JUMP JUMPDEST POP JUMP JUMPDEST PUSH1 0x0 PUSH2 0x2969 DUP4 DUP4 PUSH2 0xE6B JUMP JUMPDEST PUSH2 0x2A43 JUMPI PUSH1 0x1 PUSH1 0x0 DUP1 DUP6 DUP2 MSTORE PUSH1 0x20 ADD SWAP1 DUP2 MSTORE PUSH1 0x20 ADD PUSH1 0x0 KECCAK256 PUSH1 0x0 ADD PUSH1 0x0 DUP5 PUSH20 0xFFFFFFFFFFFFFFFFFFFFFFFFFFFFFFFFFFFFFFFF AND PUSH20 0xFFFFFFFFFFFFFFFFFFFFFFFFFFFFFFFFFFFFFFFF AND DUP2 MSTORE PUSH1 0x20 ADD SWAP1 DUP2 MSTORE PUSH1 0x20 ADD PUSH1 0x0 KECCAK256 PUSH1 0x0 PUSH2 0x100 EXP DUP2 SLOAD DUP2 PUSH1 0xFF MUL NOT AND SWAP1 DUP4 ISZERO ISZERO MUL OR SWAP1 SSTORE POP PUSH2 0x29E0 PUSH2 0x2A4E JUMP JUMPDEST PUSH20 0xFFFFFFFFFFFFFFFFFFFFFFFFFFFFFFFFFFFFFFFF AND DUP3 PUSH20 0xFFFFFFFFFFFFFFFFFFFFFFFFFFFFFFFFFFFFFFFF AND DUP5 PUSH32 0x2F8788117E7EFF1D82E926EC794901D17C78024A50270940304540A733656F0D PUSH1 0x40 MLOAD PUSH1 0x40 MLOAD DUP1 SWAP2 SUB SWAP1 LOG4 PUSH1 0x1 SWAP1 POP PUSH2 0x2A48 JUMP JUMPDEST PUSH1 0x0 SWAP1 POP JUMPDEST SWAP3 SWAP2 POP POP JUMP JUMPDEST PUSH1 0x0 CALLER SWAP1 POP SWAP1 JUMP JUMPDEST PUSH1 0x0 PUSH2 0x2A62 DUP4 DUP4 PUSH2 0xE6B JUMP JUMPDEST ISZERO PUSH2 0x2B3D JUMPI PUSH1 0x0 DUP1 PUSH1 0x0 DUP6 DUP2 MSTORE PUSH1 0x20 ADD SWAP1 DUP2 MSTORE PUSH1 0x20 ADD PUSH1 0x0 KECCAK256 PUSH1 0x0 ADD PUSH1 0x0 DUP5 PUSH20 0xFFFFFFFFFFFFFFFFFFFFFFFFFFFFFFFFFFFFFFFF AND PUSH20 0xFFFFFFFFFFFFFFFFFFFFFFFFFFFFFFFFFFFFFFFF AND DUP2 MSTORE PUSH1 0x20 ADD SWAP1 DUP2 MSTORE PUSH1 0x20 ADD PUSH1 0x0 KECCAK256 PUSH1 0x0 PUSH2 0x100 EXP DUP2 SLOAD DUP2 PUSH1 0xFF MUL NOT AND SWAP1 DUP4 ISZERO ISZERO MUL OR SWAP1 SSTORE POP PUSH2 0x2ADA PUSH2 0x2A4E JUMP JUMPDEST PUSH20 0xFFFFFFFFFFFFFFFFFFFFFFFFFFFFFFFFFFFFFFFF AND DUP3 PUSH20 0xFFFFFFFFFFFFFFFFFFFFFFFFFFFFFFFFFFFFFFFF AND DUP5 PUSH32 0xF6391F5C32D9C69D2A47EA670B442974B53935D1EDC7FD64EB21E047A839171B PUSH1 0x40 MLOAD PUSH1 0x40 MLOAD DUP1 SWAP2 SUB SWAP1 LOG4 PUSH1 0x1 SWAP1 POP PUSH2 0x2B42 JUMP JUMPDEST PUSH1 0x0 SWAP1 POP JUMPDEST SWAP3 SWAP2 POP POP JUMP JUMPDEST PUSH1 0x0 DUP4 EQ DUP1 PUSH2 0x2B57 JUMPI POP PUSH1 0x0 DUP3 EQ JUMPDEST DUP1 PUSH2 0x2B62 JUMPI POP PUSH1 0x0 DUP2 EQ JUMPDEST ISZERO PUSH2 0x2B99 JUMPI PUSH1 0x40 MLOAD PUSH32 0x3DB4717A00000000000000000000000000000000000000000000000000000000 DUP2 MSTORE PUSH1 0x4 ADD PUSH1 0x40 MLOAD DUP1 SWAP2 SUB SWAP1 REVERT JUMPDEST DUP3 PUSH1 0x1 DUP2 SWAP1 SSTORE POP DUP2 PUSH1 0x2 DUP2 SWAP1 SSTORE POP DUP1 PUSH1 0x3 DUP2 SWAP1 SSTORE POP CALLER PUSH20 0xFFFFFFFFFFFFFFFFFFFFFFFFFFFFFFFFFFFFFFFF AND PUSH32 0xE2D02D978AEF6F01652B2EDA9CC7E87C48B958FAE23B1C19B60EA2DA970811A2 DUP5 DUP5 DUP5 PUSH1 0x40 MLOAD PUSH2 0x2BF8 SWAP4 SWAP3 SWAP2 SWAP1 PUSH2 0x4656 JUMP JUMPDEST PUSH1 0x40 MLOAD DUP1 SWAP2 SUB SWAP1 LOG2 POP POP POP JUMP JUMPDEST PUSH2 0x2C0D PUSH2 0x30C0 JUMP JUMPDEST PUSH1 0x2 PUSH2 0x2C1F PUSH2 0x2C1A PUSH2 0x3101 JUMP JUMPDEST PUSH2 0x312C JUMP JUMPDEST PUSH1 0x0 ADD DUP2 SWAP1 SSTORE POP JUMP JUMPDEST PUSH1 0x1 PUSH2 0x2C3A PUSH2 0x2C35 PUSH2 0x3101 JUMP JUMPDEST PUSH2 0x312C JUMP JUMPDEST PUSH1 0x0 ADD DUP2 SWAP1 SSTORE POP JUMP JUMPDEST PUSH1 0x7 PUSH1 0x0 CALLER PUSH20 0xFFFFFFFFFFFFFFFFFFFFFFFFFFFFFFFFFFFFFFFF AND PUSH20 0xFFFFFFFFFFFFFFFFFFFFFFFFFFFFFFFFFFFFFFFF AND DUP2 MSTORE PUSH1 0x20 ADD SWAP1 DUP2 MSTORE PUSH1 0x20 ADD PUSH1 0x0 KECCAK256 PUSH1 0x0 SWAP1 SLOAD SWAP1 PUSH2 0x100 EXP SWAP1 DIV PUSH1 0xFF AND ISZERO PUSH2 0x2CC7 JUMPI PUSH1 0x40 MLOAD PUSH32 0xDB0E247600000000000000000000000000000000000000000000000000000000 DUP2 MSTORE PUSH1 0x4 ADD PUSH1 0x40 MLOAD DUP1 SWAP2 SUB SWAP1 REVERT JUMPDEST PUSH1 0x1 SLOAD PUSH1 0x4 PUSH1 0x0 CALLER PUSH20 0xFFFFFFFFFFFFFFFFFFFFFFFFFFFFFFFFFFFFFFFF AND PUSH20 0xFFFFFFFFFFFFFFFFFFFFFFFFFFFFFFFFFFFFFFFF AND DUP2 MSTORE PUSH1 0x20 ADD SWAP1 DUP2 MSTORE PUSH1 0x20 ADD PUSH1 0x0 KECCAK256 SLOAD LT ISZERO PUSH2 0x2D42 JUMPI PUSH1 0x40 MLOAD PUSH32 0xABA4733900000000000000000000000000000000000000000000000000000000 DUP2 MSTORE PUSH1 0x4 ADD PUSH1 0x40 MLOAD DUP1 SWAP2 SUB SWAP1 REVERT JUMPDEST PUSH1 0x0 PUSH20 0xFFFFFFFFFFFFFFFFFFFFFFFFFFFFFFFFFFFFFFFF AND PUSH1 0x5 PUSH1 0x0 DUP5 DUP2 MSTORE PUSH1 0x20 ADD SWAP1 DUP2 MSTORE PUSH1 0x20 ADD PUSH1 0x0 KECCAK256 PUSH1 0x0 ADD PUSH1 0x0 SWAP1 SLOAD SWAP1 PUSH2 0x100 EXP SWAP1 DIV PUSH20 0xFFFFFFFFFFFFFFFFFFFFFFFFFFFFFFFFFFFFFFFF AND PUSH20 0xFFFFFFFFFFFFFFFFFFFFFFFFFFFFFFFFFFFFFFFF AND SUB PUSH2 0x2DDE JUMPI PUSH1 0x40 MLOAD PUSH32 0x98B54F9F00000000000000000000000000000000000000000000000000000000 DUP2 MSTORE PUSH1 0x4 ADD PUSH1 0x40 MLOAD DUP1 SWAP2 SUB SWAP1 REVERT JUMPDEST PUSH1 0x8 PUSH1 0x0 DUP4 DUP2 MSTORE PUSH1 0x20 ADD SWAP1 DUP2 MSTORE PUSH1 0x20 ADD PUSH1 0x0 KECCAK256 PUSH1 0x0 CALLER PUSH20 0xFFFFFFFFFFFFFFFFFFFFFFFFFFFFFFFFFFFFFFFF AND PUSH20 0xFFFFFFFFFFFFFFFFFFFFFFFFFFFFFFFFFFFFFFFF AND DUP2 MSTORE PUSH1 0x20 ADD SWAP1 DUP2 MSTORE PUSH1 0x20 ADD PUSH1 0x0 KECCAK256 PUSH1 0x0 SWAP1 SLOAD SWAP1 PUSH2 0x100 EXP SWAP1 DIV PUSH1 0xFF AND ISZERO PUSH2 0x2E73 JUMPI PUSH1 0x40 MLOAD PUSH32 0x7C9A1CF900000000000000000000000000000000000000000000000000000000 DUP2 MSTORE PUSH1 0x4 ADD PUSH1 0x40 MLOAD DUP1 SWAP2 SUB SWAP1 REVERT JUMPDEST PUSH1 0x1 PUSH1 0x8 PUSH1 0x0 DUP5 DUP2 MSTORE PUSH1 0x20 ADD SWAP1 DUP2 MSTORE PUSH1 0x20 ADD PUSH1 0x0 KECCAK256 PUSH1 0x0 CALLER PUSH20 0xFFFFFFFFFFFFFFFFFFFFFFFFFFFFFFFFFFFFFFFF AND PUSH20 0xFFFFFFFFFFFFFFFFFFFFFFFFFFFFFFFFFFFFFFFF AND DUP2 MSTORE PUSH1 0x20 ADD SWAP1 DUP2 MSTORE PUSH1 0x20 ADD PUSH1 0x0 KECCAK256 PUSH1 0x0 PUSH2 0x100 EXP DUP2 SLOAD DUP2 PUSH1 0xFF MUL NOT AND SWAP1 DUP4 ISZERO ISZERO MUL OR SWAP1 SSTORE POP PUSH1 0x0 PUSH1 0x5 PUSH1 0x0 DUP5 DUP2 MSTORE PUSH1 0x20 ADD SWAP1 DUP2 MSTORE PUSH1 0x20 ADD PUSH1 0x0 KECCAK256 SWAP1 POP DUP2 ISZERO PUSH2 0x2F8C JUMPI DUP1 PUSH1 0x4 ADD PUSH1 0x0 DUP2 SLOAD DUP1 SWAP3 SWAP2 SWAP1 PUSH2 0x2F0E SWAP1 PUSH2 0x468D JUMP JUMPDEST SWAP2 SWAP1 POP SSTORE POP PUSH1 0x9 PUSH1 0x0 DUP5 DUP2 MSTORE PUSH1 0x20 ADD SWAP1 DUP2 MSTORE PUSH1 0x20 ADD PUSH1 0x0 KECCAK256 CALLER SWAP1 DUP1 PUSH1 0x1 DUP2 SLOAD ADD DUP1 DUP3 SSTORE DUP1 SWAP2 POP POP PUSH1 0x1 SWAP1 SUB SWAP1 PUSH1 0x0 MSTORE PUSH1 0x20 PUSH1 0x0 KECCAK256 ADD PUSH1 0x0 SWAP1 SWAP2 SWAP1 SWAP2 SWAP1 SWAP2 PUSH2 0x100 EXP DUP2 SLOAD DUP2 PUSH20 0xFFFFFFFFFFFFFFFFFFFFFFFFFFFFFFFFFFFFFFFF MUL NOT AND SWAP1 DUP4 PUSH20 0xFFFFFFFFFFFFFFFFFFFFFFFFFFFFFFFFFFFFFFFF AND MUL OR SWAP1 SSTORE POP PUSH2 0x301B JUMP JUMPDEST DUP1 PUSH1 0x4 ADD PUSH1 0x0 DUP2 SLOAD DUP1 SWAP3 SWAP2 SWAP1 PUSH2 0x2FA1 SWAP1 PUSH2 0x46D5 JUMP JUMPDEST SWAP2 SWAP1 POP SSTORE POP PUSH1 0xA PUSH1 0x0 DUP5 DUP2 MSTORE PUSH1 0x20 ADD SWAP1 DUP2 MSTORE PUSH1 0x20 ADD PUSH1 0x0 KECCAK256 CALLER SWAP1 DUP1 PUSH1 0x1 DUP2 SLOAD ADD DUP1 DUP3 SSTORE DUP1 SWAP2 POP POP PUSH1 0x1 SWAP1 SUB SWAP1 PUSH1 0x0 MSTORE PUSH1 0x20 PUSH1 0x0 KECCAK256 ADD PUSH1 0x0 SWAP1 SWAP2 SWAP1 SWAP2 SWAP1 SWAP2 PUSH2 0x100 EXP DUP2 SLOAD DUP2 PUSH20 0xFFFFFFFFFFFFFFFFFFFFFFFFFFFFFFFFFFFFFFFF MUL NOT AND SWAP1 DUP4 PUSH20 0xFFFFFFFFFFFFFFFFFFFFFFFFFFFFFFFFFFFFFFFF AND MUL OR SWAP1 SSTORE POP JUMPDEST CALLER PUSH20 0xFFFFFFFFFFFFFFFFFFFFFFFFFFFFFFFFFFFFFFFF AND DUP4 PUSH32 0xF2913DBE661EE2ACC4A046D8FBCDC792373BDA34C41C6086484B5345E5785E5F DUP5 PUSH1 0x40 MLOAD PUSH2 0x3062 SWAP2 SWAP1 PUSH2 0x3347 JUMP JUMPDEST PUSH1 0x40 MLOAD DUP1 SWAP2 SUB SWAP1 LOG3 POP POP POP JUMP JUMPDEST PUSH2 0x3079 DUP3 DUP3 PUSH2 0xE6B JUMP JUMPDEST PUSH2 0x30BC JUMPI DUP1 DUP3 PUSH1 0x40 MLOAD PUSH32 0xE2517D3F00000000000000000000000000000000000000000000000000000000 DUP2 MSTORE PUSH1 0x4 ADD PUSH2 0x30B3 SWAP3 SWAP2 SWAP1 PUSH2 0x471D JUMP JUMPDEST PUSH1 0x40 MLOAD DUP1 SWAP2 SUB SWAP1 REVERT JUMPDEST POP POP JUMP JUMPDEST PUSH2 0x30C8 PUSH2 0x3136 JUMP JUMPDEST ISZERO PUSH2 0x30FF JUMPI PUSH1 0x40 MLOAD PUSH32 0x3EE5AEB500000000000000000000000000000000000000000000000000000000 DUP2 MSTORE PUSH1 0x4 ADD PUSH1 0x40 MLOAD DUP1 SWAP2 SUB SWAP1 REVERT JUMPDEST JUMP JUMPDEST PUSH1 0x0 PUSH32 0x9B779B17422D0DF92223018B32B4D1FA46E071723D6817E2486D003BECC55F00 PUSH1 0x0 SHL SWAP1 POP SWAP1 JUMP JUMPDEST PUSH1 0x0 DUP2 SWAP1 POP SWAP2 SWAP1 POP JUMP JUMPDEST PUSH1 0x0 PUSH1 0x2 PUSH2 0x314A PUSH2 0x3145 PUSH2 0x3101 JUMP JUMPDEST PUSH2 0x312C JUMP JUMPDEST PUSH1 0x0 ADD SLOAD EQ SWAP1 POP SWAP1 JUMP JUMPDEST PUSH1 0x40 MLOAD DUP1 PUSH1 0xE0 ADD PUSH1 0x40 MSTORE DUP1 PUSH1 0x0 PUSH20 0xFFFFFFFFFFFFFFFFFFFFFFFFFFFFFFFFFFFFFFFF AND DUP2 MSTORE PUSH1 0x20 ADD PUSH1 0x60 DUP2 MSTORE PUSH1 0x20 ADD PUSH1 0x60 DUP2 MSTORE PUSH1 0x20 ADD PUSH1 0x60 DUP2 MSTORE PUSH1 0x20 ADD PUSH1 0x0 DUP2 MSTORE PUSH1 0x20 ADD PUSH1 0x0 PUSH1 0x2 DUP2 GT ISZERO PUSH2 0x31AC JUMPI PUSH2 0x31AB PUSH2 0x36C1 JUMP JUMPDEST JUMPDEST DUP2 MSTORE PUSH1 0x20 ADD PUSH1 0x0 DUP2 MSTORE POP SWAP1 JUMP JUMPDEST DUP3 DUP1 SLOAD DUP3 DUP3 SSTORE SWAP1 PUSH1 0x0 MSTORE PUSH1 0x20 PUSH1 0x0 KECCAK256 SWAP1 DUP2 ADD SWAP3 DUP3 ISZERO PUSH2 0x3201 JUMPI SWAP2 PUSH1 0x20 MUL DUP3 ADD JUMPDEST DUP3 DUP2 GT ISZERO PUSH2 0x3200 JUMPI DUP3 MLOAD DUP3 SWAP1 DUP2 PUSH2 0x31F0 SWAP2 SWAP1 PUSH2 0x453C JUMP JUMPDEST POP SWAP2 PUSH1 0x20 ADD SWAP2 SWAP1 PUSH1 0x1 ADD SWAP1 PUSH2 0x31D9 JUMP JUMPDEST JUMPDEST POP SWAP1 POP PUSH2 0x320E SWAP2 SWAP1 PUSH2 0x3212 JUMP JUMPDEST POP SWAP1 JUMP JUMPDEST JUMPDEST DUP1 DUP3 GT ISZERO PUSH2 0x3232 JUMPI PUSH1 0x0 DUP2 DUP2 PUSH2 0x3229 SWAP2 SWAP1 PUSH2 0x3236 JUMP JUMPDEST POP PUSH1 0x1 ADD PUSH2 0x3213 JUMP JUMPDEST POP SWAP1 JUMP JUMPDEST POP DUP1 SLOAD PUSH2 0x3242 SWAP1 PUSH2 0x3EF2 JUMP JUMPDEST PUSH1 0x0 DUP3 SSTORE DUP1 PUSH1 0x1F LT PUSH2 0x3254 JUMPI POP PUSH2 0x3273 JUMP JUMPDEST PUSH1 0x1F ADD PUSH1 0x20 SWAP1 DIV SWAP1 PUSH1 0x0 MSTORE PUSH1 0x20 PUSH1 0x0 KECCAK256 SWAP1 DUP2 ADD SWAP1 PUSH2 0x3272 SWAP2 SWAP1 PUSH2 0x3276 JUMP JUMPDEST JUMPDEST POP JUMP JUMPDEST JUMPDEST DUP1 DUP3 GT ISZERO PUSH2 0x328F JUMPI PUSH1 0x0 DUP2 PUSH1 0x0 SWAP1 SSTORE POP PUSH1 0x1 ADD PUSH2 0x3277 JUMP JUMPDEST POP SWAP1 JUMP JUMPDEST PUSH1 0x0 PUSH1 0x40 MLOAD SWAP1 POP SWAP1 JUMP JUMPDEST PUSH1 0x0 DUP1 REVERT JUMPDEST PUSH1 0x0 DUP1 REVERT JUMPDEST PUSH1 0x0 PUSH32 0xFFFFFFFF00000000000000000000000000000000000000000000000000000000 DUP3 AND SWAP1 POP SWAP2 SWAP1 POP JUMP JUMPDEST PUSH2 0x32DC DUP2 PUSH2 0x32A7 JUMP JUMPDEST DUP2 EQ PUSH2 0x32E7 JUMPI PUSH1 0x0 DUP1 REVERT JUMPDEST POP JUMP JUMPDEST PUSH1 0x0 DUP2 CALLDATALOAD SWAP1 POP PUSH2 0x32F9 DUP2 PUSH2 0x32D3 JUMP JUMPDEST SWAP3 SWAP2 POP POP JUMP JUMPDEST PUSH1 0x0 PUSH1 0x20 DUP3 DUP5 SUB SLT ISZERO PUSH2 0x3315 JUMPI PUSH2 0x3314 PUSH2 0x329D JUMP JUMPDEST JUMPDEST PUSH1 0x0 PUSH2 0x3323 DUP5 DUP3 DUP6 ADD PUSH2 0x32EA JUMP JUMPDEST SWAP2 POP POP SWAP3 SWAP2 POP POP JUMP JUMPDEST PUSH1 0x0 DUP2 ISZERO ISZERO SWAP1 POP SWAP2 SWAP1 POP JUMP JUMPDEST PUSH2 0x3341 DUP2 PUSH2 0x332C JUMP JUMPDEST DUP3 MSTORE POP POP JUMP JUMPDEST PUSH1 0x0 PUSH1 0x20 DUP3 ADD SWAP1 POP PUSH2 0x335C PUSH1 0x0 DUP4 ADD DUP5 PUSH2 0x3338 JUMP JUMPDEST SWAP3 SWAP2 POP POP JUMP JUMPDEST PUSH1 0x0 DUP2 SWAP1 POP SWAP2 SWAP1 POP JUMP JUMPDEST PUSH2 0x3375 DUP2 PUSH2 0x3362 JUMP JUMPDEST DUP3 MSTORE POP POP JUMP JUMPDEST PUSH1 0x0 PUSH1 0x20 DUP3 ADD SWAP1 POP PUSH2 0x3390 PUSH1 0x0 DUP4 ADD DUP5 PUSH2 0x336C JUMP JUMPDEST SWAP3 SWAP2 POP POP JUMP JUMPDEST PUSH1 0x0 PUSH20 0xFFFFFFFFFFFFFFFFFFFFFFFFFFFFFFFFFFFFFFFF DUP3 AND SWAP1 POP SWAP2 SWAP1 POP JUMP JUMPDEST PUSH1 0x0 PUSH2 0x33C1 DUP3 PUSH2 0x3396 JUMP JUMPDEST SWAP1 POP SWAP2 SWAP1 POP JUMP JUMPDEST PUSH2 0x33D1 DUP2 PUSH2 0x33B6 JUMP JUMPDEST DUP2 EQ PUSH2 0x33DC JUMPI PUSH1 0x0 DUP1 REVERT JUMPDEST POP JUMP JUMPDEST PUSH1 0x0 DUP2 CALLDATALOAD SWAP1 POP PUSH2 0x33EE DUP2 PUSH2 0x33C8 JUMP JUMPDEST SWAP3 SWAP2 POP POP JUMP JUMPDEST PUSH1 0x0 PUSH1 0x20 DUP3 DUP5 SUB SLT ISZERO PUSH2 0x340A JUMPI PUSH2 0x3409 PUSH2 0x329D JUMP JUMPDEST JUMPDEST PUSH1 0x0 PUSH2 0x3418 DUP5 DUP3 DUP6 ADD PUSH2 0x33DF JUMP JUMPDEST SWAP2 POP POP SWAP3 SWAP2 POP POP JUMP JUMPDEST PUSH1 0x0 DUP2 SWAP1 POP SWAP2 SWAP1 POP JUMP JUMPDEST PUSH2 0x3434 DUP2 PUSH2 0x3421 JUMP JUMPDEST DUP2 EQ PUSH2 0x343F JUMPI PUSH1 0x0 DUP1 REVERT JUMPDEST POP JUMP JUMPDEST PUSH1 0x0 DUP2 CALLDATALOAD SWAP1 POP PUSH2 0x3451 DUP2 PUSH2 0x342B JUMP JUMPDEST SWAP3 SWAP2 POP POP JUMP JUMPDEST PUSH1 0x0 PUSH1 0x20 DUP3 DUP5 SUB SLT ISZERO PUSH2 0x346D JUMPI PUSH2 0x346C PUSH2 0x329D JUMP JUMPDEST JUMPDEST PUSH1 0x0 PUSH2 0x347B DUP5 DUP3 DUP6 ADD PUSH2 0x3442 JUMP JUMPDEST SWAP2 POP POP SWAP3 SWAP2 POP POP JUMP JUMPDEST PUSH2 0x348D DUP2 PUSH2 0x3421 JUMP JUMPDEST DUP3 MSTORE POP POP JUMP JUMPDEST PUSH1 0x0 PUSH1 0x20 DUP3 ADD SWAP1 POP PUSH2 0x34A8 PUSH1 0x0 DUP4 ADD DUP5 PUSH2 0x3484 JUMP JUMPDEST SWAP3 SWAP2 POP POP JUMP JUMPDEST PUSH1 0x0 DUP1 PUSH1 0x40 DUP4 DUP6 SUB SLT ISZERO PUSH2 0x34C5 JUMPI PUSH2 0x34C4 PUSH2 0x329D JUMP JUMPDEST JUMPDEST PUSH1 0x0 PUSH2 0x34D3 DUP6 DUP3 DUP7 ADD PUSH2 0x3442 JUMP JUMPDEST SWAP3 POP POP PUSH1 0x20 PUSH2 0x34E4 DUP6 DUP3 DUP7 ADD PUSH2 0x33DF JUMP JUMPDEST SWAP2 POP POP SWAP3 POP SWAP3 SWAP1 POP JUMP JUMPDEST PUSH2 0x34F7 DUP2 PUSH2 0x3362 JUMP JUMPDEST DUP2 EQ PUSH2 0x3502 JUMPI PUSH1 0x0 DUP1 REVERT JUMPDEST POP JUMP JUMPDEST PUSH1 0x0 DUP2 CALLDATALOAD SWAP1 POP PUSH2 0x3514 DUP2 PUSH2 0x34EE JUMP JUMPDEST SWAP3 SWAP2 POP POP JUMP JUMPDEST PUSH1 0x0 PUSH1 0x20 DUP3 DUP5 SUB SLT ISZERO PUSH2 0x3530 JUMPI PUSH2 0x352F PUSH2 0x329D JUMP JUMPDEST JUMPDEST PUSH1 0x0 PUSH2 0x353E DUP5 DUP3 DUP6 ADD PUSH2 0x3505 JUMP JUMPDEST SWAP2 POP POP SWAP3 SWAP2 POP POP JUMP JUMPDEST PUSH2 0x3550 DUP2 PUSH2 0x33B6 JUMP JUMPDEST DUP3 MSTORE POP POP JUMP JUMPDEST PUSH1 0x0 DUP2 MLOAD SWAP1 POP SWAP2 SWAP1 POP JUMP JUMPDEST PUSH1 0x0 DUP3 DUP3 MSTORE PUSH1 0x20 DUP3 ADD SWAP1 POP SWAP3 SWAP2 POP POP JUMP JUMPDEST PUSH1 0x0 JUMPDEST DUP4 DUP2 LT ISZERO PUSH2 0x3590 JUMPI DUP1 DUP3 ADD MLOAD DUP2 DUP5 ADD MSTORE PUSH1 0x20 DUP2 ADD SWAP1 POP PUSH2 0x3575 JUMP JUMPDEST PUSH1 0x0 DUP5 DUP5 ADD MSTORE POP POP POP POP JUMP JUMPDEST PUSH1 0x0 PUSH1 0x1F NOT PUSH1 0x1F DUP4 ADD AND SWAP1 POP SWAP2 SWAP1 POP JUMP JUMPDEST PUSH1 0x0 PUSH2 0x35B8 DUP3 PUSH2 0x3556 JUMP JUMPDEST PUSH2 0x35C2 DUP2 DUP6 PUSH2 0x3561 JUMP JUMPDEST SWAP4 POP PUSH2 0x35D2 DUP2 DUP6 PUSH1 0x20 DUP7 ADD PUSH2 0x3572 JUMP JUMPDEST PUSH2 0x35DB DUP2 PUSH2 0x359C JUMP JUMPDEST DUP5 ADD SWAP2 POP POP SWAP3 SWAP2 POP POP JUMP JUMPDEST PUSH1 0x0 DUP2 MLOAD SWAP1 POP SWAP2 SWAP1 POP JUMP JUMPDEST PUSH1 0x0 DUP3 DUP3 MSTORE PUSH1 0x20 DUP3 ADD SWAP1 POP SWAP3 SWAP2 POP POP JUMP JUMPDEST PUSH1 0x0 DUP2 SWAP1 POP PUSH1 0x20 DUP3 ADD SWAP1 POP SWAP2 SWAP1 POP JUMP JUMPDEST PUSH1 0x0 PUSH2 0x361E DUP4 DUP4 PUSH2 0x35AD JUMP JUMPDEST SWAP1 POP SWAP3 SWAP2 POP POP JUMP JUMPDEST PUSH1 0x0 PUSH1 0x20 DUP3 ADD SWAP1 POP SWAP2 SWAP1 POP JUMP JUMPDEST PUSH1 0x0 PUSH2 0x363E DUP3 PUSH2 0x35E6 JUMP JUMPDEST PUSH2 0x3648 DUP2 DUP6 PUSH2 0x35F1 JUMP JUMPDEST SWAP4 POP DUP4 PUSH1 0x20 DUP3 MUL DUP6 ADD PUSH2 0x365A DUP6 PUSH2 0x3602 JUMP JUMPDEST DUP1 PUSH1 0x0 JUMPDEST DUP6 DUP2 LT ISZERO PUSH2 0x3696 JUMPI DUP5 DUP5 SUB DUP10 MSTORE DUP2 MLOAD PUSH2 0x3677 DUP6 DUP3 PUSH2 0x3612 JUMP JUMPDEST SWAP5 POP PUSH2 0x3682 DUP4 PUSH2 0x3626 JUMP JUMPDEST SWAP3 POP PUSH1 0x20 DUP11 ADD SWAP10 POP POP PUSH1 0x1 DUP2 ADD SWAP1 POP PUSH2 0x365E JUMP JUMPDEST POP DUP3 SWAP8 POP DUP8 SWAP6 POP POP POP POP POP POP SWAP3 SWAP2 POP POP JUMP JUMPDEST PUSH1 0x0 DUP2 SWAP1 POP SWAP2 SWAP1 POP JUMP JUMPDEST PUSH2 0x36BB DUP2 PUSH2 0x36A8 JUMP JUMPDEST DUP3 MSTORE POP POP JUMP JUMPDEST PUSH32 0x4E487B7100000000000000000000000000000000000000000000000000000000 PUSH1 0x0 MSTORE PUSH1 0x21 PUSH1 0x4 MSTORE PUSH1 0x24 PUSH1 0x0 REVERT JUMPDEST PUSH1 0x3 DUP2 LT PUSH2 0x3701 JUMPI PUSH2 0x3700 PUSH2 0x36C1 JUMP JUMPDEST JUMPDEST POP JUMP JUMPDEST PUSH1 0x0 DUP2 SWAP1 POP PUSH2 0x3712 DUP3 PUSH2 0x36F0 JUMP JUMPDEST SWAP2 SWAP1 POP JUMP JUMPDEST PUSH1 0x0 PUSH2 0x3722 DUP3 PUSH2 0x3704 JUMP JUMPDEST SWAP1 POP SWAP2 SWAP1 POP JUMP JUMPDEST PUSH2 0x3732 DUP2 PUSH2 0x3717 JUMP JUMPDEST DUP3 MSTORE POP POP JUMP JUMPDEST PUSH2 0x3741 DUP2 PUSH2 0x3362 JUMP JUMPDEST DUP3 MSTORE POP POP JUMP JUMPDEST PUSH1 0x0 PUSH1 0xE0 DUP4 ADD PUSH1 0x0 DUP4 ADD MLOAD PUSH2 0x375F PUSH1 0x0 DUP7 ADD DUP3 PUSH2 0x3547 JUMP JUMPDEST POP PUSH1 0x20 DUP4 ADD MLOAD DUP5 DUP3 SUB PUSH1 0x20 DUP7 ADD MSTORE PUSH2 0x3777 DUP3 DUP3 PUSH2 0x35AD JUMP JUMPDEST SWAP2 POP POP PUSH1 0x40 DUP4 ADD MLOAD DUP5 DUP3 SUB PUSH1 0x40 DUP7 ADD MSTORE PUSH2 0x3791 DUP3 DUP3 PUSH2 0x3633 JUMP JUMPDEST SWAP2 POP POP PUSH1 0x60 DUP4 ADD MLOAD DUP5 DUP3 SUB PUSH1 0x60 DUP7 ADD MSTORE PUSH2 0x37AB DUP3 DUP3 PUSH2 0x35AD JUMP JUMPDEST SWAP2 POP POP PUSH1 0x80 DUP4 ADD MLOAD PUSH2 0x37C0 PUSH1 0x80 DUP7 ADD DUP3 PUSH2 0x36B2 JUMP JUMPDEST POP PUSH1 0xA0 DUP4 ADD MLOAD PUSH2 0x37D3 PUSH1 0xA0 DUP7 ADD DUP3 PUSH2 0x3729 JUMP JUMPDEST POP PUSH1 0xC0 DUP4 ADD MLOAD PUSH2 0x37E6 PUSH1 0xC0 DUP7 ADD DUP3 PUSH2 0x3738 JUMP JUMPDEST POP DUP1 SWAP2 POP POP SWAP3 SWAP2 POP POP JUMP JUMPDEST PUSH1 0x0 PUSH1 0x20 DUP3 ADD SWAP1 POP DUP2 DUP2 SUB PUSH1 0x0 DUP4 ADD MSTORE PUSH2 0x380B DUP2 DUP5 PUSH2 0x3747 JUMP JUMPDEST SWAP1 POP SWAP3 SWAP2 POP POP JUMP JUMPDEST PUSH1 0x0 DUP2 MLOAD SWAP1 POP SWAP2 SWAP1 POP JUMP JUMPDEST PUSH1 0x0 DUP3 DUP3 MSTORE PUSH1 0x20 DUP3 ADD SWAP1 POP SWAP3 SWAP2 POP POP JUMP JUMPDEST PUSH1 0x0 DUP2 SWAP1 POP PUSH1 0x20 DUP3 ADD SWAP1 POP SWAP2 SWAP1 POP JUMP JUMPDEST PUSH1 0x0 PUSH1 0xE0 DUP4 ADD PUSH1 0x0 DUP4 ADD MLOAD PUSH2 0x3857 PUSH1 0x0 DUP7 ADD DUP3 PUSH2 0x3547 JUMP JUMPDEST POP PUSH1 0x20 DUP4 ADD MLOAD DUP5 DUP3 SUB PUSH1 0x20 DUP7 ADD MSTORE PUSH2 0x386F DUP3 DUP3 PUSH2 0x35AD JUMP JUMPDEST SWAP2 POP POP PUSH1 0x40 DUP4 ADD MLOAD DUP5 DUP3 SUB PUSH1 0x40 DUP7 ADD MSTORE PUSH2 0x3889 DUP3 DUP3 PUSH2 0x3633 JUMP JUMPDEST SWAP2 POP POP PUSH1 0x60 DUP4 ADD MLOAD DUP5 DUP3 SUB PUSH1 0x60 DUP7 ADD MSTORE PUSH2 0x38A3 DUP3 DUP3 PUSH2 0x35AD JUMP JUMPDEST SWAP2 POP POP PUSH1 0x80 DUP4 ADD MLOAD PUSH2 0x38B8 PUSH1 0x80 DUP7 ADD DUP3 PUSH2 0x36B2 JUMP JUMPDEST POP PUSH1 0xA0 DUP4 ADD MLOAD PUSH2 0x38CB PUSH1 0xA0 DUP7 ADD DUP3 PUSH2 0x3729 JUMP JUMPDEST POP PUSH1 0xC0 DUP4 ADD MLOAD PUSH2 0x38DE PUSH1 0xC0 DUP7 ADD DUP3 PUSH2 0x3738 JUMP JUMPDEST POP DUP1 SWAP2 POP POP SWAP3 SWAP2 POP POP JUMP JUMPDEST PUSH1 0x0 PUSH2 0x38F5 DUP4 DUP4 PUSH2 0x383F JUMP JUMPDEST SWAP1 POP SWAP3 SWAP2 POP POP JUMP JUMPDEST PUSH1 0x0 PUSH1 0x20 DUP3 ADD SWAP1 POP SWAP2 SWAP1 POP JUMP JUMPDEST PUSH1 0x0 PUSH2 0x3915 DUP3 PUSH2 0x3813 JUMP JUMPDEST PUSH2 0x391F DUP2 DUP6 PUSH2 0x381E JUMP JUMPDEST SWAP4 POP DUP4 PUSH1 0x20 DUP3 MUL DUP6 ADD PUSH2 0x3931 DUP6 PUSH2 0x382F JUMP JUMPDEST DUP1 PUSH1 0x0 JUMPDEST DUP6 DUP2 LT ISZERO PUSH2 0x396D JUMPI DUP5 DUP5 SUB DUP10 MSTORE DUP2 MLOAD PUSH2 0x394E DUP6 DUP3 PUSH2 0x38E9 JUMP JUMPDEST SWAP5 POP PUSH2 0x3959 DUP4 PUSH2 0x38FD JUMP JUMPDEST SWAP3 POP PUSH1 0x20 DUP11 ADD SWAP10 POP POP PUSH1 0x1 DUP2 ADD SWAP1 POP PUSH2 0x3935 JUMP JUMPDEST POP DUP3 SWAP8 POP DUP8 SWAP6 POP POP POP POP POP POP SWAP3 SWAP2 POP POP JUMP JUMPDEST PUSH1 0x0 PUSH1 0x20 DUP3 ADD SWAP1 POP DUP2 DUP2 SUB PUSH1 0x0 DUP4 ADD MSTORE PUSH2 0x3999 DUP2 DUP5 PUSH2 0x390A JUMP JUMPDEST SWAP1 POP SWAP3 SWAP2 POP POP JUMP JUMPDEST PUSH2 0x39AA DUP2 PUSH2 0x332C JUMP JUMPDEST DUP2 EQ PUSH2 0x39B5 JUMPI PUSH1 0x0 DUP1 REVERT JUMPDEST POP JUMP JUMPDEST PUSH1 0x0 DUP2 CALLDATALOAD SWAP1 POP PUSH2 0x39C7 DUP2 PUSH2 0x39A1 JUMP JUMPDEST SWAP3 SWAP2 POP POP JUMP JUMPDEST PUSH1 0x0 DUP1 PUSH1 0x40 DUP4 DUP6 SUB SLT ISZERO PUSH2 0x39E4 JUMPI PUSH2 0x39E3 PUSH2 0x329D JUMP JUMPDEST JUMPDEST PUSH1 0x0 PUSH2 0x39F2 DUP6 DUP3 DUP7 ADD PUSH2 0x3505 JUMP JUMPDEST SWAP3 POP POP PUSH1 0x20 PUSH2 0x3A03 DUP6 DUP3 DUP7 ADD PUSH2 0x39B8 JUMP JUMPDEST SWAP2 POP POP SWAP3 POP SWAP3 SWAP1 POP JUMP JUMPDEST PUSH1 0x0 DUP1 REVERT JUMPDEST PUSH1 0x0 DUP1 REVERT JUMPDEST PUSH32 0x4E487B7100000000000000000000000000000000000000000000000000000000 PUSH1 0x0 MSTORE PUSH1 0x41 PUSH1 0x4 MSTORE PUSH1 0x24 PUSH1 0x0 REVERT JUMPDEST PUSH2 0x3A4F DUP3 PUSH2 0x359C JUMP JUMPDEST DUP2 ADD DUP2 DUP2 LT PUSH8 0xFFFFFFFFFFFFFFFF DUP3 GT OR ISZERO PUSH2 0x3A6E JUMPI PUSH2 0x3A6D PUSH2 0x3A17 JUMP JUMPDEST JUMPDEST DUP1 PUSH1 0x40 MSTORE POP POP POP JUMP JUMPDEST PUSH1 0x0 PUSH2 0x3A81 PUSH2 0x3293 JUMP JUMPDEST SWAP1 POP PUSH2 0x3A8D DUP3 DUP3 PUSH2 0x3A46 JUMP JUMPDEST SWAP2 SWAP1 POP JUMP JUMPDEST PUSH1 0x0 PUSH8 0xFFFFFFFFFFFFFFFF DUP3 GT ISZERO PUSH2 0x3AAD JUMPI PUSH2 0x3AAC PUSH2 0x3A17 JUMP JUMPDEST JUMPDEST PUSH2 0x3AB6 DUP3 PUSH2 0x359C JUMP JUMPDEST SWAP1 POP PUSH1 0x20 DUP2 ADD SWAP1 POP SWAP2 SWAP1 POP JUMP JUMPDEST DUP3 DUP2 DUP4 CALLDATACOPY PUSH1 0x0 DUP4 DUP4 ADD MSTORE POP POP POP JUMP JUMPDEST PUSH1 0x0 PUSH2 0x3AE5 PUSH2 0x3AE0 DUP5 PUSH2 0x3A92 JUMP JUMPDEST PUSH2 0x3A77 JUMP JUMPDEST SWAP1 POP DUP3 DUP2 MSTORE PUSH1 0x20 DUP2 ADD DUP5 DUP5 DUP5 ADD GT ISZERO PUSH2 0x3B01 JUMPI PUSH2 0x3B00 PUSH2 0x3A12 JUMP JUMPDEST JUMPDEST PUSH2 0x3B0C DUP5 DUP3 DUP6 PUSH2 0x3AC3 JUMP JUMPDEST POP SWAP4 SWAP3 POP POP POP JUMP JUMPDEST PUSH1 0x0 DUP3 PUSH1 0x1F DUP4 ADD SLT PUSH2 0x3B29 JUMPI PUSH2 0x3B28 PUSH2 0x3A0D JUMP JUMPDEST JUMPDEST DUP2 CALLDATALOAD PUSH2 0x3B39 DUP5 DUP3 PUSH1 0x20 DUP7 ADD PUSH2 0x3AD2 JUMP JUMPDEST SWAP2 POP POP SWAP3 SWAP2 POP POP JUMP JUMPDEST PUSH1 0x0 PUSH8 0xFFFFFFFFFFFFFFFF DUP3 GT ISZERO PUSH2 0x3B5D JUMPI PUSH2 0x3B5C PUSH2 0x3A17 JUMP JUMPDEST JUMPDEST PUSH1 0x20 DUP3 MUL SWAP1 POP PUSH1 0x20 DUP2 ADD SWAP1 POP SWAP2 SWAP1 POP JUMP JUMPDEST PUSH1 0x0 DUP1 REVERT JUMPDEST PUSH1 0x0 PUSH2 0x3B86 PUSH2 0x3B81 DUP5 PUSH2 0x3B42 JUMP JUMPDEST PUSH2 0x3A77 JUMP JUMPDEST SWAP1 POP DUP1 DUP4 DUP3 MSTORE PUSH1 0x20 DUP3 ADD SWAP1 POP PUSH1 0x20 DUP5 MUL DUP4 ADD DUP6 DUP2 GT ISZERO PUSH2 0x3BA9 JUMPI PUSH2 0x3BA8 PUSH2 0x3B6E JUMP JUMPDEST JUMPDEST DUP4 JUMPDEST DUP2 DUP2 LT ISZERO PUSH2 0x3BF0 JUMPI DUP1 CALLDATALOAD PUSH8 0xFFFFFFFFFFFFFFFF DUP2 GT ISZERO PUSH2 0x3BCE JUMPI PUSH2 0x3BCD PUSH2 0x3A0D JUMP JUMPDEST JUMPDEST DUP1 DUP7 ADD PUSH2 0x3BDB DUP10 DUP3 PUSH2 0x3B14 JUMP JUMPDEST DUP6 MSTORE PUSH1 0x20 DUP6 ADD SWAP5 POP POP POP PUSH1 0x20 DUP2 ADD SWAP1 POP PUSH2 0x3BAB JUMP JUMPDEST POP POP POP SWAP4 SWAP3 POP POP POP JUMP JUMPDEST PUSH1 0x0 DUP3 PUSH1 0x1F DUP4 ADD SLT PUSH2 0x3C0F JUMPI PUSH2 0x3C0E PUSH2 0x3A0D JUMP JUMPDEST JUMPDEST DUP2 CALLDATALOAD PUSH2 0x3C1F DUP5 DUP3 PUSH1 0x20 DUP7 ADD PUSH2 0x3B73 JUMP JUMPDEST SWAP2 POP POP SWAP3 SWAP2 POP POP JUMP JUMPDEST PUSH1 0x0 DUP1 PUSH1 0x0 DUP1 PUSH1 0x80 DUP6 DUP8 SUB SLT ISZERO PUSH2 0x3C42 JUMPI PUSH2 0x3C41 PUSH2 0x329D JUMP JUMPDEST JUMPDEST PUSH1 0x0 PUSH2 0x3C50 DUP8 DUP3 DUP9 ADD PUSH2 0x3505 JUMP JUMPDEST SWAP5 POP POP PUSH1 0x20 DUP6 ADD CALLDATALOAD PUSH8 0xFFFFFFFFFFFFFFFF DUP2 GT ISZERO PUSH2 0x3C71 JUMPI PUSH2 0x3C70 PUSH2 0x32A2 JUMP JUMPDEST JUMPDEST PUSH2 0x3C7D DUP8 DUP3 DUP9 ADD PUSH2 0x3B14 JUMP JUMPDEST SWAP4 POP POP PUSH1 0x40 DUP6 ADD CALLDATALOAD PUSH8 0xFFFFFFFFFFFFFFFF DUP2 GT ISZERO PUSH2 0x3C9E JUMPI PUSH2 0x3C9D PUSH2 0x32A2 JUMP JUMPDEST JUMPDEST PUSH2 0x3CAA DUP8 DUP3 DUP9 ADD PUSH2 0x3BFA JUMP JUMPDEST SWAP3 POP POP PUSH1 0x60 DUP6 ADD CALLDATALOAD PUSH8 0xFFFFFFFFFFFFFFFF DUP2 GT ISZERO PUSH2 0x3CCB JUMPI PUSH2 0x3CCA PUSH2 0x32A2 JUMP JUMPDEST JUMPDEST PUSH2 0x3CD7 DUP8 DUP3 DUP9 ADD PUSH2 0x3B14 JUMP JUMPDEST SWAP2 POP POP SWAP3 SWAP6 SWAP2 SWAP5 POP SWAP3 POP JUMP JUMPDEST PUSH2 0x3CEC DUP2 PUSH2 0x33B6 JUMP JUMPDEST DUP3 MSTORE POP POP JUMP JUMPDEST PUSH1 0x0 DUP3 DUP3 MSTORE PUSH1 0x20 DUP3 ADD SWAP1 POP SWAP3 SWAP2 POP POP JUMP JUMPDEST PUSH1 0x0 PUSH2 0x3D0E DUP3 PUSH2 0x3556 JUMP JUMPDEST PUSH2 0x3D18 DUP2 DUP6 PUSH2 0x3CF2 JUMP JUMPDEST SWAP4 POP PUSH2 0x3D28 DUP2 DUP6 PUSH1 0x20 DUP7 ADD PUSH2 0x3572 JUMP JUMPDEST PUSH2 0x3D31 DUP2 PUSH2 0x359C JUMP JUMPDEST DUP5 ADD SWAP2 POP POP SWAP3 SWAP2 POP POP JUMP JUMPDEST PUSH2 0x3D45 DUP2 PUSH2 0x36A8 JUMP JUMPDEST DUP3 MSTORE POP POP JUMP JUMPDEST PUSH2 0x3D54 DUP2 PUSH2 0x3717 JUMP JUMPDEST DUP3 MSTORE POP POP JUMP JUMPDEST PUSH1 0x0 PUSH1 0xC0 DUP3 ADD SWAP1 POP PUSH2 0x3D6F PUSH1 0x0 DUP4 ADD DUP10 PUSH2 0x3CE3 JUMP JUMPDEST DUP2 DUP2 SUB PUSH1 0x20 DUP4 ADD MSTORE PUSH2 0x3D81 DUP2 DUP9 PUSH2 0x3D03 JUMP JUMPDEST SWAP1 POP DUP2 DUP2 SUB PUSH1 0x40 DUP4 ADD MSTORE PUSH2 0x3D95 DUP2 DUP8 PUSH2 0x3D03 JUMP JUMPDEST SWAP1 POP PUSH2 0x3DA4 PUSH1 0x60 DUP4 ADD DUP7 PUSH2 0x3D3C JUMP JUMPDEST PUSH2 0x3DB1 PUSH1 0x80 DUP4 ADD DUP6 PUSH2 0x3D4B JUMP JUMPDEST PUSH2 0x3DBE PUSH1 0xA0 DUP4 ADD DUP5 PUSH2 0x336C JUMP JUMPDEST SWAP8 SWAP7 POP POP POP POP POP POP POP JUMP JUMPDEST PUSH1 0x0 DUP1 PUSH1 0x0 PUSH1 0x60 DUP5 DUP7 SUB SLT ISZERO PUSH2 0x3DE2 JUMPI PUSH2 0x3DE1 PUSH2 0x329D JUMP JUMPDEST JUMPDEST PUSH1 0x0 DUP5 ADD CALLDATALOAD PUSH8 0xFFFFFFFFFFFFFFFF DUP2 GT ISZERO PUSH2 0x3E00 JUMPI PUSH2 0x3DFF PUSH2 0x32A2 JUMP JUMPDEST JUMPDEST PUSH2 0x3E0C DUP7 DUP3 DUP8 ADD PUSH2 0x3B14 JUMP JUMPDEST SWAP4 POP POP PUSH1 0x20 DUP5 ADD CALLDATALOAD PUSH8 0xFFFFFFFFFFFFFFFF DUP2 GT ISZERO PUSH2 0x3E2D JUMPI PUSH2 0x3E2C PUSH2 0x32A2 JUMP JUMPDEST JUMPDEST PUSH2 0x3E39 DUP7 DUP3 DUP8 ADD PUSH2 0x3BFA JUMP JUMPDEST SWAP3 POP POP PUSH1 0x40 DUP5 ADD CALLDATALOAD PUSH8 0xFFFFFFFFFFFFFFFF DUP2 GT ISZERO PUSH2 0x3E5A JUMPI PUSH2 0x3E59 PUSH2 0x32A2 JUMP JUMPDEST JUMPDEST PUSH2 0x3E66 DUP7 DUP3 DUP8 ADD PUSH2 0x3B14 JUMP JUMPDEST SWAP2 POP POP SWAP3 POP SWAP3 POP SWAP3 JUMP JUMPDEST PUSH1 0x0 DUP1 PUSH1 0x0 PUSH1 0x60 DUP5 DUP7 SUB SLT ISZERO PUSH2 0x3E89 JUMPI PUSH2 0x3E88 PUSH2 0x329D JUMP JUMPDEST JUMPDEST PUSH1 0x0 PUSH2 0x3E97 DUP7 DUP3 DUP8 ADD PUSH2 0x3505 JUMP JUMPDEST SWAP4 POP POP PUSH1 0x20 PUSH2 0x3EA8 DUP7 DUP3 DUP8 ADD PUSH2 0x3505 JUMP JUMPDEST SWAP3 POP POP PUSH1 0x40 PUSH2 0x3EB9 DUP7 DUP3 DUP8 ADD PUSH2 0x3505 JUMP JUMPDEST SWAP2 POP POP SWAP3 POP SWAP3 POP SWAP3 JUMP JUMPDEST PUSH32 0x4E487B7100000000000000000000000000000000000000000000000000000000 PUSH1 0x0 MSTORE PUSH1 0x22 PUSH1 0x4 MSTORE PUSH1 0x24 PUSH1 0x0 REVERT JUMPDEST PUSH1 0x0 PUSH1 0x2 DUP3 DIV SWAP1 POP PUSH1 0x1 DUP3 AND DUP1 PUSH2 0x3F0A JUMPI PUSH1 0x7F DUP3 AND SWAP2 POP JUMPDEST PUSH1 0x20 DUP3 LT DUP2 SUB PUSH2 0x3F1D JUMPI PUSH2 0x3F1C PUSH2 0x3EC3 JUMP JUMPDEST JUMPDEST POP SWAP2 SWAP1 POP JUMP JUMPDEST PUSH32 0x4E487B7100000000000000000000000000000000000000000000000000000000 PUSH1 0x0 MSTORE PUSH1 0x32 PUSH1 0x4 MSTORE PUSH1 0x24 PUSH1 0x0 REVERT JUMPDEST PUSH32 0x4E487B7100000000000000000000000000000000000000000000000000000000 PUSH1 0x0 MSTORE PUSH1 0x11 PUSH1 0x4 MSTORE PUSH1 0x24 PUSH1 0x0 REVERT JUMPDEST PUSH1 0x0 PUSH2 0x3F8C DUP3 PUSH2 0x3362 JUMP JUMPDEST SWAP2 POP PUSH2 0x3F97 DUP4 PUSH2 0x3362 JUMP JUMPDEST SWAP3 POP DUP3 DUP3 SUB SWAP1 POP DUP2 DUP2 GT ISZERO PUSH2 0x3FAF JUMPI PUSH2 0x3FAE PUSH2 0x3F52 JUMP JUMPDEST JUMPDEST SWAP3 SWAP2 POP POP JUMP JUMPDEST PUSH1 0x0 PUSH2 0x3FC0 DUP3 PUSH2 0x3362 JUMP JUMPDEST SWAP2 POP PUSH1 0x0 DUP3 SUB PUSH2 0x3FD3 JUMPI PUSH2 0x3FD2 PUSH2 0x3F52 JUMP JUMPDEST JUMPDEST PUSH1 0x1 DUP3 SUB SWAP1 POP SWAP2 SWAP1 POP JUMP JUMPDEST PUSH1 0x0 PUSH2 0x3FE9 DUP3 PUSH2 0x3362 JUMP JUMPDEST SWAP2 POP PUSH2 0x3FF4 DUP4 PUSH2 0x3362 JUMP JUMPDEST SWAP3 POP DUP3 DUP3 ADD SWAP1 POP DUP1 DUP3 GT ISZERO PUSH2 0x400C JUMPI PUSH2 0x400B PUSH2 0x3F52 JUMP JUMPDEST JUMPDEST SWAP3 SWAP2 POP POP JUMP JUMPDEST PUSH32 0x417070726F766564207265706F72742072657761726400000000000000000000 PUSH1 0x0 DUP3 ADD MSTORE POP JUMP JUMPDEST PUSH1 0x0 PUSH2 0x4048 PUSH1 0x16 DUP4 PUSH2 0x3CF2 JUMP JUMPDEST SWAP2 POP PUSH2 0x4053 DUP3 PUSH2 0x4012 JUMP JUMPDEST PUSH1 0x20 DUP3 ADD SWAP1 POP SWAP2 SWAP1 POP JUMP JUMPDEST PUSH1 0x0 PUSH1 0x40 DUP3 ADD SWAP1 POP PUSH2 0x4073 PUSH1 0x0 DUP4 ADD DUP5 PUSH2 0x336C JUMP JUMPDEST DUP2 DUP2 SUB PUSH1 0x20 DUP4 ADD MSTORE PUSH2 0x4084 DUP2 PUSH2 0x403B JUMP JUMPDEST SWAP1 POP SWAP3 SWAP2 POP POP JUMP JUMPDEST PUSH32 0x436F72726563742075702D766F74652072657761726400000000000000000000 PUSH1 0x0 DUP3 ADD MSTORE POP JUMP JUMPDEST PUSH1 0x0 PUSH2 0x40C2 PUSH1 0x16 DUP4 PUSH2 0x3CF2 JUMP JUMPDEST SWAP2 POP PUSH2 0x40CD DUP3 PUSH2 0x408C JUMP JUMPDEST PUSH1 0x20 DUP3 ADD SWAP1 POP SWAP2 SWAP1 POP JUMP JUMPDEST PUSH1 0x0 PUSH1 0x40 DUP3 ADD SWAP1 POP PUSH2 0x40ED PUSH1 0x0 DUP4 ADD DUP5 PUSH2 0x336C JUMP JUMPDEST DUP2 DUP2 SUB PUSH1 0x20 DUP4 ADD MSTORE PUSH2 0x40FE DUP2 PUSH2 0x40B5 JUMP JUMPDEST SWAP1 POP SWAP3 SWAP2 POP POP JUMP JUMPDEST PUSH32 0x496E636F727265637420646F776E2D766F74652070656E616C74790000000000 PUSH1 0x0 DUP3 ADD MSTORE POP JUMP JUMPDEST PUSH1 0x0 PUSH2 0x413C PUSH1 0x1B DUP4 PUSH2 0x3CF2 JUMP JUMPDEST SWAP2 POP PUSH2 0x4147 DUP3 PUSH2 0x4106 JUMP JUMPDEST PUSH1 0x20 DUP3 ADD SWAP1 POP SWAP2 SWAP1 POP JUMP JUMPDEST PUSH1 0x0 PUSH1 0x40 DUP3 ADD SWAP1 POP PUSH2 0x4167 PUSH1 0x0 DUP4 ADD DUP5 PUSH2 0x336C JUMP JUMPDEST DUP2 DUP2 SUB PUSH1 0x20 DUP4 ADD MSTORE PUSH2 0x4178 DUP2 PUSH2 0x412F JUMP JUMPDEST SWAP1 POP SWAP3 SWAP2 POP POP JUMP JUMPDEST PUSH32 0x52656A6563746564207265706F72742070656E616C7479000000000000000000 PUSH1 0x0 DUP3 ADD MSTORE POP JUMP JUMPDEST PUSH1 0x0 PUSH2 0x41B6 PUSH1 0x17 DUP4 PUSH2 0x3CF2 JUMP JUMPDEST SWAP2 POP PUSH2 0x41C1 DUP3 PUSH2 0x4180 JUMP JUMPDEST PUSH1 0x20 DUP3 ADD SWAP1 POP SWAP2 SWAP1 POP JUMP JUMPDEST PUSH1 0x0 PUSH1 0x40 DUP3 ADD SWAP1 POP PUSH2 0x41E1 PUSH1 0x0 DUP4 ADD DUP5 PUSH2 0x336C JUMP JUMPDEST DUP2 DUP2 SUB PUSH1 0x20 DUP4 ADD MSTORE PUSH2 0x41F2 DUP2 PUSH2 0x41A9 JUMP JUMPDEST SWAP1 POP SWAP3 SWAP2 POP POP JUMP JUMPDEST PUSH32 0x496E636F72726563742075702D766F74652070656E616C747900000000000000 PUSH1 0x0 DUP3 ADD MSTORE POP JUMP JUMPDEST PUSH1 0x0 PUSH2 0x4230 PUSH1 0x19 DUP4 PUSH2 0x3CF2 JUMP JUMPDEST SWAP2 POP PUSH2 0x423B DUP3 PUSH2 0x41FA JUMP JUMPDEST PUSH1 0x20 DUP3 ADD SWAP1 POP SWAP2 SWAP1 POP JUMP JUMPDEST PUSH1 0x0 PUSH1 0x40 DUP3 ADD SWAP1 POP PUSH2 0x425B PUSH1 0x0 DUP4 ADD DUP5 PUSH2 0x336C JUMP JUMPDEST DUP2 DUP2 SUB PUSH1 0x20 DUP4 ADD MSTORE PUSH2 0x426C DUP2 PUSH2 0x4223 JUMP JUMPDEST SWAP1 POP SWAP3 SWAP2 POP POP JUMP JUMPDEST PUSH1 0x0 PUSH2 0x427F DUP3 PUSH2 0x3362 JUMP JUMPDEST SWAP2 POP PUSH2 0x428A DUP4 PUSH2 0x3362 JUMP JUMPDEST SWAP3 POP DUP3 DUP3 MUL PUSH2 0x4298 DUP2 PUSH2 0x3362 JUMP JUMPDEST SWAP2 POP DUP3 DUP3 DIV DUP5 EQ DUP4 ISZERO OR PUSH2 0x42AF JUMPI PUSH2 0x42AE PUSH2 0x3F52 JUMP JUMPDEST JUMPDEST POP SWAP3 SWAP2 POP POP JUMP JUMPDEST PUSH32 0x4E487B7100000000000000000000000000000000000000000000000000000000 PUSH1 0x0 MSTORE PUSH1 0x12 PUSH1 0x4 MSTORE PUSH1 0x24 PUSH1 0x0 REVERT JUMPDEST PUSH1 0x0 PUSH2 0x42F0 DUP3 PUSH2 0x3362 JUMP JUMPDEST SWAP2 POP PUSH2 0x42FB DUP4 PUSH2 0x3362 JUMP JUMPDEST SWAP3 POP DUP3 PUSH2 0x430B JUMPI PUSH2 0x430A PUSH2 0x42B6 JUMP JUMPDEST JUMPDEST DUP3 DUP3 DIV SWAP1 POP SWAP3 SWAP2 POP POP JUMP JUMPDEST PUSH32 0x436F727265637420646F776E2D766F7465207265776172640000000000000000 PUSH1 0x0 DUP3 ADD MSTORE POP JUMP JUMPDEST PUSH1 0x0 PUSH2 0x434C PUSH1 0x18 DUP4 PUSH2 0x3CF2 JUMP JUMPDEST SWAP2 POP PUSH2 0x4357 DUP3 PUSH2 0x4316 JUMP JUMPDEST PUSH1 0x20 DUP3 ADD SWAP1 POP SWAP2 SWAP1 POP JUMP JUMPDEST PUSH1 0x0 PUSH1 0x40 DUP3 ADD SWAP1 POP PUSH2 0x4377 PUSH1 0x0 DUP4 ADD DUP5 PUSH2 0x336C JUMP JUMPDEST DUP2 DUP2 SUB PUSH1 0x20 DUP4 ADD MSTORE PUSH2 0x4388 DUP2 PUSH2 0x433F JUMP JUMPDEST SWAP1 POP SWAP3 SWAP2 POP POP JUMP JUMPDEST PUSH1 0x0 DUP2 SWAP1 POP DUP2 PUSH1 0x0 MSTORE PUSH1 0x20 PUSH1 0x0 KECCAK256 SWAP1 POP SWAP2 SWAP1 POP JUMP JUMPDEST PUSH1 0x0 PUSH1 0x20 PUSH1 0x1F DUP4 ADD DIV SWAP1 POP SWAP2 SWAP1 POP JUMP JUMPDEST PUSH1 0x0 DUP3 DUP3 SHL SWAP1 POP SWAP3 SWAP2 POP POP JUMP JUMPDEST PUSH1 0x0 PUSH1 0x8 DUP4 MUL PUSH2 0x43F2 PUSH32 0xFFFFFFFFFFFFFFFFFFFFFFFFFFFFFFFFFFFFFFFFFFFFFFFFFFFFFFFFFFFFFFFF DUP3 PUSH2 0x43B5 JUMP JUMPDEST PUSH2 0x43FC DUP7 DUP4 PUSH2 0x43B5 JUMP JUMPDEST SWAP6 POP DUP1 NOT DUP5 AND SWAP4 POP DUP1 DUP7 AND DUP5 OR SWAP3 POP POP POP SWAP4 SWAP3 POP POP POP JUMP JUMPDEST PUSH1 0x0 DUP2 SWAP1 POP SWAP2 SWAP1 POP JUMP JUMPDEST PUSH1 0x0 PUSH2 0x4439 PUSH2 0x4434 PUSH2 0x442F DUP5 PUSH2 0x3362 JUMP JUMPDEST PUSH2 0x4414 JUMP JUMPDEST PUSH2 0x3362 JUMP JUMPDEST SWAP1 POP SWAP2 SWAP1 POP JUMP JUMPDEST PUSH1 0x0 DUP2 SWAP1 POP SWAP2 SWAP1 POP JUMP JUMPDEST PUSH2 0x4453 DUP4 PUSH2 0x441E JUMP JUMPDEST PUSH2 0x4467 PUSH2 0x445F DUP3 PUSH2 0x4440 JUMP JUMPDEST DUP5 DUP5 SLOAD PUSH2 0x43C2 JUMP JUMPDEST DUP3 SSTORE POP POP POP POP JUMP JUMPDEST PUSH1 0x0 SWAP1 JUMP JUMPDEST PUSH2 0x447C PUSH2 0x446F JUMP JUMPDEST PUSH2 0x4487 DUP2 DUP5 DUP5 PUSH2 0x444A JUMP JUMPDEST POP POP POP JUMP JUMPDEST JUMPDEST DUP2 DUP2 LT ISZERO PUSH2 0x44AB JUMPI PUSH2 0x44A0 PUSH1 0x0 DUP3 PUSH2 0x4474 JUMP JUMPDEST PUSH1 0x1 DUP2 ADD SWAP1 POP PUSH2 0x448D JUMP JUMPDEST POP POP JUMP JUMPDEST PUSH1 0x1F DUP3 GT ISZERO PUSH2 0x44F0 JUMPI PUSH2 0x44C1 DUP2 PUSH2 0x4390 JUMP JUMPDEST PUSH2 0x44CA DUP5 PUSH2 0x43A5 JUMP JUMPDEST DUP2 ADD PUSH1 0x20 DUP6 LT ISZERO PUSH2 0x44D9 JUMPI DUP2 SWAP1 POP JUMPDEST PUSH2 0x44ED PUSH2 0x44E5 DUP6 PUSH2 0x43A5 JUMP JUMPDEST DUP4 ADD DUP3 PUSH2 0x448C JUMP JUMPDEST POP POP JUMPDEST POP POP POP JUMP JUMPDEST PUSH1 0x0 DUP3 DUP3 SHR SWAP1 POP SWAP3 SWAP2 POP POP JUMP JUMPDEST PUSH1 0x0 PUSH2 0x4513 PUSH1 0x0 NOT DUP5 PUSH1 0x8 MUL PUSH2 0x44F5 JUMP JUMPDEST NOT DUP1 DUP4 AND SWAP2 POP POP SWAP3 SWAP2 POP POP JUMP JUMPDEST PUSH1 0x0 PUSH2 0x452C DUP4 DUP4 PUSH2 0x4502 JUMP JUMPDEST SWAP2 POP DUP3 PUSH1 0x2 MUL DUP3 OR SWAP1 POP SWAP3 SWAP2 POP POP JUMP JUMPDEST PUSH2 0x4545 DUP3 PUSH2 0x3556 JUMP JUMPDEST PUSH8 0xFFFFFFFFFFFFFFFF DUP2 GT ISZERO PUSH2 0x455E JUMPI PUSH2 0x455D PUSH2 0x3A17 JUMP JUMPDEST JUMPDEST PUSH2 0x4568 DUP3 SLOAD PUSH2 0x3EF2 JUMP JUMPDEST PUSH2 0x4573 DUP3 DUP3 DUP6 PUSH2 0x44AF JUMP JUMPDEST PUSH1 0x0 PUSH1 0x20 SWAP1 POP PUSH1 0x1F DUP4 GT PUSH1 0x1 DUP2 EQ PUSH2 0x45A6 JUMPI PUSH1 0x0 DUP5 ISZERO PUSH2 0x4594 JUMPI DUP3 DUP8 ADD MLOAD SWAP1 POP JUMPDEST PUSH2 0x459E DUP6 DUP3 PUSH2 0x4520 JUMP JUMPDEST DUP7 SSTORE POP PUSH2 0x4606 JUMP JUMPDEST PUSH1 0x1F NOT DUP5 AND PUSH2 0x45B4 DUP7 PUSH2 0x4390 JUMP JUMPDEST PUSH1 0x0 JUMPDEST DUP3 DUP2 LT ISZERO PUSH2 0x45DC JUMPI DUP5 DUP10 ADD MLOAD DUP3 SSTORE PUSH1 0x1 DUP3 ADD SWAP2 POP PUSH1 0x20 DUP6 ADD SWAP5 POP PUSH1 0x20 DUP2 ADD SWAP1 POP PUSH2 0x45B7 JUMP JUMPDEST DUP7 DUP4 LT ISZERO PUSH2 0x45F9 JUMPI DUP5 DUP10 ADD MLOAD PUSH2 0x45F5 PUSH1 0x1F DUP10 AND DUP3 PUSH2 0x4502 JUMP JUMPDEST DUP4 SSTORE POP JUMPDEST PUSH1 0x1 PUSH1 0x2 DUP9 MUL ADD DUP9 SSTORE POP POP POP JUMPDEST POP POP POP POP POP POP JUMP JUMPDEST PUSH1 0x0 PUSH2 0x4619 DUP3 PUSH2 0x3362 JUMP JUMPDEST SWAP2 POP PUSH32 0xFFFFFFFFFFFFFFFFFFFFFFFFFFFFFFFFFFFFFFFFFFFFFFFFFFFFFFFFFFFFFFFF DUP3 SUB PUSH2 0x464B JUMPI PUSH2 0x464A PUSH2 0x3F52 JUMP JUMPDEST JUMPDEST PUSH1 0x1 DUP3 ADD SWAP1 POP SWAP2 SWAP1 POP JUMP JUMPDEST PUSH1 0x0 PUSH1 0x60 DUP3 ADD SWAP1 POP PUSH2 0x466B PUSH1 0x0 DUP4 ADD DUP7 PUSH2 0x336C JUMP JUMPDEST PUSH2 0x4678 PUSH1 0x20 DUP4 ADD DUP6 PUSH2 0x336C JUMP JUMPDEST PUSH2 0x4685 PUSH1 0x40 DUP4 ADD DUP5 PUSH2 0x336C JUMP JUMPDEST SWAP5 SWAP4 POP POP POP POP JUMP JUMPDEST PUSH1 0x0 PUSH2 0x4698 DUP3 PUSH2 0x36A8 JUMP JUMPDEST SWAP2 POP PUSH32 0x7FFFFFFFFFFFFFFFFFFFFFFFFFFFFFFFFFFFFFFFFFFFFFFFFFFFFFFFFFFFFFFF DUP3 SUB PUSH2 0x46CA JUMPI PUSH2 0x46C9 PUSH2 0x3F52 JUMP JUMPDEST JUMPDEST PUSH1 0x1 DUP3 ADD SWAP1 POP SWAP2 SWAP1 POP JUMP JUMPDEST PUSH1 0x0 PUSH2 0x46E0 DUP3 PUSH2 0x36A8 JUMP JUMPDEST SWAP2 POP PUSH32 0x8000000000000000000000000000000000000000000000000000000000000000 DUP3 SUB PUSH2 0x4712 JUMPI PUSH2 0x4711 PUSH2 0x3F52 JUMP JUMPDEST JUMPDEST PUSH1 0x1 DUP3 SUB SWAP1 POP SWAP2 SWAP1 POP JUMP JUMPDEST PUSH1 0x0 PUSH1 0x40 DUP3 ADD SWAP1 POP PUSH2 0x4732 PUSH1 0x0 DUP4 ADD DUP6 PUSH2 0x3CE3 JUMP JUMPDEST PUSH2 0x473F PUSH1 0x20 DUP4 ADD DUP5 PUSH2 0x3484 JUMP JUMPDEST SWAP4 SWAP3 POP POP POP JUMP INVALID LOG2 PUSH5 0x6970667358 0x22 SLT KECCAK256 MSIZE CREATE2 CALLCODE PUSH4 0x48CB48B7 0x29 SMOD 0xE8 0xA7 0xDC SAR PUSH4 0xAD98F712 PUSH21 0x85ACDFBCD2D5B0D72AFEA04164736F6C6343000818 STOP CALLER "},"methodIdentifiers":{"ADMIN_ROLE()":"75b238fc","DEFAULT_ADMIN_ROLE()":"a217fddf","REPORT_FEE()":"0d636de6","REWARD_AMOUNT()":"cf849442","STAKE_AMOUNT()":"faf5625f","adminResolve(uint256,bool)":"ae7c18df","getReport(uint256)":"4e7f9b19","getReports()":"a3c86daf","getRoleAdmin(bytes32)":"248a9ca3","grantRole(bytes32,address)":"2f2ff15d","hasRole(bytes32,address)":"91d14854","isLocked(address)":"4a4fbeec","locked(address)":"cbf9fe5f","registerCitizen()":"907de2cc","renounceRole(bytes32,address)":"36568abe","reportCount()":"185c6f84","reports(uint256)":"c942adf7","revokeRole(bytes32,address)":"d547741f","setEconomicParams(uint256,uint256,uint256)":"ddac9646","setReportFee(uint256)":"70912d24","setRewardAmount(uint256)":"a8a65a78","setStakeAmount(uint256)":"43808c50","stakes(address)":"16934fc4","submitReport(string,string[],string)":"d043f5ce","supportsInterface(bytes4)":"01ffc9a7","updateReport(uint256,string,string[],string)":"bffe3cce","voteDown(uint256)":"eda72b2e","voteUp(uint256)":"d4ebc5ff"}}}}}