{
  "_format": "hh-sol-artifact-1",
  "contractName": "PublicService",
  "sourceName": "contracts/PublicService.sol",
  "abi": [
    {
      "inputs": [
        {
          "internalType": "address",
          "name": "admin",
          "type": "address"
        }
      ],
      "stateMutability": "nonpayable",
      "type": "constructor"
    },
    {
      "inputs": [],
      "name": "AccessControlBadConfirmation",
      "type": "error"
    },
    {
      "inputs": [
        {
          "internalType": "address",
          "name": "account",
          "type": "address"
        },
        {
          "internalType": "bytes32",
          "name": "neededRole",
          "type": "bytes32"
        }
      ],
      "name": "AccessControlUnauthorizedAccount",
      "type": "error"
    },
    {
      "inputs": [],
      "name": "AlreadyRegistered",
      "type": "error"
    },
    {
      "inputs": [],
      "name": "AlreadyVoted",
      "type": "error"
    },
    {
      "inputs": [],
      "name": "CannotUpdateReport",
      "type": "error"
    },
    {
      "inputs": [],
      "name": "InsufficientStake",
      "type": "error"
    },
    {
      "inputs": [],
      "name": "InvalidVote",
      "type": "error"
    },
    {
      "inputs": [],
      "name": "NotRegistered",
      "type": "error"
    },
    {
      "inputs": [],
      "name": "PaymentFailed",
      "type": "error"
    },
    {
      "inputs": [],
      "name": "ReentrancyGuardReentrantCall",
      "type": "error"
    },
    {
      "inputs": [],
      "name": "ReportNotFound",
      "type": "error"
    },
    {
      "anonymous": false,
      "inputs": [
        {
          "indexed": true,
          "internalType": "address",
          "name": "citizen",
          "type": "address"
        },
        {
          "indexed": false,
          "internalType": "uint256",
          "name": "stake",
          "type": "uint256"
        }
      ],
      "name": "CitizenRegistered",
      "type": "event"
    },
    {
      "anonymous": false,
      "inputs": [
        {
          "indexed": true,
          "internalType": "uint256",
          "name": "reportId",
          "type": "uint256"
        },
        {
          "indexed": false,
          "internalType": "bool",
          "name": "approved",
          "type": "bool"
        },
        {
          "indexed": true,
          "internalType": "address",
          "name": "admin",
          "type": "address"
        }
      ],
      "name": "ReportResolved",
      "type": "event"
    },
    {
      "anonymous": false,
      "inputs": [
        {
          "indexed": true,
          "internalType": "uint256",
          "name": "reportId",
          "type": "uint256"
        },
        {
          "indexed": true,
          "internalType": "address",
          "name": "reporter",
          "type": "address"
        }
      ],
      "name": "ReportSubmitted",
      "type": "event"
    },
    {
      "anonymous": false,
      "inputs": [
        {
          "indexed": true,
          "internalType": "uint256",
          "name": "reportId",
          "type": "uint256"
        }
      ],
      "name": "ReportUpdated",
      "type": "event"
    },
    {
      "anonymous": false,
      "inputs": [
        {
          "indexed": true,
          "internalType": "bytes32",
          "name": "role",
          "type": "bytes32"
        },
        {
          "indexed": true,
          "internalType": "bytes32",
          "name": "previousAdminRole",
          "type": "bytes32"
        },
        {
          "indexed": true,
          "internalType": "bytes32",
          "name": "newAdminRole",
          "type": "bytes32"
        }
      ],
      "name": "RoleAdminChanged",
      "type": "event"
    },
    {
      "anonymous": false,
      "inputs": [
        {
          "indexed": true,
          "internalType": "bytes32",
          "name": "role",
          "type": "bytes32"
        },
        {
          "indexed": true,
          "internalType": "address",
          "name": "account",
          "type": "address"
        },
        {
          "indexed": true,
          "internalType": "address",
          "name": "sender",
          "type": "address"
        }
      ],
      "name": "RoleGranted",
      "type": "event"
    },
    {
      "anonymous": false,
      "inputs": [
        {
          "indexed": true,
          "internalType": "bytes32",
          "name": "role",
          "type": "bytes32"
        },
        {
          "indexed": true,
          "internalType": "address",
          "name": "account",
          "type": "address"
        },
        {
          "indexed": true,
          "internalType": "address",
          "name": "sender",
          "type": "address"
        }
      ],
      "name": "RoleRevoked",
      "type": "event"
    },
    {
      "anonymous": false,
      "inputs": [
        {
          "indexed": true,
          "internalType": "address",
          "name": "citizen",
          "type": "address"
        },
        {
          "indexed": false,
          "internalType": "uint256",
          "name": "newStake",
          "type": "uint256"
        },
        {
          "indexed": false,
          "internalType": "string",
          "name": "reason",
          "type": "string"
        }
      ],
      "name": "StakeUpdated",
      "type": "event"
    },
    {
      "anonymous": false,
      "inputs": [
        {
          "indexed": true,
          "internalType": "uint256",
          "name": "reportId",
          "type": "uint256"
        },
        {
          "indexed": true,
          "internalType": "address",
          "name": "voter",
          "type": "address"
        },
        {
          "indexed": false,
          "internalType": "bool",
          "name": "isUpVote",
          "type": "bool"
        }
      ],
      "name": "Voted",
      "type": "event"
    },
    {
      "inputs": [],
      "name": "ADMIN_ROLE",
      "outputs": [
        {
          "internalType": "bytes32",
          "name": "",
          "type": "bytes32"
        }
      ],
      "stateMutability": "view",
      "type": "function"
    },
    {
      "inputs": [],
      "name": "DEFAULT_ADMIN_ROLE",
      "outputs": [
        {
          "internalType": "bytes32",
          "name": "",
          "type": "bytes32"
        }
      ],
      "stateMutability": "view",
      "type": "function"
    },
    {
      "inputs": [],
      "name": "REPORT_FEE",
      "outputs": [
        {
          "internalType": "uint256",
          "name": "",
          "type": "uint256"
        }
      ],
      "stateMutability": "view",
      "type": "function"
    },
    {
      "inputs": [],
      "name": "REWARD_AMOUNT",
      "outputs": [
        {
          "internalType": "uint256",
          "name": "",
          "type": "uint256"
        }
      ],
      "stateMutability": "view",
      "type": "function"
    },
    {
      "inputs": [],
      "name": "STAKE_AMOUNT",
      "outputs": [
        {
          "internalType": "uint256",
          "name": "",
          "type": "uint256"
        }
      ],
      "stateMutability": "view",
      "type": "function"
    },
    {
      "inputs": [
        {
          "internalType": "uint256",
          "name": "reportId",
          "type": "uint256"
        },
        {
          "internalType": "bool",
          "name": "approve",
          "type": "bool"
        }
      ],
      "name": "adminResolve",
      "outputs": [],
      "stateMutability": "nonpayable",
      "type": "function"
    },
    {
      "inputs": [
        {
          "internalType": "uint256",
          "name": "reportId",
          "type": "uint256"
        }
      ],
      "name": "getDownVoters",
      "outputs": [
        {
          "internalType": "address[]",
          "name": "",
          "type": "address[]"
        }
      ],
      "stateMutability": "view",
      "type": "function"
    },
    {
      "inputs": [
        {
          "internalType": "uint256",
          "name": "reportId",
          "type": "uint256"
        }
      ],
      "name": "getReport",
      "outputs": [
        {
          "components": [
            {
              "internalType": "address",
              "name": "reporter",
              "type": "address"
            },
            {
              "internalType": "string",
              "name": "contentHash",
              "type": "string"
            },
            {
              "internalType": "string[]",
              "name": "imageCIDs",
              "type": "string[]"
            },
            {
              "internalType": "string",
              "name": "location",
              "type": "string"
            },
            {
              "internalType": "int256",
              "name": "score",
              "type": "int256"
            },
            {
              "internalType": "enum PublicService.Status",
              "name": "status",
              "type": "uint8"
            },
            {
              "internalType": "uint256",
              "name": "timestamp",
              "type": "uint256"
            }
          ],
          "internalType": "struct PublicService.Report",
          "name": "",
          "type": "tuple"
        }
      ],
      "stateMutability": "view",
      "type": "function"
    },
    {
      "inputs": [
        {
          "internalType": "bytes32",
          "name": "role",
          "type": "bytes32"
        }
      ],
      "name": "getRoleAdmin",
      "outputs": [
        {
          "internalType": "bytes32",
          "name": "",
          "type": "bytes32"
        }
      ],
      "stateMutability": "view",
      "type": "function"
    },
    {
      "inputs": [
        {
          "internalType": "uint256",
          "name": "reportId",
          "type": "uint256"
        }
      ],
      "name": "getUpVoters",
      "outputs": [
        {
          "internalType": "address[]",
          "name": "",
          "type": "address[]"
        }
      ],
      "stateMutability": "view",
      "type": "function"
    },
    {
      "inputs": [
        {
          "internalType": "bytes32",
          "name": "role",
          "type": "bytes32"
        },
        {
          "internalType": "address",
          "name": "account",
          "type": "address"
        }
      ],
      "name": "grantRole",
      "outputs": [],
      "stateMutability": "nonpayable",
      "type": "function"
    },
    {
      "inputs": [
        {
          "internalType": "bytes32",
          "name": "role",
          "type": "bytes32"
        },
        {
          "internalType": "address",
          "name": "account",
          "type": "address"
        }
      ],
      "name": "hasRole",
      "outputs": [
        {
          "internalType": "bool",
          "name": "",
          "type": "bool"
        }
      ],
      "stateMutability": "view",
      "type": "function"
    },
    {
      "inputs": [
        {
          "internalType": "uint256",
          "name": "reportId",
          "type": "uint256"
        },
        {
          "internalType": "address",
          "name": "voter",
          "type": "address"
        }
      ],
      "name": "hasVoted",
      "outputs": [
        {
          "internalType": "bool",
          "name": "",
          "type": "bool"
        }
      ],
      "stateMutability": "view",
      "type": "function"
    },
    {
      "inputs": [],
      "name": "registerCitizen",
      "outputs": [],
      "stateMutability": "payable",
      "type": "function"
    },
    {
      "inputs": [
        {
          "internalType": "bytes32",
          "name": "role",
          "type": "bytes32"
        },
        {
          "internalType": "address",
          "name": "callerConfirmation",
          "type": "address"
        }
      ],
      "name": "renounceRole",
      "outputs": [],
      "stateMutability": "nonpayable",
      "type": "function"
    },
    {
      "inputs": [],
      "name": "reportCount",
      "outputs": [
        {
          "internalType": "uint256",
          "name": "",
          "type": "uint256"
        }
      ],
      "stateMutability": "view",
      "type": "function"
    },
    {
      "inputs": [
        {
          "internalType": "uint256",
          "name": "",
          "type": "uint256"
        }
      ],
      "name": "reports",
      "outputs": [
        {
          "internalType": "address",
          "name": "reporter",
          "type": "address"
        },
        {
          "internalType": "string",
          "name": "contentHash",
          "type": "string"
        },
        {
          "internalType": "string",
          "name": "location",
          "type": "string"
        },
        {
          "internalType": "int256",
          "name": "score",
          "type": "int256"
        },
        {
          "internalType": "enum PublicService.Status",
          "name": "status",
          "type": "uint8"
        },
        {
          "internalType": "uint256",
          "name": "timestamp",
          "type": "uint256"
        }
      ],
      "stateMutability": "view",
      "type": "function"
    },
    {
      "inputs": [
        {
          "internalType": "bytes32",
          "name": "role",
          "type": "bytes32"
        },
        {
          "internalType": "address",
          "name": "account",
          "type": "address"
        }
      ],
      "name": "revokeRole",
      "outputs": [],
      "stateMutability": "nonpayable",
      "type": "function"
    },
    {
      "inputs": [
        {
          "internalType": "address",
          "name": "",
          "type": "address"
        }
      ],
      "name": "stakes",
      "outputs": [
        {
          "internalType": "uint256",
          "name": "",
          "type": "uint256"
        }
      ],
      "stateMutability": "view",
      "type": "function"
    },
    {
      "inputs": [
        {
          "internalType": "string",
          "name": "contentHash",
          "type": "string"
        },
        {
          "internalType": "string[]",
          "name": "imageCIDs",
          "type": "string[]"
        },
        {
          "internalType": "string",
          "name": "location",
          "type": "string"
        }
      ],
      "name": "submitReport",
      "outputs": [],
      "stateMutability": "payable",
      "type": "function"
    },
    {
      "inputs": [
        {
          "internalType": "bytes4",
          "name": "interfaceId",
          "type": "bytes4"
        }
      ],
      "name": "supportsInterface",
      "outputs": [
        {
          "internalType": "bool",
          "name": "",
          "type": "bool"
        }
      ],
      "stateMutability": "view",
      "type": "function"
    },
    {
      "inputs": [
        {
          "internalType": "uint256",
          "name": "reportId",
          "type": "uint256"
        },
        {
          "internalType": "string",
          "name": "newContentHash",
          "type": "string"
        },
        {
          "internalType": "string[]",
          "name": "newImageCIDs",
          "type": "string[]"
        },
        {
          "internalType": "string",
          "name": "newLocation",
          "type": "string"
        }
      ],
      "name": "updateReport",
      "outputs": [],
      "stateMutability": "nonpayable",
      "type": "function"
    },
    {
      "inputs": [
        {
          "internalType": "uint256",
          "name": "reportId",
          "type": "uint256"
        }
      ],
      "name": "voteDown",
      "outputs": [],
      "stateMutability": "nonpayable",
      "type": "function"
    },
    {
      "inputs": [
        {
          "internalType": "uint256",
          "name": "reportId",
          "type": "uint256"
        }
      ],
      "name": "voteUp",
      "outputs": [],
      "stateMutability": "nonpayable",
      "type": "function"
    }
  ],
  "bytecode": "0x60806040523480156200001157600080fd5b5060405162003d9f38038062003d9f8339818101604052810190620000379190620002ae565b6001620000596200004d6200009a60201b60201c565b620000c560201b60201c565b60000181905550620000927fa49807205ce4d355092ef5a8a18f56e8913cf4a201fbe287825b095693c2177582620000cf60201b60201c565b5050620002e0565b60007f9b779b17422d0df92223018b32b4d1fa46e071723d6817e2486d003becc55f0060001b905090565b6000819050919050565b6000620000e38383620001d260201b60201c565b620001c757600160008085815260200190815260200160002060000160008473ffffffffffffffffffffffffffffffffffffffff1673ffffffffffffffffffffffffffffffffffffffff16815260200190815260200160002060006101000a81548160ff021916908315150217905550620001636200023c60201b60201c565b73ffffffffffffffffffffffffffffffffffffffff168273ffffffffffffffffffffffffffffffffffffffff16847f2f8788117e7eff1d82e926ec794901d17c78024a50270940304540a733656f0d60405160405180910390a460019050620001cc565b600090505b92915050565b600080600084815260200190815260200160002060000160008373ffffffffffffffffffffffffffffffffffffffff1673ffffffffffffffffffffffffffffffffffffffff16815260200190815260200160002060009054906101000a900460ff16905092915050565b600033905090565b600080fd5b600073ffffffffffffffffffffffffffffffffffffffff82169050919050565b6000620002768262000249565b9050919050565b620002888162000269565b81146200029457600080fd5b50565b600081519050620002a8816200027d565b92915050565b600060208284031215620002c757620002c662000244565b5b6000620002d78482850162000297565b91505092915050565b613aaf80620002f06000396000f3fe60806040526004361061014b5760003560e01c806391d14854116100b6578063cf8494421161006f578063cf849442146104d4578063d043f5ce146104ff578063d4ebc5ff1461051b578063d547741f14610544578063eda72b2e1461056d578063faf5625f146105965761014b565b806391d148541461039b578063a217fddf146103d8578063a7b0a2dc14610403578063ae7c18df14610440578063bffe3cce14610469578063c942adf7146104925761014b565b80632f2ff15d116101085780632f2ff15d1461029a57806336568abe146102c357806343859632146102ec5780634e7f9b191461032957806375b238fc14610366578063907de2cc146103915761014b565b806301ffc9a7146101505780630d636de61461018d57806314374080146101b857806316934fc4146101f5578063185c6f8414610232578063248a9ca31461025d575b600080fd5b34801561015c57600080fd5b5061017760048036038101906101729190612762565b6105c1565b60405161018491906127aa565b60405180910390f35b34801561019957600080fd5b506101a26105d3565b6040516101af91906127de565b60405180910390f35b3480156101c457600080fd5b506101df60048036038101906101da9190612825565b6105de565b6040516101ec9190612942565b60405180910390f35b34801561020157600080fd5b5061021c60048036038101906102179190612990565b61067f565b60405161022991906127de565b60405180910390f35b34801561023e57600080fd5b50610247610697565b60405161025491906127de565b60405180910390f35b34801561026957600080fd5b50610284600480360381019061027f91906129f3565b61069d565b6040516102919190612a2f565b60405180910390f35b3480156102a657600080fd5b506102c160048036038101906102bc9190612a4a565b6106bc565b005b3480156102cf57600080fd5b506102ea60048036038101906102e59190612a4a565b6106de565b005b3480156102f857600080fd5b50610313600480360381019061030e9190612a8a565b610759565b60405161032091906127aa565b60405180910390f35b34801561033557600080fd5b50610350600480360381019061034b9190612825565b6107c1565b60405161035d9190612d65565b60405180910390f35b34801561037257600080fd5b5061037b610a90565b6040516103889190612a2f565b60405180910390f35b610399610ab4565b005b3480156103a757600080fd5b506103c260048036038101906103bd9190612a4a565b610c03565b6040516103cf91906127aa565b60405180910390f35b3480156103e457600080fd5b506103ed610c6d565b6040516103fa9190612a2f565b60405180910390f35b34801561040f57600080fd5b5061042a60048036038101906104259190612825565b610c74565b6040516104379190612942565b60405180910390f35b34801561044c57600080fd5b5061046760048036038101906104629190612db3565b610d15565b005b34801561047557600080fd5b50610490600480360381019061048b919061300e565b61185e565b005b34801561049e57600080fd5b506104b960048036038101906104b49190612825565b611a30565b6040516104cb96959493929190613140565b60405180910390f35b3480156104e057600080fd5b506104e9611ba9565b6040516104f691906127de565b60405180910390f35b610519600480360381019061051491906131af565b611bb5565b005b34801561052757600080fd5b50610542600480360381019061053d9190612825565b611db9565b005b34801561055057600080fd5b5061056b60048036038101906105669190612a4a565b611dc7565b005b34801561057957600080fd5b50610594600480360381019061058f9190612825565b611de9565b005b3480156105a257600080fd5b506105ab611df7565b6040516105b891906127de565b60405180910390f35b60006105cc82611e03565b9050919050565b662386f26fc1000081565b60606006600083815260200190815260200160002080548060200260200160405190810160405280929190818152602001828054801561067357602002820191906000526020600020905b8160009054906101000a900473ffffffffffffffffffffffffffffffffffffffff1673ffffffffffffffffffffffffffffffffffffffff1681526020019060010190808311610629575b50505050509050919050565b60016020528060005260406000206000915090505481565b60035481565b6000806000838152602001908152602001600020600101549050919050565b6106c58261069d565b6106ce81611e7d565b6106d88383611e91565b50505050565b6106e6611f82565b73ffffffffffffffffffffffffffffffffffffffff168173ffffffffffffffffffffffffffffffffffffffff161461074a576040517f6697b23200000000000000000000000000000000000000000000000000000000815260040160405180910390fd5b6107548282611f8a565b505050565b60006004600084815260200190815260200160002060008373ffffffffffffffffffffffffffffffffffffffff1673ffffffffffffffffffffffffffffffffffffffff16815260200190815260200160002060009054906101000a900460ff16905092915050565b6107c96125b7565b600260008381526020019081526020016000206040518060e00160405290816000820160009054906101000a900473ffffffffffffffffffffffffffffffffffffffff1673ffffffffffffffffffffffffffffffffffffffff1673ffffffffffffffffffffffffffffffffffffffff16815260200160018201805461084d90613285565b80601f016020809104026020016040519081016040528092919081815260200182805461087990613285565b80156108c65780601f1061089b576101008083540402835291602001916108c6565b820191906000526020600020905b8154815290600101906020018083116108a957829003601f168201915b5050505050815260200160028201805480602002602001604051908101604052809291908181526020016000905b828210156109a057838290600052602060002001805461091390613285565b80601f016020809104026020016040519081016040528092919081815260200182805461093f90613285565b801561098c5780601f106109615761010080835404028352916020019161098c565b820191906000526020600020905b81548152906001019060200180831161096f57829003601f168201915b5050505050815260200190600101906108f4565b5050505081526020016003820180546109b890613285565b80601f01602080910402602001604051908101604052809291908181526020018280546109e490613285565b8015610a315780601f10610a0657610100808354040283529160200191610a31565b820191906000526020600020905b815481529060010190602001808311610a1457829003601f168201915b50505050508152602001600482015481526020016005820160009054906101000a900460ff166002811115610a6957610a68612c35565b5b6002811115610a7b57610a7a612c35565b5b81526020016006820154815250509050919050565b7fa49807205ce4d355092ef5a8a18f56e8913cf4a201fbe287825b095693c2177581565b6000600160003373ffffffffffffffffffffffffffffffffffffffff1673ffffffffffffffffffffffffffffffffffffffff168152602001908152602001600020541115610b2e576040517f3a81d6fc00000000000000000000000000000000000000000000000000000000815260040160405180910390fd5b670de0b6b3a76400003414610b6f576040517ff1bc94d200000000000000000000000000000000000000000000000000000000815260040160405180910390fd5b34600160003373ffffffffffffffffffffffffffffffffffffffff1673ffffffffffffffffffffffffffffffffffffffff168152602001908152602001600020819055503373ffffffffffffffffffffffffffffffffffffffff167f9f4e1c382cdd9fb482444097babab40742f8a3624c0ab69305c3c396f26794b834604051610bf991906127de565b60405180910390a2565b600080600084815260200190815260200160002060000160008373ffffffffffffffffffffffffffffffffffffffff1673ffffffffffffffffffffffffffffffffffffffff16815260200190815260200160002060009054906101000a900460ff16905092915050565b6000801b81565b606060056000838152602001908152602001600020805480602002602001604051908101604052809291908181526020018280548015610d0957602002820191906000526020600020905b8160009054906101000a900473ffffffffffffffffffffffffffffffffffffffff1673ffffffffffffffffffffffffffffffffffffffff1681526020019060010190808311610cbf575b50505050509050919050565b7fa49807205ce4d355092ef5a8a18f56e8913cf4a201fbe287825b095693c21775610d3f81611e7d565b610d4761207c565b600060026000858152602001908152602001600020905060006002811115610d7257610d71612c35565b5b8160050160009054906101000a900460ff166002811115610d9657610d95612c35565b5b14610dcd576040517f986b6fa200000000000000000000000000000000000000000000000000000000815260040160405180910390fd5b82610dd9576002610ddc565b60015b8160050160006101000a81548160ff02191690836002811115610e0257610e01612c35565b5b0217905550600060056000868152602001908152602001600020805480602002602001604051908101604052809291908181526020018280548015610e9c57602002820191906000526020600020905b8160009054906101000a900473ffffffffffffffffffffffffffffffffffffffff1673ffffffffffffffffffffffffffffffffffffffff1681526020019060010190808311610e52575b50505050509050600060066000878152602001908152602001600020805480602002602001604051908101604052809291908181526020018280548015610f3857602002820191906000526020600020905b8160009054906101000a900473ffffffffffffffffffffffffffffffffffffffff1673ffffffffffffffffffffffffffffffffffffffff1681526020019060010190808311610eee575b5050505050905084156113595767016345785d8a0000662386f26fc10000610f6091906132e5565b600160008560000160009054906101000a900473ffffffffffffffffffffffffffffffffffffffff1673ffffffffffffffffffffffffffffffffffffffff1673ffffffffffffffffffffffffffffffffffffffff1681526020019081526020016000206000828254610fd291906132e5565b925050819055508260000160009054906101000a900473ffffffffffffffffffffffffffffffffffffffff1673ffffffffffffffffffffffffffffffffffffffff167f9a4e107c217fba3d242f257fd523c107ea3a28c2a71e8c7b6cf9a2893ecbb98d600160008660000160009054906101000a900473ffffffffffffffffffffffffffffffffffffffff1673ffffffffffffffffffffffffffffffffffffffff1673ffffffffffffffffffffffffffffffffffffffff168152602001908152602001600020546040516110a69190613365565b60405180910390a260005b82518110156112005767016345785d8a0000600160008584815181106110da576110d9613393565b5b602002602001015173ffffffffffffffffffffffffffffffffffffffff1673ffffffffffffffffffffffffffffffffffffffff168152602001908152602001600020600082825461112b91906132e5565b9250508190555082818151811061114557611144613393565b5b602002602001015173ffffffffffffffffffffffffffffffffffffffff167f9a4e107c217fba3d242f257fd523c107ea3a28c2a71e8c7b6cf9a2893ecbb98d6001600086858151811061119b5761119a613393565b5b602002602001015173ffffffffffffffffffffffffffffffffffffffff1673ffffffffffffffffffffffffffffffffffffffff168152602001908152602001600020546040516111eb919061340e565b60405180910390a280806001019150506110b1565b5060005b81518110156113535767016345785d8a00006001600084848151811061122d5761122c613393565b5b602002602001015173ffffffffffffffffffffffffffffffffffffffff1673ffffffffffffffffffffffffffffffffffffffff168152602001908152602001600020600082825461127e919061343c565b9250508190555081818151811061129857611297613393565b5b602002602001015173ffffffffffffffffffffffffffffffffffffffff167f9a4e107c217fba3d242f257fd523c107ea3a28c2a71e8c7b6cf9a2893ecbb98d600160008585815181106112ee576112ed613393565b5b602002602001015173ffffffffffffffffffffffffffffffffffffffff1673ffffffffffffffffffffffffffffffffffffffff1681526020019081526020016000205460405161133e91906134bc565b60405180910390a28080600101915050611204565b50611798565b67016345785d8a0000662386f26fc1000061137491906132e5565b600160008560000160009054906101000a900473ffffffffffffffffffffffffffffffffffffffff1673ffffffffffffffffffffffffffffffffffffffff1673ffffffffffffffffffffffffffffffffffffffff16815260200190815260200160002060008282546113e6919061343c565b925050819055508260000160009054906101000a900473ffffffffffffffffffffffffffffffffffffffff1673ffffffffffffffffffffffffffffffffffffffff167f9a4e107c217fba3d242f257fd523c107ea3a28c2a71e8c7b6cf9a2893ecbb98d600160008660000160009054906101000a900473ffffffffffffffffffffffffffffffffffffffff1673ffffffffffffffffffffffffffffffffffffffff1673ffffffffffffffffffffffffffffffffffffffff168152602001908152602001600020546040516114ba9190613536565b60405180910390a260005b82518110156116145767016345785d8a0000600160008584815181106114ee576114ed613393565b5b602002602001015173ffffffffffffffffffffffffffffffffffffffff1673ffffffffffffffffffffffffffffffffffffffff168152602001908152602001600020600082825461153f919061343c565b9250508190555082818151811061155957611558613393565b5b602002602001015173ffffffffffffffffffffffffffffffffffffffff167f9a4e107c217fba3d242f257fd523c107ea3a28c2a71e8c7b6cf9a2893ecbb98d600160008685815181106115af576115ae613393565b5b602002602001015173ffffffffffffffffffffffffffffffffffffffff1673ffffffffffffffffffffffffffffffffffffffff168152602001908152602001600020546040516115ff91906135b0565b60405180910390a280806001019150506114c5565b5060008151111561179757600067016345785d8a0000835161163691906135de565b90506000825182611647919061364f565b905060005b835181101561179357816001600086848151811061166d5761166c613393565b5b602002602001015173ffffffffffffffffffffffffffffffffffffffff1673ffffffffffffffffffffffffffffffffffffffff16815260200190815260200160002060008282546116be91906132e5565b925050819055508381815181106116d8576116d7613393565b5b602002602001015173ffffffffffffffffffffffffffffffffffffffff167f9a4e107c217fba3d242f257fd523c107ea3a28c2a71e8c7b6cf9a2893ecbb98d6001600087858151811061172e5761172d613393565b5b602002602001015173ffffffffffffffffffffffffffffffffffffffff1673ffffffffffffffffffffffffffffffffffffffff1681526020019081526020016000205460405161177e91906136cc565b60405180910390a2808060010191505061164c565b5050505b5b6000600160008560000160009054906101000a900473ffffffffffffffffffffffffffffffffffffffff1673ffffffffffffffffffffffffffffffffffffffff1673ffffffffffffffffffffffffffffffffffffffff16815260200190815260200160002050503373ffffffffffffffffffffffffffffffffffffffff16867f73a083c80d929db87db12fef6279f69cc0ef1cff5eeb56af2423987136de754e8760405161184691906127aa565b60405180910390a350505061185961209f565b505050565b60006002600086815260200190815260200160002090503373ffffffffffffffffffffffffffffffffffffffff168160000160009054906101000a900473ffffffffffffffffffffffffffffffffffffffff1673ffffffffffffffffffffffffffffffffffffffff16146118fe576040517f98b54f9f00000000000000000000000000000000000000000000000000000000815260040160405180910390fd5b6000600281111561191257611911612c35565b5b8160050160009054906101000a900460ff16600281111561193657611935612c35565b5b1461196d576040517f986b6fa200000000000000000000000000000000000000000000000000000000815260040160405180910390fd5b8381600101908161197e91906138a6565b508181600301908161199091906138a6565b5060005b83518110156119fb57816002018482815181106119b4576119b3613393565b5b60200260200101519080600181540180825580915050600190039060005260206000200160009091909190915090816119ed91906138a6565b508080600101915050611994565b50847f76e478f351e69959848b5018dcec20960fea6a512e8907cf29958307da6256b760405160405180910390a25050505050565b60026020528060005260406000206000915090508060000160009054906101000a900473ffffffffffffffffffffffffffffffffffffffff1690806001018054611a7990613285565b80601f0160208091040260200160405190810160405280929190818152602001828054611aa590613285565b8015611af25780601f10611ac757610100808354040283529160200191611af2565b820191906000526020600020905b815481529060010190602001808311611ad557829003601f168201915b505050505090806003018054611b0790613285565b80601f0160208091040260200160405190810160405280929190818152602001828054611b3390613285565b8015611b805780601f10611b5557610100808354040283529160200191611b80565b820191906000526020600020905b815481529060010190602001808311611b6357829003601f168201915b5050505050908060040154908060050160009054906101000a900460ff16908060060154905086565b67016345785d8a000081565b611bbd61207c565b670de0b6b3a7640000600160003373ffffffffffffffffffffffffffffffffffffffff1673ffffffffffffffffffffffffffffffffffffffff168152602001908152602001600020541015611c3e576040517faba4733900000000000000000000000000000000000000000000000000000000815260040160405180910390fd5b662386f26fc100003414611c7e576040517ff1bc94d200000000000000000000000000000000000000000000000000000000815260040160405180910390fd5b600060036000815480929190611c9390613978565b9190505590506000600260008381526020019081526020016000209050338160000160006101000a81548173ffffffffffffffffffffffffffffffffffffffff021916908373ffffffffffffffffffffffffffffffffffffffff16021790555084816001019081611d0491906138a6565b5083816002019080519060200190611d1d92919061261c565b5082816003019081611d2f91906138a6565b5060008160050160006101000a81548160ff02191690836002811115611d5857611d57612c35565b5b02179055504281600601819055503373ffffffffffffffffffffffffffffffffffffffff16827ffe73cf9b793e65d9d707a5bfe3063e5f3a58eb52b27a356478c30fc83f5200f260405160405180910390a35050611db461209f565b505050565b611dc48160016120ba565b50565b611dd08261069d565b611dd981611e7d565b611de38383611f8a565b50505050565b611df48160006120ba565b50565b670de0b6b3a764000081565b60007f7965db0b000000000000000000000000000000000000000000000000000000007bffffffffffffffffffffffffffffffffffffffffffffffffffffffff1916827bffffffffffffffffffffffffffffffffffffffffffffffffffffffff19161480611e765750611e7582612468565b5b9050919050565b611e8e81611e89611f82565b6124d2565b50565b6000611e9d8383610c03565b611f7757600160008085815260200190815260200160002060000160008473ffffffffffffffffffffffffffffffffffffffff1673ffffffffffffffffffffffffffffffffffffffff16815260200190815260200160002060006101000a81548160ff021916908315150217905550611f14611f82565b73ffffffffffffffffffffffffffffffffffffffff168273ffffffffffffffffffffffffffffffffffffffff16847f2f8788117e7eff1d82e926ec794901d17c78024a50270940304540a733656f0d60405160405180910390a460019050611f7c565b600090505b92915050565b600033905090565b6000611f968383610c03565b1561207157600080600085815260200190815260200160002060000160008473ffffffffffffffffffffffffffffffffffffffff1673ffffffffffffffffffffffffffffffffffffffff16815260200190815260200160002060006101000a81548160ff02191690831515021790555061200e611f82565b73ffffffffffffffffffffffffffffffffffffffff168273ffffffffffffffffffffffffffffffffffffffff16847ff6391f5c32d9c69d2a47ea670b442974b53935d1edc7fd64eb21e047a839171b60405160405180910390a460019050612076565b600090505b92915050565b612084612523565b6002612096612091612564565b61258f565b60000181905550565b60016120b16120ac612564565b61258f565b60000181905550565b670de0b6b3a7640000600160003373ffffffffffffffffffffffffffffffffffffffff1673ffffffffffffffffffffffffffffffffffffffff16815260200190815260200160002054101561213b576040517faba4733900000000000000000000000000000000000000000000000000000000815260040160405180910390fd5b600073ffffffffffffffffffffffffffffffffffffffff166002600084815260200190815260200160002060000160009054906101000a900473ffffffffffffffffffffffffffffffffffffffff1673ffffffffffffffffffffffffffffffffffffffff16036121d7576040517f98b54f9f00000000000000000000000000000000000000000000000000000000815260040160405180910390fd5b6004600083815260200190815260200160002060003373ffffffffffffffffffffffffffffffffffffffff1673ffffffffffffffffffffffffffffffffffffffff16815260200190815260200160002060009054906101000a900460ff161561226c576040517f7c9a1cf900000000000000000000000000000000000000000000000000000000815260040160405180910390fd5b60016004600084815260200190815260200160002060003373ffffffffffffffffffffffffffffffffffffffff1673ffffffffffffffffffffffffffffffffffffffff16815260200190815260200160002060006101000a81548160ff0219169083151502179055506000600260008481526020019081526020016000209050811561238557806004016000815480929190612307906139c0565b919050555060056000848152602001908152602001600020339080600181540180825580915050600190039060005260206000200160009091909190916101000a81548173ffffffffffffffffffffffffffffffffffffffff021916908373ffffffffffffffffffffffffffffffffffffffff160217905550612414565b80600401600081548092919061239a90613a08565b919050555060066000848152602001908152602001600020339080600181540180825580915050600190039060005260206000200160009091909190916101000a81548173ffffffffffffffffffffffffffffffffffffffff021916908373ffffffffffffffffffffffffffffffffffffffff1602179055505b3373ffffffffffffffffffffffffffffffffffffffff16837ff2913dbe661ee2acc4a046d8fbcdc792373bda34c41c6086484b5345e5785e5f8460405161245b91906127aa565b60405180910390a3505050565b60007f01ffc9a7000000000000000000000000000000000000000000000000000000007bffffffffffffffffffffffffffffffffffffffffffffffffffffffff1916827bffffffffffffffffffffffffffffffffffffffffffffffffffffffff1916149050919050565b6124dc8282610c03565b61251f5780826040517fe2517d3f000000000000000000000000000000000000000000000000000000008152600401612516929190613a50565b60405180910390fd5b5050565b61252b612599565b15612562576040517f3ee5aeb500000000000000000000000000000000000000000000000000000000815260040160405180910390fd5b565b60007f9b779b17422d0df92223018b32b4d1fa46e071723d6817e2486d003becc55f0060001b905090565b6000819050919050565b600060026125ad6125a8612564565b61258f565b6000015414905090565b6040518060e00160405280600073ffffffffffffffffffffffffffffffffffffffff168152602001606081526020016060815260200160608152602001600081526020016000600281111561260f5761260e612c35565b5b8152602001600081525090565b828054828255906000526020600020908101928215612664579160200282015b8281111561266357825182908161265391906138a6565b509160200191906001019061263c565b5b5090506126719190612675565b5090565b5b80821115612695576000818161268c9190612699565b50600101612676565b5090565b5080546126a590613285565b6000825580601f106126b757506126d6565b601f0160209004906000526020600020908101906126d591906126d9565b5b50565b5b808211156126f25760008160009055506001016126da565b5090565b6000604051905090565b600080fd5b600080fd5b60007fffffffff0000000000000000000000000000000000000000000000000000000082169050919050565b61273f8161270a565b811461274a57600080fd5b50565b60008135905061275c81612736565b92915050565b60006020828403121561277857612777612700565b5b60006127868482850161274d565b91505092915050565b60008115159050919050565b6127a48161278f565b82525050565b60006020820190506127bf600083018461279b565b92915050565b6000819050919050565b6127d8816127c5565b82525050565b60006020820190506127f360008301846127cf565b92915050565b612802816127c5565b811461280d57600080fd5b50565b60008135905061281f816127f9565b92915050565b60006020828403121561283b5761283a612700565b5b600061284984828501612810565b91505092915050565b600081519050919050565b600082825260208201905092915050565b6000819050602082019050919050565b600073ffffffffffffffffffffffffffffffffffffffff82169050919050565b60006128a98261287e565b9050919050565b6128b98161289e565b82525050565b60006128cb83836128b0565b60208301905092915050565b6000602082019050919050565b60006128ef82612852565b6128f9818561285d565b93506129048361286e565b8060005b8381101561293557815161291c88826128bf565b9750612927836128d7565b925050600181019050612908565b5085935050505092915050565b6000602082019050818103600083015261295c81846128e4565b905092915050565b61296d8161289e565b811461297857600080fd5b50565b60008135905061298a81612964565b92915050565b6000602082840312156129a6576129a5612700565b5b60006129b48482850161297b565b91505092915050565b6000819050919050565b6129d0816129bd565b81146129db57600080fd5b50565b6000813590506129ed816129c7565b92915050565b600060208284031215612a0957612a08612700565b5b6000612a17848285016129de565b91505092915050565b612a29816129bd565b82525050565b6000602082019050612a446000830184612a20565b92915050565b60008060408385031215612a6157612a60612700565b5b6000612a6f858286016129de565b9250506020612a808582860161297b565b9150509250929050565b60008060408385031215612aa157612aa0612700565b5b6000612aaf85828601612810565b9250506020612ac08582860161297b565b9150509250929050565b600081519050919050565b600082825260208201905092915050565b60005b83811015612b04578082015181840152602081019050612ae9565b60008484015250505050565b6000601f19601f8301169050919050565b6000612b2c82612aca565b612b368185612ad5565b9350612b46818560208601612ae6565b612b4f81612b10565b840191505092915050565b600081519050919050565b600082825260208201905092915050565b6000819050602082019050919050565b6000612b928383612b21565b905092915050565b6000602082019050919050565b6000612bb282612b5a565b612bbc8185612b65565b935083602082028501612bce85612b76565b8060005b85811015612c0a5784840389528151612beb8582612b86565b9450612bf683612b9a565b925060208a01995050600181019050612bd2565b50829750879550505050505092915050565b6000819050919050565b612c2f81612c1c565b82525050565b7f4e487b7100000000000000000000000000000000000000000000000000000000600052602160045260246000fd5b60038110612c7557612c74612c35565b5b50565b6000819050612c8682612c64565b919050565b6000612c9682612c78565b9050919050565b612ca681612c8b565b82525050565b612cb5816127c5565b82525050565b600060e083016000830151612cd360008601826128b0565b5060208301518482036020860152612ceb8282612b21565b91505060408301518482036040860152612d058282612ba7565b91505060608301518482036060860152612d1f8282612b21565b9150506080830151612d346080860182612c26565b5060a0830151612d4760a0860182612c9d565b5060c0830151612d5a60c0860182612cac565b508091505092915050565b60006020820190508181036000830152612d7f8184612cbb565b905092915050565b612d908161278f565b8114612d9b57600080fd5b50565b600081359050612dad81612d87565b92915050565b60008060408385031215612dca57612dc9612700565b5b6000612dd885828601612810565b9250506020612de985828601612d9e565b9150509250929050565b600080fd5b600080fd5b7f4e487b7100000000000000000000000000000000000000000000000000000000600052604160045260246000fd5b612e3582612b10565b810181811067ffffffffffffffff82111715612e5457612e53612dfd565b5b80604052505050565b6000612e676126f6565b9050612e738282612e2c565b919050565b600067ffffffffffffffff821115612e9357612e92612dfd565b5b612e9c82612b10565b9050602081019050919050565b82818337600083830152505050565b6000612ecb612ec684612e78565b612e5d565b905082815260208101848484011115612ee757612ee6612df8565b5b612ef2848285612ea9565b509392505050565b600082601f830112612f0f57612f0e612df3565b5b8135612f1f848260208601612eb8565b91505092915050565b600067ffffffffffffffff821115612f4357612f42612dfd565b5b602082029050602081019050919050565b600080fd5b6000612f6c612f6784612f28565b612e5d565b90508083825260208201905060208402830185811115612f8f57612f8e612f54565b5b835b81811015612fd657803567ffffffffffffffff811115612fb457612fb3612df3565b5b808601612fc18982612efa565b85526020850194505050602081019050612f91565b5050509392505050565b600082601f830112612ff557612ff4612df3565b5b8135613005848260208601612f59565b91505092915050565b6000806000806080858703121561302857613027612700565b5b600061303687828801612810565b945050602085013567ffffffffffffffff81111561305757613056612705565b5b61306387828801612efa565b935050604085013567ffffffffffffffff81111561308457613083612705565b5b61309087828801612fe0565b925050606085013567ffffffffffffffff8111156130b1576130b0612705565b5b6130bd87828801612efa565b91505092959194509250565b6130d28161289e565b82525050565b600082825260208201905092915050565b60006130f482612aca565b6130fe81856130d8565b935061310e818560208601612ae6565b61311781612b10565b840191505092915050565b61312b81612c1c565b82525050565b61313a81612c8b565b82525050565b600060c08201905061315560008301896130c9565b818103602083015261316781886130e9565b9050818103604083015261317b81876130e9565b905061318a6060830186613122565b6131976080830185613131565b6131a460a08301846127cf565b979650505050505050565b6000806000606084860312156131c8576131c7612700565b5b600084013567ffffffffffffffff8111156131e6576131e5612705565b5b6131f286828701612efa565b935050602084013567ffffffffffffffff81111561321357613212612705565b5b61321f86828701612fe0565b925050604084013567ffffffffffffffff8111156132405761323f612705565b5b61324c86828701612efa565b9150509250925092565b7f4e487b7100000000000000000000000000000000000000000000000000000000600052602260045260246000fd5b6000600282049050600182168061329d57607f821691505b6020821081036132b0576132af613256565b5b50919050565b7f4e487b7100000000000000000000000000000000000000000000000000000000600052601160045260246000fd5b60006132f0826127c5565b91506132fb836127c5565b9250828201905080821115613313576133126132b6565b5b92915050565b7f417070726f766564207265706f72742072657761726400000000000000000000600082015250565b600061334f6016836130d8565b915061335a82613319565b602082019050919050565b600060408201905061337a60008301846127cf565b818103602083015261338b81613342565b905092915050565b7f4e487b7100000000000000000000000000000000000000000000000000000000600052603260045260246000fd5b7f436f72726563742075702d766f74652072657761726400000000000000000000600082015250565b60006133f86016836130d8565b9150613403826133c2565b602082019050919050565b600060408201905061342360008301846127cf565b8181036020830152613434816133eb565b905092915050565b6000613447826127c5565b9150613452836127c5565b925082820390508181111561346a576134696132b6565b5b92915050565b7f496e636f727265637420646f776e2d766f74652070656e616c74790000000000600082015250565b60006134a6601b836130d8565b91506134b182613470565b602082019050919050565b60006040820190506134d160008301846127cf565b81810360208301526134e281613499565b905092915050565b7f52656a6563746564207265706f72742070656e616c7479000000000000000000600082015250565b60006135206017836130d8565b915061352b826134ea565b602082019050919050565b600060408201905061354b60008301846127cf565b818103602083015261355c81613513565b905092915050565b7f496e636f72726563742075702d766f74652070656e616c747900000000000000600082015250565b600061359a6019836130d8565b91506135a582613564565b602082019050919050565b60006040820190506135c560008301846127cf565b81810360208301526135d68161358d565b905092915050565b60006135e9826127c5565b91506135f4836127c5565b9250828202613602816127c5565b91508282048414831517613619576136186132b6565b5b5092915050565b7f4e487b7100000000000000000000000000000000000000000000000000000000600052601260045260246000fd5b600061365a826127c5565b9150613665836127c5565b92508261367557613674613620565b5b828204905092915050565b7f436f727265637420646f776e2d766f7465207265776172640000000000000000600082015250565b60006136b66018836130d8565b91506136c182613680565b602082019050919050565b60006040820190506136e160008301846127cf565b81810360208301526136f2816136a9565b905092915050565b60008190508160005260206000209050919050565b60006020601f8301049050919050565b600082821b905092915050565b60006008830261375c7fffffffffffffffffffffffffffffffffffffffffffffffffffffffffffffffff8261371f565b613766868361371f565b95508019841693508086168417925050509392505050565b6000819050919050565b60006137a361379e613799846127c5565b61377e565b6127c5565b9050919050565b6000819050919050565b6137bd83613788565b6137d16137c9826137aa565b84845461372c565b825550505050565b600090565b6137e66137d9565b6137f18184846137b4565b505050565b5b818110156138155761380a6000826137de565b6001810190506137f7565b5050565b601f82111561385a5761382b816136fa565b6138348461370f565b81016020851015613843578190505b61385761384f8561370f565b8301826137f6565b50505b505050565b600082821c905092915050565b600061387d6000198460080261385f565b1980831691505092915050565b6000613896838361386c565b9150826002028217905092915050565b6138af82612aca565b67ffffffffffffffff8111156138c8576138c7612dfd565b5b6138d28254613285565b6138dd828285613819565b600060209050601f83116001811461391057600084156138fe578287015190505b613908858261388a565b865550613970565b601f19841661391e866136fa565b60005b8281101561394657848901518255600182019150602085019450602081019050613921565b86831015613963578489015161395f601f89168261386c565b8355505b6001600288020188555050505b505050505050565b6000613983826127c5565b91507fffffffffffffffffffffffffffffffffffffffffffffffffffffffffffffffff82036139b5576139b46132b6565b5b600182019050919050565b60006139cb82612c1c565b91507f7fffffffffffffffffffffffffffffffffffffffffffffffffffffffffffffff82036139fd576139fc6132b6565b5b600182019050919050565b6000613a1382612c1c565b91507f80000000000000000000000000000000000000000000000000000000000000008203613a4557613a446132b6565b5b600182039050919050565b6000604082019050613a6560008301856130c9565b613a726020830184612a20565b939250505056fea2646970667358221220f7ea4f7f92de6cacd0f61db57e9597c1ca4d2e7f3a913109cdc8a98cbcfd159d64736f6c63430008180033",
  "linkReferences": {},
  "deployedLinkReferences": {}
}