{
  "_format": "hh-sol-artifact-1",
  "contractName": "PublicService",
  "sourceName": "contracts/PublicService.sol",
  "abi": [
    {
      "inputs": [],
      "stateMutability": "payable",
      "type": "constructor"
    },
    {
      "inputs": [],
      "name": "AccessControlBadConfirmation",
      "type": "error"
    },
    {
      "inputs": [
        {
          "internalType": "address",
          "name": "account",
          "type": "address"
        },
        {
          "internalType": "bytes32",
          "name": "neededRole",
          "type": "bytes32"
        }
      ],
      "name": "AccessControlUnauthorizedAccount",
      "type": "error"
    },
    {
      "inputs": [],
      "name": "AlreadyRegistered",
      "type": "error"
    },
    {
      "inputs": [],
      "name": "AlreadyVoted",
      "type": "error"
    },
    {
      "inputs": [],
      "name": "CannotUpdateReport",
      "type": "error"
    },
    {
      "inputs": [],
      "name": "CitizenLockedError",
      "type": "error"
    },
    {
      "inputs": [],
      "name": "InsufficientStake",
      "type": "error"
    },
    {
      "inputs": [],
      "name": "InvalidEconomicParams",
      "type": "error"
    },
    {
      "inputs": [],
      "name": "NotRegistered",
      "type": "error"
    },
    {
      "inputs": [],
      "name": "ReentrancyGuardReentrantCall",
      "type": "error"
    },
    {
      "inputs": [],
      "name": "ReportNotFound",
      "type": "error"
    },
    {
      "inputs": [],
      "name": "TransferFailed",
      "type": "error"
    },
    {
      "anonymous": false,
      "inputs": [
        {
          "indexed": true,
          "internalType": "address",
          "name": "citizen",
          "type": "address"
        }
      ],
      "name": "AccountLocked",
      "type": "event"
    },
    {
      "anonymous": false,
      "inputs": [
        {
          "indexed": true,
          "internalType": "address",
          "name": "citizen",
          "type": "address"
        }
      ],
      "name": "AccountUnlocked",
      "type": "event"
    },
    {
      "anonymous": false,
      "inputs": [
        {
          "indexed": true,
          "internalType": "uint256",
          "name": "reportId",
          "type": "uint256"
        },
        {
          "indexed": true,
          "internalType": "address",
          "name": "admin",
          "type": "address"
        },
        {
          "indexed": false,
          "internalType": "uint256",
          "name": "amount",
          "type": "uint256"
        }
      ],
      "name": "AdminFeePaid",
      "type": "event"
    },
    {
      "anonymous": false,
      "inputs": [
        {
          "indexed": true,
          "internalType": "address",
          "name": "citizen",
          "type": "address"
        },
        {
          "indexed": false,
          "internalType": "uint256",
          "name": "stake",
          "type": "uint256"
        }
      ],
      "name": "CitizenRegistered",
      "type": "event"
    },
    {
      "anonymous": false,
      "inputs": [
        {
          "indexed": false,
          "internalType": "uint256",
          "name": "stakeAmount",
          "type": "uint256"
        },
        {
          "indexed": false,
          "internalType": "uint256",
          "name": "reportFee",
          "type": "uint256"
        },
        {
          "indexed": false,
          "internalType": "uint256",
          "name": "rewardAmount",
          "type": "uint256"
        },
        {
          "indexed": true,
          "internalType": "address",
          "name": "updatedBy",
          "type": "address"
        }
      ],
      "name": "EconomicParamsUpdated",
      "type": "event"
    },
    {
      "anonymous": false,
      "inputs": [
        {
          "indexed": true,
          "internalType": "uint256",
          "name": "reportId",
          "type": "uint256"
        },
        {
          "indexed": true,
          "internalType": "address",
          "name": "citizen",
          "type": "address"
        },
        {
          "indexed": false,
          "internalType": "uint256",
          "name": "amount",
          "type": "uint256"
        },
        {
          "indexed": false,
          "internalType": "string",
          "name": "reason",
          "type": "string"
        },
        {
          "indexed": false,
          "internalType": "uint256",
          "name": "reportPoolBalance",
          "type": "uint256"
        }
      ],
      "name": "PenaltyCollected",
      "type": "event"
    },
    {
      "anonymous": false,
      "inputs": [
        {
          "indexed": true,
          "internalType": "uint256",
          "name": "reportId",
          "type": "uint256"
        },
        {
          "indexed": true,
          "internalType": "address",
          "name": "reporter",
          "type": "address"
        },
        {
          "indexed": false,
          "internalType": "uint256",
          "name": "amount",
          "type": "uint256"
        },
        {
          "indexed": false,
          "internalType": "uint256",
          "name": "reportPoolBalance",
          "type": "uint256"
        }
      ],
      "name": "ReportFeeCollected",
      "type": "event"
    },
    {
      "anonymous": false,
      "inputs": [
        {
          "indexed": true,
          "internalType": "uint256",
          "name": "reportId",
          "type": "uint256"
        },
        {
          "indexed": false,
          "internalType": "bool",
          "name": "approved",
          "type": "bool"
        },
        {
          "indexed": true,
          "internalType": "address",
          "name": "admin",
          "type": "address"
        }
      ],
      "name": "ReportResolved",
      "type": "event"
    },
    {
      "anonymous": false,
      "inputs": [
        {
          "indexed": true,
          "internalType": "uint256",
          "name": "reportId",
          "type": "uint256"
        },
        {
          "indexed": true,
          "internalType": "address",
          "name": "reporter",
          "type": "address"
        }
      ],
      "name": "ReportSubmitted",
      "type": "event"
    },
    {
      "anonymous": false,
      "inputs": [
        {
          "indexed": true,
          "internalType": "uint256",
          "name": "reportId",
          "type": "uint256"
        }
      ],
      "name": "ReportUpdated",
      "type": "event"
    },
    {
      "anonymous": false,
      "inputs": [
        {
          "indexed": true,
          "internalType": "uint256",
          "name": "reportId",
          "type": "uint256"
        },
        {
          "indexed": true,
          "internalType": "address",
          "name": "reporter",
          "type": "address"
        },
        {
          "indexed": false,
          "internalType": "uint256",
          "name": "amount",
          "type": "uint256"
        },
        {
          "indexed": false,
          "internalType": "bool",
          "name": "approved",
          "type": "bool"
        }
      ],
      "name": "ReporterRefunded",
      "type": "event"
    },
    {
      "anonymous": false,
      "inputs": [
        {
          "indexed": true,
          "internalType": "bytes32",
          "name": "role",
          "type": "bytes32"
        },
        {
          "indexed": true,
          "internalType": "bytes32",
          "name": "previousAdminRole",
          "type": "bytes32"
        },
        {
          "indexed": true,
          "internalType": "bytes32",
          "name": "newAdminRole",
          "type": "bytes32"
        }
      ],
      "name": "RoleAdminChanged",
      "type": "event"
    },
    {
      "anonymous": false,
      "inputs": [
        {
          "indexed": true,
          "internalType": "bytes32",
          "name": "role",
          "type": "bytes32"
        },
        {
          "indexed": true,
          "internalType": "address",
          "name": "account",
          "type": "address"
        },
        {
          "indexed": true,
          "internalType": "address",
          "name": "sender",
          "type": "address"
        }
      ],
      "name": "RoleGranted",
      "type": "event"
    },
    {
      "anonymous": false,
      "inputs": [
        {
          "indexed": true,
          "internalType": "bytes32",
          "name": "role",
          "type": "bytes32"
        },
        {
          "indexed": true,
          "internalType": "address",
          "name": "account",
          "type": "address"
        },
        {
          "indexed": true,
          "internalType": "address",
          "name": "sender",
          "type": "address"
        }
      ],
      "name": "RoleRevoked",
      "type": "event"
    },
    {
      "anonymous": false,
      "inputs": [
        {
          "indexed": true,
          "internalType": "address",
          "name": "citizen",
          "type": "address"
        },
        {
          "indexed": false,
          "internalType": "uint256",
          "name": "newStake",
          "type": "uint256"
        },
        {
          "indexed": false,
          "internalType": "string",
          "name": "reason",
          "type": "string"
        }
      ],
      "name": "StakeUpdated",
      "type": "event"
    },
    {
      "anonymous": false,
      "inputs": [
        {
          "indexed": true,
          "internalType": "address",
          "name": "funder",
          "type": "address"
        },
        {
          "indexed": false,
          "internalType": "uint256",
          "name": "amount",
          "type": "uint256"
        },
        {
          "indexed": false,
          "internalType": "uint256",
          "name": "newTreasuryBalance",
          "type": "uint256"
        }
      ],
      "name": "TreasuryFunded",
      "type": "event"
    },
    {
      "anonymous": false,
      "inputs": [
        {
          "indexed": true,
          "internalType": "uint256",
          "name": "reportId",
          "type": "uint256"
        },
        {
          "indexed": true,
          "internalType": "address",
          "name": "voter",
          "type": "address"
        },
        {
          "indexed": false,
          "internalType": "bool",
          "name": "isUpVote",
          "type": "bool"
        }
      ],
      "name": "Voted",
      "type": "event"
    },
    {
      "anonymous": false,
      "inputs": [
        {
          "indexed": true,
          "internalType": "uint256",
          "name": "reportId",
          "type": "uint256"
        },
        {
          "indexed": false,
          "internalType": "bool",
          "name": "approved",
          "type": "bool"
        },
        {
          "indexed": false,
          "internalType": "uint256",
          "name": "totalDistributed",
          "type": "uint256"
        },
        {
          "indexed": false,
          "internalType": "uint256",
          "name": "perVoter",
          "type": "uint256"
        },
        {
          "indexed": false,
          "internalType": "uint256",
          "name": "voterCount",
          "type": "uint256"
        }
      ],
      "name": "VoterRewardsDistributed",
      "type": "event"
    },
    {
      "inputs": [],
      "name": "ADMIN_ROLE",
      "outputs": [
        {
          "internalType": "bytes32",
          "name": "",
          "type": "bytes32"
        }
      ],
      "stateMutability": "view",
      "type": "function"
    },
    {
      "inputs": [],
      "name": "DEFAULT_ADMIN_ROLE",
      "outputs": [
        {
          "internalType": "bytes32",
          "name": "",
          "type": "bytes32"
        }
      ],
      "stateMutability": "view",
      "type": "function"
    },
    {
      "inputs": [],
      "name": "REPORT_FEE",
      "outputs": [
        {
          "internalType": "uint256",
          "name": "",
          "type": "uint256"
        }
      ],
      "stateMutability": "view",
      "type": "function"
    },
    {
      "inputs": [],
      "name": "REWARD_AMOUNT",
      "outputs": [
        {
          "internalType": "uint256",
          "name": "",
          "type": "uint256"
        }
      ],
      "stateMutability": "view",
      "type": "function"
    },
    {
      "inputs": [],
      "name": "STAKE_AMOUNT",
      "outputs": [
        {
          "internalType": "uint256",
          "name": "",
          "type": "uint256"
        }
      ],
      "stateMutability": "view",
      "type": "function"
    },
    {
      "inputs": [
        {
          "internalType": "uint256",
          "name": "reportId",
          "type": "uint256"
        },
        {
          "internalType": "bool",
          "name": "approve",
          "type": "bool"
        }
      ],
      "name": "adminResolve",
      "outputs": [],
      "stateMutability": "nonpayable",
      "type": "function"
    },
    {
      "inputs": [
        {
          "internalType": "uint256",
          "name": "reportId",
          "type": "uint256"
        }
      ],
      "name": "getReport",
      "outputs": [
        {
          "components": [
            {
              "internalType": "address",
              "name": "reporter",
              "type": "address"
            },
            {
              "internalType": "string",
              "name": "contentHash",
              "type": "string"
            },
            {
              "internalType": "string[]",
              "name": "imageCIDs",
              "type": "string[]"
            },
            {
              "internalType": "string",
              "name": "location",
              "type": "string"
            },
            {
              "internalType": "int256",
              "name": "score",
              "type": "int256"
            },
            {
              "internalType": "enum PublicService.Status",
              "name": "status",
              "type": "uint8"
            },
            {
              "internalType": "uint256",
              "name": "timestamp",
              "type": "uint256"
            }
          ],
          "internalType": "struct PublicService.Report",
          "name": "",
          "type": "tuple"
        }
      ],
      "stateMutability": "view",
      "type": "function"
    },
    {
      "inputs": [],
      "name": "getReports",
      "outputs": [
        {
          "components": [
            {
              "internalType": "address",
              "name": "reporter",
              "type": "address"
            },
            {
              "internalType": "string",
              "name": "contentHash",
              "type": "string"
            },
            {
              "internalType": "string[]",
              "name": "imageCIDs",
              "type": "string[]"
            },
            {
              "internalType": "string",
              "name": "location",
              "type": "string"
            },
            {
              "internalType": "int256",
              "name": "score",
              "type": "int256"
            },
            {
              "internalType": "enum PublicService.Status",
              "name": "status",
              "type": "uint8"
            },
            {
              "internalType": "uint256",
              "name": "timestamp",
              "type": "uint256"
            }
          ],
          "internalType": "struct PublicService.Report[]",
          "name": "",
          "type": "tuple[]"
        }
      ],
      "stateMutability": "view",
      "type": "function"
    },
    {
      "inputs": [
        {
          "internalType": "bytes32",
          "name": "role",
          "type": "bytes32"
        }
      ],
      "name": "getRoleAdmin",
      "outputs": [
        {
          "internalType": "bytes32",
          "name": "",
          "type": "bytes32"
        }
      ],
      "stateMutability": "view",
      "type": "function"
    },
    {
      "inputs": [
        {
          "internalType": "bytes32",
          "name": "role",
          "type": "bytes32"
        },
        {
          "internalType": "address",
          "name": "account",
          "type": "address"
        }
      ],
      "name": "grantRole",
      "outputs": [],
      "stateMutability": "nonpayable",
      "type": "function"
    },
    {
      "inputs": [
        {
          "internalType": "bytes32",
          "name": "role",
          "type": "bytes32"
        },
        {
          "internalType": "address",
          "name": "account",
          "type": "address"
        }
      ],
      "name": "hasRole",
      "outputs": [
        {
          "internalType": "bool",
          "name": "",
          "type": "bool"
        }
      ],
      "stateMutability": "view",
      "type": "function"
    },
    {
      "inputs": [
        {
          "internalType": "address",
          "name": "citizen",
          "type": "address"
        }
      ],
      "name": "isLocked",
      "outputs": [
        {
          "internalType": "bool",
          "name": "",
          "type": "bool"
        }
      ],
      "stateMutability": "view",
      "type": "function"
    },
    {
      "inputs": [
        {
          "internalType": "address",
          "name": "",
          "type": "address"
        }
      ],
      "name": "locked",
      "outputs": [
        {
          "internalType": "bool",
          "name": "",
          "type": "bool"
        }
      ],
      "stateMutability": "view",
      "type": "function"
    },
    {
      "inputs": [],
      "name": "registerCitizen",
      "outputs": [],
      "stateMutability": "payable",
      "type": "function"
    },
    {
      "inputs": [
        {
          "internalType": "bytes32",
          "name": "role",
          "type": "bytes32"
        },
        {
          "internalType": "address",
          "name": "callerConfirmation",
          "type": "address"
        }
      ],
      "name": "renounceRole",
      "outputs": [],
      "stateMutability": "nonpayable",
      "type": "function"
    },
    {
      "inputs": [],
      "name": "reportCount",
      "outputs": [
        {
          "internalType": "uint256",
          "name": "",
          "type": "uint256"
        }
      ],
      "stateMutability": "view",
      "type": "function"
    },
    {
      "inputs": [
        {
          "internalType": "uint256",
          "name": "",
          "type": "uint256"
        }
      ],
      "name": "reportPools",
      "outputs": [
        {
          "internalType": "uint256",
          "name": "",
          "type": "uint256"
        }
      ],
      "stateMutability": "view",
      "type": "function"
    },
    {
      "inputs": [
        {
          "internalType": "uint256",
          "name": "",
          "type": "uint256"
        }
      ],
      "name": "reports",
      "outputs": [
        {
          "internalType": "address",
          "name": "reporter",
          "type": "address"
        },
        {
          "internalType": "string",
          "name": "contentHash",
          "type": "string"
        },
        {
          "internalType": "string",
          "name": "location",
          "type": "string"
        },
        {
          "internalType": "int256",
          "name": "score",
          "type": "int256"
        },
        {
          "internalType": "enum PublicService.Status",
          "name": "status",
          "type": "uint8"
        },
        {
          "internalType": "uint256",
          "name": "timestamp",
          "type": "uint256"
        }
      ],
      "stateMutability": "view",
      "type": "function"
    },
    {
      "inputs": [
        {
          "internalType": "bytes32",
          "name": "role",
          "type": "bytes32"
        },
        {
          "internalType": "address",
          "name": "account",
          "type": "address"
        }
      ],
      "name": "revokeRole",
      "outputs": [],
      "stateMutability": "nonpayable",
      "type": "function"
    },
    {
      "inputs": [
        {
          "internalType": "uint256",
          "name": "stakeAmount",
          "type": "uint256"
        },
        {
          "internalType": "uint256",
          "name": "reportFee",
          "type": "uint256"
        },
        {
          "internalType": "uint256",
          "name": "rewardAmount",
          "type": "uint256"
        }
      ],
      "name": "setEconomicParams",
      "outputs": [],
      "stateMutability": "nonpayable",
      "type": "function"
    },
    {
      "inputs": [
        {
          "internalType": "uint256",
          "name": "reportFee",
          "type": "uint256"
        }
      ],
      "name": "setReportFee",
      "outputs": [],
      "stateMutability": "nonpayable",
      "type": "function"
    },
    {
      "inputs": [
        {
          "internalType": "uint256",
          "name": "rewardAmount",
          "type": "uint256"
        }
      ],
      "name": "setRewardAmount",
      "outputs": [],
      "stateMutability": "nonpayable",
      "type": "function"
    },
    {
      "inputs": [
        {
          "internalType": "uint256",
          "name": "stakeAmount",
          "type": "uint256"
        }
      ],
      "name": "setStakeAmount",
      "outputs": [],
      "stateMutability": "nonpayable",
      "type": "function"
    },
    {
      "inputs": [
        {
          "internalType": "address",
          "name": "",
          "type": "address"
        }
      ],
      "name": "stakes",
      "outputs": [
        {
          "internalType": "uint256",
          "name": "",
          "type": "uint256"
        }
      ],
      "stateMutability": "view",
      "type": "function"
    },
    {
      "inputs": [
        {
          "internalType": "string",
          "name": "contentHash",
          "type": "string"
        },
        {
          "internalType": "string[]",
          "name": "imageCIDs",
          "type": "string[]"
        },
        {
          "internalType": "string",
          "name": "location",
          "type": "string"
        }
      ],
      "name": "submitReport",
      "outputs": [],
      "stateMutability": "payable",
      "type": "function"
    },
    {
      "inputs": [
        {
          "internalType": "bytes4",
          "name": "interfaceId",
          "type": "bytes4"
        }
      ],
      "name": "supportsInterface",
      "outputs": [
        {
          "internalType": "bool",
          "name": "",
          "type": "bool"
        }
      ],
      "stateMutability": "view",
      "type": "function"
    },
    {
      "inputs": [],
      "name": "treasuryBalance",
      "outputs": [
        {
          "internalType": "uint256",
          "name": "",
          "type": "uint256"
        }
      ],
      "stateMutability": "view",
      "type": "function"
    },
    {
      "inputs": [
        {
          "internalType": "uint256",
          "name": "reportId",
          "type": "uint256"
        },
        {
          "internalType": "string",
          "name": "newContentHash",
          "type": "string"
        },
        {
          "internalType": "string[]",
          "name": "newImageCIDs",
          "type": "string[]"
        },
        {
          "internalType": "string",
          "name": "newLocation",
          "type": "string"
        }
      ],
      "name": "updateReport",
      "outputs": [],
      "stateMutability": "nonpayable",
      "type": "function"
    },
    {
      "inputs": [
        {
          "internalType": "uint256",
          "name": "reportId",
          "type": "uint256"
        }
      ],
      "name": "voteDown",
      "outputs": [],
      "stateMutability": "nonpayable",
      "type": "function"
    },
    {
      "inputs": [
        {
          "internalType": "uint256",
          "name": "reportId",
          "type": "uint256"
        }
      ],
      "name": "voteUp",
      "outputs": [],
      "stateMutability": "nonpayable",
      "type": "function"
    },
    {
      "stateMutability": "payable",
      "type": "receive"
    }
  ],
  "bytecode": "0x60806040526001620000266200001a6200010460201b60201c565b6200012f60201b60201c565b600001819055506200005f7fa49807205ce4d355092ef5a8a18f56e8913cf4a201fbe287825b095693c21775336200013960201b60201c565b50620000846512309ce5400065065dd083700064e8d4a510006200023c60201b60201c565b6000341115620000fe573460046000828254620000a29190620003a9565b925050819055503373ffffffffffffffffffffffffffffffffffffffff167fc368570c718ead78e572d31d3c0a44869e1623a1355733b857032ded01322d8334600454604051620000f5929190620003f5565b60405180910390a25b6200045f565b60007f9b779b17422d0df92223018b32b4d1fa46e071723d6817e2486d003becc55f0060001b905090565b6000819050919050565b60006200014d8383620002fe60201b60201c565b6200023157600160008085815260200190815260200160002060000160008473ffffffffffffffffffffffffffffffffffffffff1673ffffffffffffffffffffffffffffffffffffffff16815260200190815260200160002060006101000a81548160ff021916908315150217905550620001cd6200036860201b60201c565b73ffffffffffffffffffffffffffffffffffffffff168273ffffffffffffffffffffffffffffffffffffffff16847f2f8788117e7eff1d82e926ec794901d17c78024a50270940304540a733656f0d60405160405180910390a46001905062000236565b600090505b92915050565b60008314806200024c5750600082145b80620002585750600081145b1562000290576040517f3db4717a00000000000000000000000000000000000000000000000000000000815260040160405180910390fd5b8260018190555081600281905550806003819055503373ffffffffffffffffffffffffffffffffffffffff167fe2d02d978aef6f01652b2eda9cc7e87c48b958fae23b1c19b60ea2da970811a2848484604051620002f19392919062000422565b60405180910390a2505050565b600080600084815260200190815260200160002060000160008373ffffffffffffffffffffffffffffffffffffffff1673ffffffffffffffffffffffffffffffffffffffff16815260200190815260200160002060009054906101000a900460ff16905092915050565b600033905090565b6000819050919050565b7f4e487b7100000000000000000000000000000000000000000000000000000000600052601160045260246000fd5b6000620003b68262000370565b9150620003c38362000370565b9250828201905080821115620003de57620003dd6200037a565b5b92915050565b620003ef8162000370565b82525050565b60006040820190506200040c6000830185620003e4565b6200041b6020830184620003e4565b9392505050565b6000606082019050620004396000830186620003e4565b620004486020830185620003e4565b620004576040830184620003e4565b949350505050565b614473806200046f6000396000f3fe6080604052600436106101d15760003560e01c8063a217fddf116100f7578063cf84944211610095578063ddac964611610064578063ddac9646146106f9578063eda72b2e14610722578063f37289b81461074b578063faf5625f1461078857610243565b8063cf84944214610660578063d043f5ce1461068b578063d4ebc5ff146106a7578063d547741f146106d057610243565b8063ae7c18df116100d1578063ae7c18df1461058f578063bffe3cce146105b8578063c942adf7146105e1578063cbf9fe5f1461062357610243565b8063a217fddf14610510578063a3c86daf1461053b578063a8a65a781461056657610243565b806336568abe1161016f57806370912d241161013e57806370912d241461047557806375b238fc1461049e578063907de2cc146104c957806391d14854146104d357610243565b806336568abe146103a957806343808c50146103d25780634a4fbeec146103fb5780634e7f9b191461043857610243565b8063185c6f84116101ab578063185c6f84146102ed578063248a9ca3146103185780632f2ff15d14610355578063313dab201461037e57610243565b806301ffc9a7146102485780630d636de61461028557806316934fc4146102b057610243565b366102435734600460008282546101e89190613154565b925050819055503373ffffffffffffffffffffffffffffffffffffffff167fc368570c718ead78e572d31d3c0a44869e1623a1355733b857032ded01322d8334600454604051610239929190613197565b60405180910390a2005b600080fd5b34801561025457600080fd5b5061026f600480360381019061026a919061322c565b6107b3565b60405161027c9190613274565b60405180910390f35b34801561029157600080fd5b5061029a61082d565b6040516102a7919061328f565b60405180910390f35b3480156102bc57600080fd5b506102d760048036038101906102d29190613308565b610833565b6040516102e4919061328f565b60405180910390f35b3480156102f957600080fd5b5061030261084b565b60405161030f919061328f565b60405180910390f35b34801561032457600080fd5b5061033f600480360381019061033a919061336b565b610851565b60405161034c91906133a7565b60405180910390f35b34801561036157600080fd5b5061037c600480360381019061037791906133c2565b610870565b005b34801561038a57600080fd5b50610393610892565b6040516103a0919061328f565b60405180910390f35b3480156103b557600080fd5b506103d060048036038101906103cb91906133c2565b610898565b005b3480156103de57600080fd5b506103f960048036038101906103f4919061342e565b610913565b005b34801561040757600080fd5b50610422600480360381019061041d9190613308565b610950565b60405161042f9190613274565b60405180910390f35b34801561044457600080fd5b5061045f600480360381019061045a919061342e565b6109a6565b60405161046c9190613705565b60405180910390f35b34801561048157600080fd5b5061049c6004803603810190610497919061342e565b610c75565b005b3480156104aa57600080fd5b506104b3610cb2565b6040516104c091906133a7565b60405180910390f35b6104d1610cd6565b005b3480156104df57600080fd5b506104fa60048036038101906104f591906133c2565b610f65565b6040516105079190613274565b60405180910390f35b34801561051c57600080fd5b50610525610fcf565b60405161053291906133a7565b60405180910390f35b34801561054757600080fd5b50610550610fd6565b60405161055d9190613893565b60405180910390f35b34801561057257600080fd5b5061058d6004803603810190610588919061342e565b611437565b005b34801561059b57600080fd5b506105b660048036038101906105b191906138e1565b611474565b005b3480156105c457600080fd5b506105df60048036038101906105da9190613b3c565b611a03565b005b3480156105ed57600080fd5b506106086004803603810190610603919061342e565b611c5f565b60405161061a96959493929190613c6e565b60405180910390f35b34801561062f57600080fd5b5061064a60048036038101906106459190613308565b611dd8565b6040516106579190613274565b60405180910390f35b34801561066c57600080fd5b50610675611df8565b604051610682919061328f565b60405180910390f35b6106a560048036038101906106a09190613cdd565b611dfe565b005b3480156106b357600080fd5b506106ce60048036038101906106c9919061342e565b612189565b005b3480156106dc57600080fd5b506106f760048036038101906106f291906133c2565b612197565b005b34801561070557600080fd5b50610720600480360381019061071b9190613d84565b6121b9565b005b34801561072e57600080fd5b506107496004803603810190610744919061342e565b6121f4565b005b34801561075757600080fd5b50610772600480360381019061076d919061342e565b612202565b60405161077f919061328f565b60405180910390f35b34801561079457600080fd5b5061079d61221a565b6040516107aa919061328f565b60405180910390f35b60007f7965db0b000000000000000000000000000000000000000000000000000000007bffffffffffffffffffffffffffffffffffffffffffffffffffffffff1916827bffffffffffffffffffffffffffffffffffffffffffffffffffffffff19161480610826575061082582612220565b5b9050919050565b60025481565b60056020528060005260406000206000915090505481565b60085481565b6000806000838152602001908152602001600020600101549050919050565b61087982610851565b6108828161228a565b61088c838361229e565b50505050565b60045481565b6108a061238f565b73ffffffffffffffffffffffffffffffffffffffff168173ffffffffffffffffffffffffffffffffffffffff1614610904576040517f6697b23200000000000000000000000000000000000000000000000000000000815260040160405180910390fd5b61090e8282612397565b505050565b7fa49807205ce4d355092ef5a8a18f56e8913cf4a201fbe287825b095693c2177561093d8161228a565b61094c82600254600354612489565b5050565b6000600960008373ffffffffffffffffffffffffffffffffffffffff1673ffffffffffffffffffffffffffffffffffffffff16815260200190815260200160002060009054906101000a900460ff169050919050565b6109ae612fdc565b600660008381526020019081526020016000206040518060e00160405290816000820160009054906101000a900473ffffffffffffffffffffffffffffffffffffffff1673ffffffffffffffffffffffffffffffffffffffff1673ffffffffffffffffffffffffffffffffffffffff168152602001600182018054610a3290613e06565b80601f0160208091040260200160405190810160405280929190818152602001828054610a5e90613e06565b8015610aab5780601f10610a8057610100808354040283529160200191610aab565b820191906000526020600020905b815481529060010190602001808311610a8e57829003601f168201915b5050505050815260200160028201805480602002602001604051908101604052809291908181526020016000905b82821015610b85578382906000526020600020018054610af890613e06565b80601f0160208091040260200160405190810160405280929190818152602001828054610b2490613e06565b8015610b715780601f10610b4657610100808354040283529160200191610b71565b820191906000526020600020905b815481529060010190602001808311610b5457829003601f168201915b505050505081526020019060010190610ad9565b505050508152602001600382018054610b9d90613e06565b80601f0160208091040260200160405190810160405280929190818152602001828054610bc990613e06565b8015610c165780601f10610beb57610100808354040283529160200191610c16565b820191906000526020600020905b815481529060010190602001808311610bf957829003601f168201915b50505050508152602001600482015481526020016005820160009054906101000a900460ff166002811115610c4e57610c4d6135d5565b5b6002811115610c6057610c5f6135d5565b5b81526020016006820154815250509050919050565b7fa49807205ce4d355092ef5a8a18f56e8913cf4a201fbe287825b095693c21775610c9f8161228a565b610cae60015483600354612489565b5050565b7fa49807205ce4d355092ef5a8a18f56e8913cf4a201fbe287825b095693c2177581565b600154600560003373ffffffffffffffffffffffffffffffffffffffff1673ffffffffffffffffffffffffffffffffffffffff1681526020019081526020016000205410158015610d715750600960003373ffffffffffffffffffffffffffffffffffffffff1673ffffffffffffffffffffffffffffffffffffffff16815260200190815260200160002060009054906101000a900460ff16155b15610da8576040517f3a81d6fc00000000000000000000000000000000000000000000000000000000815260040160405180910390fd5b6001543414610de3576040517ff1bc94d200000000000000000000000000000000000000000000000000000000815260040160405180910390fd5b34600560003373ffffffffffffffffffffffffffffffffffffffff1673ffffffffffffffffffffffffffffffffffffffff16815260200190815260200160002081905550600960003373ffffffffffffffffffffffffffffffffffffffff1673ffffffffffffffffffffffffffffffffffffffff16815260200190815260200160002060009054906101000a900460ff1615610f15576000600960003373ffffffffffffffffffffffffffffffffffffffff1673ffffffffffffffffffffffffffffffffffffffff16815260200190815260200160002060006101000a81548160ff0219169083151502179055503373ffffffffffffffffffffffffffffffffffffffff167fb7df7ef889418eecc895118f0d863c3074abf7769bfe39ba852192114c725dfc60405160405180910390a25b3373ffffffffffffffffffffffffffffffffffffffff167f9f4e1c382cdd9fb482444097babab40742f8a3624c0ab69305c3c396f26794b834604051610f5b919061328f565b60405180910390a2565b600080600084815260200190815260200160002060000160008373ffffffffffffffffffffffffffffffffffffffff1673ffffffffffffffffffffffffffffffffffffffff16815260200190815260200160002060009054906101000a900460ff16905092915050565b6000801b81565b6060600060085467ffffffffffffffff811115610ff657610ff561392b565b5b60405190808252806020026020018201604052801561102f57816020015b61101c612fdc565b8152602001906001900390816110145790505b50905060005b60085481101561132a57600660008281526020019081526020016000206040518060e00160405290816000820160009054906101000a900473ffffffffffffffffffffffffffffffffffffffff1673ffffffffffffffffffffffffffffffffffffffff1673ffffffffffffffffffffffffffffffffffffffff1681526020016001820180546110c390613e06565b80601f01602080910402602001604051908101604052809291908181526020018280546110ef90613e06565b801561113c5780601f106111115761010080835404028352916020019161113c565b820191906000526020600020905b81548152906001019060200180831161111f57829003601f168201915b5050505050815260200160028201805480602002602001604051908101604052809291908181526020016000905b8282101561121657838290600052602060002001805461118990613e06565b80601f01602080910402602001604051908101604052809291908181526020018280546111b590613e06565b80156112025780601f106111d757610100808354040283529160200191611202565b820191906000526020600020905b8154815290600101906020018083116111e557829003601f168201915b50505050508152602001906001019061116a565b50505050815260200160038201805461122e90613e06565b80601f016020809104026020016040519081016040528092919081815260200182805461125a90613e06565b80156112a75780601f1061127c576101008083540402835291602001916112a7565b820191906000526020600020905b81548152906001019060200180831161128a57829003601f168201915b50505050508152602001600482015481526020016005820160009054906101000a900460ff1660028111156112df576112de6135d5565b5b60028111156112f1576112f06135d5565b5b815260200160068201548152505082828151811061131257611311613e37565b5b60200260200101819052508080600101915050611035565b506000600190505b60085481101561142f57600082828151811061135157611350613e37565b5b6020026020010151905060008160800151905060008390505b6000811180156113a3575081856001836113849190613e66565b8151811061139557611394613e37565b5b602002602001015160800151125b1561140057846001826113b69190613e66565b815181106113c7576113c6613e37565b5b60200260200101518582815181106113e2576113e1613e37565b5b602002602001018190525080806113f890613e9a565b91505061136a565b8285828151811061141457611413613e37565b5b60200260200101819052505050508080600101915050611332565b508091505090565b7fa49807205ce4d355092ef5a8a18f56e8913cf4a201fbe287825b095693c217756114618161228a565b61147060015460025484612489565b5050565b7fa49807205ce4d355092ef5a8a18f56e8913cf4a201fbe287825b095693c2177561149e8161228a565b6114a6612546565b6000600660008581526020019081526020016000209050600073ffffffffffffffffffffffffffffffffffffffff168160000160009054906101000a900473ffffffffffffffffffffffffffffffffffffffff1673ffffffffffffffffffffffffffffffffffffffff1603611547576040517f98b54f9f00000000000000000000000000000000000000000000000000000000815260040160405180910390fd5b6000600281111561155b5761155a6135d5565b5b8160050160009054906101000a900460ff16600281111561157f5761157e6135d5565b5b146115b6576040517f986b6fa200000000000000000000000000000000000000000000000000000000815260040160405180910390fd5b826115c25760026115c5565b60015b8160050160006101000a81548160ff021916908360028111156115eb576115ea6135d5565b5b021790555060008361160f57600c6000868152602001908152602001600020611623565b600b60008681526020019081526020016000205b905060008461164457600b6000878152602001908152602001600020611658565b600c60008781526020019081526020016000205b90506000600760008881526020019081526020016000205490506000600760008981526020019081526020016000208190555060045481111561169b5760045490505b60006116a982600354612569565b8092508193505050600087156117535760006003546002546116cb9190613154565b905060006116d98583612569565b80945081965050508183101561174c57600083836116f79190613e66565b90506000611704876125b9565b9050808211156117145780611716565b815b925060008311156117495782600460008282546117339190613e66565b9250508190555082856117469190613154565b94505b50505b50506117be565b6117bb89848860000160009054906101000a900473ffffffffffffffffffffffffffffffffffffffff166003546040518060400160405280601781526020017f52656a6563746564207265706f72742070656e616c74790000000000000000008152506125e1565b92505b60005b848054905081101561189e5761188f8a858784815481106117e5576117e4613e37565b5b9060005260206000200160009054906101000a900473ffffffffffffffffffffffffffffffffffffffff166003548d611853576040518060400160405280601981526020017f496e636f72726563742075702d766f74652070656e616c74790000000000000081525061188a565b6040518060400160405280601b81526020017f496e636f727265637420646f776e2d766f74652070656e616c747900000000008152505b6125e1565b935080806001019150506117c1565b5060008580549050905060008490506000600354836118bd9190613ec3565b90506000831180156118ce57508082105b1561191657600082826118e19190613e66565b905060006118ee886125b9565b90506000818311156119005781611902565b825b905080856119109190613154565b94505050505b6000808411611926576000611933565b83836119329190613f34565b5b9050600084826119439190613ec3565b905060008111156119685780600460008282546119609190613e66565b925050819055505b61199c8e8e8d60000160009054906101000a900473ffffffffffffffffffffffffffffffffffffffff168d8b8b8888612886565b3373ffffffffffffffffffffffffffffffffffffffff168e7f73a083c80d929db87db12fef6279f69cc0ef1cff5eeb56af2423987136de754e8f6040516119e39190613274565b60405180910390a350505050505050505050506119fe6129fe565b505050565b6000600660008681526020019081526020016000209050600073ffffffffffffffffffffffffffffffffffffffff168160000160009054906101000a900473ffffffffffffffffffffffffffffffffffffffff1673ffffffffffffffffffffffffffffffffffffffff1603611aa4576040517f98b54f9f00000000000000000000000000000000000000000000000000000000815260040160405180910390fd5b3373ffffffffffffffffffffffffffffffffffffffff168160000160009054906101000a900473ffffffffffffffffffffffffffffffffffffffff1673ffffffffffffffffffffffffffffffffffffffff1614611b2d576040517f98b54f9f00000000000000000000000000000000000000000000000000000000815260040160405180910390fd5b60006002811115611b4157611b406135d5565b5b8160050160009054906101000a900460ff166002811115611b6557611b646135d5565b5b14611b9c576040517f986b6fa200000000000000000000000000000000000000000000000000000000815260040160405180910390fd5b83816001019081611bad9190614111565b5081816003019081611bbf9190614111565b5060005b8351811015611c2a5781600201848281518110611be357611be2613e37565b5b6020026020010151908060018154018082558091505060019003906000526020600020016000909190919091509081611c1c9190614111565b508080600101915050611bc3565b50847f76e478f351e69959848b5018dcec20960fea6a512e8907cf29958307da6256b760405160405180910390a25050505050565b60066020528060005260406000206000915090508060000160009054906101000a900473ffffffffffffffffffffffffffffffffffffffff1690806001018054611ca890613e06565b80601f0160208091040260200160405190810160405280929190818152602001828054611cd490613e06565b8015611d215780601f10611cf657610100808354040283529160200191611d21565b820191906000526020600020905b815481529060010190602001808311611d0457829003601f168201915b505050505090806003018054611d3690613e06565b80601f0160208091040260200160405190810160405280929190818152602001828054611d6290613e06565b8015611daf5780601f10611d8457610100808354040283529160200191611daf565b820191906000526020600020905b815481529060010190602001808311611d9257829003601f168201915b5050505050908060040154908060050160009054906101000a900460ff16908060060154905086565b60096020528060005260406000206000915054906101000a900460ff1681565b60035481565b611e06612546565b600960003373ffffffffffffffffffffffffffffffffffffffff1673ffffffffffffffffffffffffffffffffffffffff16815260200190815260200160002060009054906101000a900460ff1615611e8a576040517fdb0e247600000000000000000000000000000000000000000000000000000000815260040160405180910390fd5b600154600560003373ffffffffffffffffffffffffffffffffffffffff1673ffffffffffffffffffffffffffffffffffffffff168152602001908152602001600020541015611f05576040517faba4733900000000000000000000000000000000000000000000000000000000815260040160405180910390fd5b6002543414611f40576040517ff1bc94d200000000000000000000000000000000000000000000000000000000815260040160405180910390fd5b600060086000815480929190611f55906141e3565b9190505590506040518060e001604052803373ffffffffffffffffffffffffffffffffffffffff1681526020018581526020018481526020018381526020016000815260200160006002811115611faf57611fae6135d5565b5b8152602001428152506006600083815260200190815260200160002060008201518160000160006101000a81548173ffffffffffffffffffffffffffffffffffffffff021916908373ffffffffffffffffffffffffffffffffffffffff16021790555060208201518160010190816120279190614111565b506040820151816002019080519060200190612044929190613041565b50606082015181600301908161205a9190614111565b506080820151816004015560a08201518160050160006101000a81548160ff021916908360028111156120905761208f6135d5565b5b021790555060c0820151816006015590505034600760008381526020019081526020016000208190555034600460008282546120cc9190613154565b925050819055503373ffffffffffffffffffffffffffffffffffffffff16817fe4075fc59b2af25064c038e7b8551fafd46577385f8b0af33b1ef512e47f997534600760008681526020019081526020016000205460405161212f929190613197565b60405180910390a33373ffffffffffffffffffffffffffffffffffffffff16817ffe73cf9b793e65d9d707a5bfe3063e5f3a58eb52b27a356478c30fc83f5200f260405160405180910390a3506121846129fe565b505050565b612194816001612a19565b50565b6121a082610851565b6121a98161228a565b6121b38383612397565b50505050565b7fa49807205ce4d355092ef5a8a18f56e8913cf4a201fbe287825b095693c217756121e38161228a565b6121ee848484612489565b50505050565b6121ff816000612a19565b50565b60076020528060005260406000206000915090505481565b60015481565b60007f01ffc9a7000000000000000000000000000000000000000000000000000000007bffffffffffffffffffffffffffffffffffffffffffffffffffffffff1916827bffffffffffffffffffffffffffffffffffffffffffffffffffffffff1916149050919050565b61229b8161229661238f565b612e45565b50565b60006122aa8383610f65565b61238457600160008085815260200190815260200160002060000160008473ffffffffffffffffffffffffffffffffffffffff1673ffffffffffffffffffffffffffffffffffffffff16815260200190815260200160002060006101000a81548160ff02191690831515021790555061232161238f565b73ffffffffffffffffffffffffffffffffffffffff168273ffffffffffffffffffffffffffffffffffffffff16847f2f8788117e7eff1d82e926ec794901d17c78024a50270940304540a733656f0d60405160405180910390a460019050612389565b600090505b92915050565b600033905090565b60006123a38383610f65565b1561247e57600080600085815260200190815260200160002060000160008473ffffffffffffffffffffffffffffffffffffffff1673ffffffffffffffffffffffffffffffffffffffff16815260200190815260200160002060006101000a81548160ff02191690831515021790555061241b61238f565b73ffffffffffffffffffffffffffffffffffffffff168273ffffffffffffffffffffffffffffffffffffffff16847ff6391f5c32d9c69d2a47ea670b442974b53935d1edc7fd64eb21e047a839171b60405160405180910390a460019050612483565b600090505b92915050565b60008314806124985750600082145b806124a35750600081145b156124da576040517f3db4717a00000000000000000000000000000000000000000000000000000000815260040160405180910390fd5b8260018190555081600281905550806003819055503373ffffffffffffffffffffffffffffffffffffffff167fe2d02d978aef6f01652b2eda9cc7e87c48b958fae23b1c19b60ea2da970811a28484846040516125399392919061422b565b60405180910390a2505050565b61254e612e96565b600261256061255b612ed7565b612f02565b60000181905550565b6000808383111561257a578361257c565b825b905083915060008111156125b25780826125969190613e66565b915080600460008282546125aa9190613e66565b925050819055505b9250929050565b600081600454116125cb5760006125da565b816004546125d99190613e66565b5b9050919050565b600082600560008673ffffffffffffffffffffffffffffffffffffffff1673ffffffffffffffffffffffffffffffffffffffff1681526020019081526020016000205410156126325784905061287d565b82600560008673ffffffffffffffffffffffffffffffffffffffff1673ffffffffffffffffffffffffffffffffffffffff16815260200190815260200160002060008282546126819190613e66565b925050819055508373ffffffffffffffffffffffffffffffffffffffff167f9a4e107c217fba3d242f257fd523c107ea3a28c2a71e8c7b6cf9a2893ecbb98d600560008773ffffffffffffffffffffffffffffffffffffffff1673ffffffffffffffffffffffffffffffffffffffff168152602001908152602001600020548460405161270f929190614262565b60405180910390a2600154600560008673ffffffffffffffffffffffffffffffffffffffff1673ffffffffffffffffffffffffffffffffffffffff1681526020019081526020016000205410156127fc576001600960008673ffffffffffffffffffffffffffffffffffffffff1673ffffffffffffffffffffffffffffffffffffffff16815260200190815260200160002060006101000a81548160ff0219169083151502179055508373ffffffffffffffffffffffffffffffffffffffff167f78be06d07afe380e04d6deeba0f33c892db454f303fb739d9b768987a5ec6aca60405160405180910390a25b6000838661280a9190613154565b9050836004600082825461281e9190613154565b925050819055508473ffffffffffffffffffffffffffffffffffffffff16877f5eff1fd624ba430550a634a31917c5a356eeec917989d52f666c4de568ac8ca886868560405161287093929190614292565b60405180910390a3809150505b95945050505050565b6128903385612f0c565b60008411156128e9573373ffffffffffffffffffffffffffffffffffffffff16887f6633e5c7572bfd70e83abbf5805ec167cfd260d8b5b701e1cc46d7881db3b988866040516128e0919061328f565b60405180910390a35b6128f38684612f0c565b8573ffffffffffffffffffffffffffffffffffffffff16887f917cb8fb70aa78058a0998691930951eb29a48492b21d60f704bc667ba829f31858a60405161293c9291906142d0565b60405180910390a360008211156129b25760005b85805490508110156129b0576129a386828154811061297257612971613e37565b5b9060005260206000200160009054906101000a900473ffffffffffffffffffffffffffffffffffffffff1684612f0c565b8080600101915050612950565b505b877f31ea7efc304b7980b8629deacab46ac41d22c81add5a78e27447a540d36fc0a088838589805490506040516129ec94939291906142f9565b60405180910390a25050505050505050565b6001612a10612a0b612ed7565b612f02565b60000181905550565b600960003373ffffffffffffffffffffffffffffffffffffffff1673ffffffffffffffffffffffffffffffffffffffff16815260200190815260200160002060009054906101000a900460ff1615612a9d576040517fdb0e247600000000000000000000000000000000000000000000000000000000815260040160405180910390fd5b600154600560003373ffffffffffffffffffffffffffffffffffffffff1673ffffffffffffffffffffffffffffffffffffffff168152602001908152602001600020541015612b18576040517faba4733900000000000000000000000000000000000000000000000000000000815260040160405180910390fd5b600073ffffffffffffffffffffffffffffffffffffffff166006600084815260200190815260200160002060000160009054906101000a900473ffffffffffffffffffffffffffffffffffffffff1673ffffffffffffffffffffffffffffffffffffffff1603612bb4576040517f98b54f9f00000000000000000000000000000000000000000000000000000000815260040160405180910390fd5b600a600083815260200190815260200160002060003373ffffffffffffffffffffffffffffffffffffffff1673ffffffffffffffffffffffffffffffffffffffff16815260200190815260200160002060009054906101000a900460ff1615612c49576040517f7c9a1cf900000000000000000000000000000000000000000000000000000000815260040160405180910390fd5b6001600a600084815260200190815260200160002060003373ffffffffffffffffffffffffffffffffffffffff1673ffffffffffffffffffffffffffffffffffffffff16815260200190815260200160002060006101000a81548160ff02191690831515021790555060006006600084815260200190815260200160002090508115612d6257806004016000815480929190612ce49061433e565b9190505550600b6000848152602001908152602001600020339080600181540180825580915050600190039060005260206000200160009091909190916101000a81548173ffffffffffffffffffffffffffffffffffffffff021916908373ffffffffffffffffffffffffffffffffffffffff160217905550612df1565b806004016000815480929190612d7790614386565b9190505550600c6000848152602001908152602001600020339080600181540180825580915050600190039060005260206000200160009091909190916101000a81548173ffffffffffffffffffffffffffffffffffffffff021916908373ffffffffffffffffffffffffffffffffffffffff1602179055505b3373ffffffffffffffffffffffffffffffffffffffff16837ff2913dbe661ee2acc4a046d8fbcdc792373bda34c41c6086484b5345e5785e5f84604051612e389190613274565b60405180910390a3505050565b612e4f8282610f65565b612e925780826040517fe2517d3f000000000000000000000000000000000000000000000000000000008152600401612e899291906143ce565b60405180910390fd5b5050565b612e9e612fbe565b15612ed5576040517f3ee5aeb500000000000000000000000000000000000000000000000000000000815260040160405180910390fd5b565b60007f9b779b17422d0df92223018b32b4d1fa46e071723d6817e2486d003becc55f0060001b905090565b6000819050919050565b6000810315612fba5760008273ffffffffffffffffffffffffffffffffffffffff1682604051612f3b90614428565b60006040518083038185875af1925050503d8060008114612f78576040519150601f19603f3d011682016040523d82523d6000602084013e612f7d565b606091505b5050905080612fb8576040517f90b8ec1800000000000000000000000000000000000000000000000000000000815260040160405180910390fd5b505b5050565b60006002612fd2612fcd612ed7565b612f02565b6000015414905090565b6040518060e00160405280600073ffffffffffffffffffffffffffffffffffffffff1681526020016060815260200160608152602001606081526020016000815260200160006002811115613034576130336135d5565b5b8152602001600081525090565b828054828255906000526020600020908101928215613089579160200282015b828111156130885782518290816130789190614111565b5091602001919060010190613061565b5b509050613096919061309a565b5090565b5b808211156130ba57600081816130b191906130be565b5060010161309b565b5090565b5080546130ca90613e06565b6000825580601f106130dc57506130fb565b601f0160209004906000526020600020908101906130fa91906130fe565b5b50565b5b808211156131175760008160009055506001016130ff565b5090565b6000819050919050565b7f4e487b7100000000000000000000000000000000000000000000000000000000600052601160045260246000fd5b600061315f8261311b565b915061316a8361311b565b925082820190508082111561318257613181613125565b5b92915050565b6131918161311b565b82525050565b60006040820190506131ac6000830185613188565b6131b96020830184613188565b9392505050565b6000604051905090565b600080fd5b600080fd5b60007fffffffff0000000000000000000000000000000000000000000000000000000082169050919050565b613209816131d4565b811461321457600080fd5b50565b60008135905061322681613200565b92915050565b600060208284031215613242576132416131ca565b5b600061325084828501613217565b91505092915050565b60008115159050919050565b61326e81613259565b82525050565b60006020820190506132896000830184613265565b92915050565b60006020820190506132a46000830184613188565b92915050565b600073ffffffffffffffffffffffffffffffffffffffff82169050919050565b60006132d5826132aa565b9050919050565b6132e5816132ca565b81146132f057600080fd5b50565b600081359050613302816132dc565b92915050565b60006020828403121561331e5761331d6131ca565b5b600061332c848285016132f3565b91505092915050565b6000819050919050565b61334881613335565b811461335357600080fd5b50565b6000813590506133658161333f565b92915050565b600060208284031215613381576133806131ca565b5b600061338f84828501613356565b91505092915050565b6133a181613335565b82525050565b60006020820190506133bc6000830184613398565b92915050565b600080604083850312156133d9576133d86131ca565b5b60006133e785828601613356565b92505060206133f8858286016132f3565b9150509250929050565b61340b8161311b565b811461341657600080fd5b50565b60008135905061342881613402565b92915050565b600060208284031215613444576134436131ca565b5b600061345284828501613419565b91505092915050565b613464816132ca565b82525050565b600081519050919050565b600082825260208201905092915050565b60005b838110156134a4578082015181840152602081019050613489565b60008484015250505050565b6000601f19601f8301169050919050565b60006134cc8261346a565b6134d68185613475565b93506134e6818560208601613486565b6134ef816134b0565b840191505092915050565b600081519050919050565b600082825260208201905092915050565b6000819050602082019050919050565b600061353283836134c1565b905092915050565b6000602082019050919050565b6000613552826134fa565b61355c8185613505565b93508360208202850161356e85613516565b8060005b858110156135aa578484038952815161358b8582613526565b94506135968361353a565b925060208a01995050600181019050613572565b50829750879550505050505092915050565b6000819050919050565b6135cf816135bc565b82525050565b7f4e487b7100000000000000000000000000000000000000000000000000000000600052602160045260246000fd5b60038110613615576136146135d5565b5b50565b600081905061362682613604565b919050565b600061363682613618565b9050919050565b6136468161362b565b82525050565b6136558161311b565b82525050565b600060e083016000830151613673600086018261345b565b506020830151848203602086015261368b82826134c1565b915050604083015184820360408601526136a58282613547565b915050606083015184820360608601526136bf82826134c1565b91505060808301516136d460808601826135c6565b5060a08301516136e760a086018261363d565b5060c08301516136fa60c086018261364c565b508091505092915050565b6000602082019050818103600083015261371f818461365b565b905092915050565b600081519050919050565b600082825260208201905092915050565b6000819050602082019050919050565b600060e08301600083015161376b600086018261345b565b506020830151848203602086015261378382826134c1565b9150506040830151848203604086015261379d8282613547565b915050606083015184820360608601526137b782826134c1565b91505060808301516137cc60808601826135c6565b5060a08301516137df60a086018261363d565b5060c08301516137f260c086018261364c565b508091505092915050565b60006138098383613753565b905092915050565b6000602082019050919050565b600061382982613727565b6138338185613732565b93508360208202850161384585613743565b8060005b85811015613881578484038952815161386285826137fd565b945061386d83613811565b925060208a01995050600181019050613849565b50829750879550505050505092915050565b600060208201905081810360008301526138ad818461381e565b905092915050565b6138be81613259565b81146138c957600080fd5b50565b6000813590506138db816138b5565b92915050565b600080604083850312156138f8576138f76131ca565b5b600061390685828601613419565b9250506020613917858286016138cc565b9150509250929050565b600080fd5b600080fd5b7f4e487b7100000000000000000000000000000000000000000000000000000000600052604160045260246000fd5b613963826134b0565b810181811067ffffffffffffffff821117156139825761398161392b565b5b80604052505050565b60006139956131c0565b90506139a1828261395a565b919050565b600067ffffffffffffffff8211156139c1576139c061392b565b5b6139ca826134b0565b9050602081019050919050565b82818337600083830152505050565b60006139f96139f4846139a6565b61398b565b905082815260208101848484011115613a1557613a14613926565b5b613a208482856139d7565b509392505050565b600082601f830112613a3d57613a3c613921565b5b8135613a4d8482602086016139e6565b91505092915050565b600067ffffffffffffffff821115613a7157613a7061392b565b5b602082029050602081019050919050565b600080fd5b6000613a9a613a9584613a56565b61398b565b90508083825260208201905060208402830185811115613abd57613abc613a82565b5b835b81811015613b0457803567ffffffffffffffff811115613ae257613ae1613921565b5b808601613aef8982613a28565b85526020850194505050602081019050613abf565b5050509392505050565b600082601f830112613b2357613b22613921565b5b8135613b33848260208601613a87565b91505092915050565b60008060008060808587031215613b5657613b556131ca565b5b6000613b6487828801613419565b945050602085013567ffffffffffffffff811115613b8557613b846131cf565b5b613b9187828801613a28565b935050604085013567ffffffffffffffff811115613bb257613bb16131cf565b5b613bbe87828801613b0e565b925050606085013567ffffffffffffffff811115613bdf57613bde6131cf565b5b613beb87828801613a28565b91505092959194509250565b613c00816132ca565b82525050565b600082825260208201905092915050565b6000613c228261346a565b613c2c8185613c06565b9350613c3c818560208601613486565b613c45816134b0565b840191505092915050565b613c59816135bc565b82525050565b613c688161362b565b82525050565b600060c082019050613c836000830189613bf7565b8181036020830152613c958188613c17565b90508181036040830152613ca98187613c17565b9050613cb86060830186613c50565b613cc56080830185613c5f565b613cd260a0830184613188565b979650505050505050565b600080600060608486031215613cf657613cf56131ca565b5b600084013567ffffffffffffffff811115613d1457613d136131cf565b5b613d2086828701613a28565b935050602084013567ffffffffffffffff811115613d4157613d406131cf565b5b613d4d86828701613b0e565b925050604084013567ffffffffffffffff811115613d6e57613d6d6131cf565b5b613d7a86828701613a28565b9150509250925092565b600080600060608486031215613d9d57613d9c6131ca565b5b6000613dab86828701613419565b9350506020613dbc86828701613419565b9250506040613dcd86828701613419565b9150509250925092565b7f4e487b7100000000000000000000000000000000000000000000000000000000600052602260045260246000fd5b60006002820490506001821680613e1e57607f821691505b602082108103613e3157613e30613dd7565b5b50919050565b7f4e487b7100000000000000000000000000000000000000000000000000000000600052603260045260246000fd5b6000613e718261311b565b9150613e7c8361311b565b9250828203905081811115613e9457613e93613125565b5b92915050565b6000613ea58261311b565b915060008203613eb857613eb7613125565b5b600182039050919050565b6000613ece8261311b565b9150613ed98361311b565b9250828202613ee78161311b565b91508282048414831517613efe57613efd613125565b5b5092915050565b7f4e487b7100000000000000000000000000000000000000000000000000000000600052601260045260246000fd5b6000613f3f8261311b565b9150613f4a8361311b565b925082613f5a57613f59613f05565b5b828204905092915050565b60008190508160005260206000209050919050565b60006020601f8301049050919050565b600082821b905092915050565b600060088302613fc77fffffffffffffffffffffffffffffffffffffffffffffffffffffffffffffffff82613f8a565b613fd18683613f8a565b95508019841693508086168417925050509392505050565b6000819050919050565b600061400e6140096140048461311b565b613fe9565b61311b565b9050919050565b6000819050919050565b61402883613ff3565b61403c61403482614015565b848454613f97565b825550505050565b600090565b614051614044565b61405c81848461401f565b505050565b5b8181101561408057614075600082614049565b600181019050614062565b5050565b601f8211156140c55761409681613f65565b61409f84613f7a565b810160208510156140ae578190505b6140c26140ba85613f7a565b830182614061565b50505b505050565b600082821c905092915050565b60006140e8600019846008026140ca565b1980831691505092915050565b600061410183836140d7565b9150826002028217905092915050565b61411a8261346a565b67ffffffffffffffff8111156141335761413261392b565b5b61413d8254613e06565b614148828285614084565b600060209050601f83116001811461417b5760008415614169578287015190505b61417385826140f5565b8655506141db565b601f19841661418986613f65565b60005b828110156141b15784890151825560018201915060208501945060208101905061418c565b868310156141ce57848901516141ca601f8916826140d7565b8355505b6001600288020188555050505b505050505050565b60006141ee8261311b565b91507fffffffffffffffffffffffffffffffffffffffffffffffffffffffffffffffff82036142205761421f613125565b5b600182019050919050565b60006060820190506142406000830186613188565b61424d6020830185613188565b61425a6040830184613188565b949350505050565b60006040820190506142776000830185613188565b81810360208301526142898184613c17565b90509392505050565b60006060820190506142a76000830186613188565b81810360208301526142b98185613c17565b90506142c86040830184613188565b949350505050565b60006040820190506142e56000830185613188565b6142f26020830184613265565b9392505050565b600060808201905061430e6000830187613265565b61431b6020830186613188565b6143286040830185613188565b6143356060830184613188565b95945050505050565b6000614349826135bc565b91507f7fffffffffffffffffffffffffffffffffffffffffffffffffffffffffffffff820361437b5761437a613125565b5b600182019050919050565b6000614391826135bc565b91507f800000000000000000000000000000000000000000000000000000000000000082036143c3576143c2613125565b5b600182039050919050565b60006040820190506143e36000830185613bf7565b6143f06020830184613398565b9392505050565b600081905092915050565b50565b60006144126000836143f7565b915061441d82614402565b600082019050919050565b600061443382614405565b915081905091905056fea2646970667358221220f0b826f25259f462565d32fa295f31b9d48a90c814152d52bf3f8068a642a2bc64736f6c63430008180033",
  "linkReferences": {},
  "deployedLinkReferences": {}
}