{
  "_format": "hh-sol-artifact-1",
  "contractName": "PublicService",
  "sourceName": "contracts/PublicService.sol",
  "abi": [
    {
      "inputs": [],
      "stateMutability": "nonpayable",
      "type": "constructor"
    },
    {
      "inputs": [],
      "name": "AccessControlBadConfirmation",
      "type": "error"
    },
    {
      "inputs": [
        {
          "internalType": "address",
          "name": "account",
          "type": "address"
        },
        {
          "internalType": "bytes32",
          "name": "neededRole",
          "type": "bytes32"
        }
      ],
      "name": "AccessControlUnauthorizedAccount",
      "type": "error"
    },
    {
      "inputs": [],
      "name": "AlreadyRegistered",
      "type": "error"
    },
    {
      "inputs": [],
      "name": "AlreadyVoted",
      "type": "error"
    },
    {
      "inputs": [],
      "name": "CannotUpdateReport",
      "type": "error"
    },
    {
      "inputs": [],
      "name": "CitizenLockedError",
      "type": "error"
    },
    {
      "inputs": [],
      "name": "InsufficientStake",
      "type": "error"
    },
    {
      "inputs": [],
      "name": "NotRegistered",
      "type": "error"
    },
    {
      "inputs": [],
      "name": "ReentrancyGuardReentrantCall",
      "type": "error"
    },
    {
      "inputs": [],
      "name": "ReportNotFound",
      "type": "error"
    },
    {
      "anonymous": false,
      "inputs": [
        {
          "indexed": true,
          "internalType": "address",
          "name": "citizen",
          "type": "address"
        }
      ],
      "name": "AccountLocked",
      "type": "event"
    },
    {
      "anonymous": false,
      "inputs": [
        {
          "indexed": true,
          "internalType": "address",
          "name": "citizen",
          "type": "address"
        }
      ],
      "name": "AccountUnlocked",
      "type": "event"
    },
    {
      "anonymous": false,
      "inputs": [
        {
          "indexed": true,
          "internalType": "address",
          "name": "citizen",
          "type": "address"
        },
        {
          "indexed": false,
          "internalType": "uint256",
          "name": "stake",
          "type": "uint256"
        }
      ],
      "name": "CitizenRegistered",
      "type": "event"
    },
    {
      "anonymous": false,
      "inputs": [
        {
          "indexed": true,
          "internalType": "uint256",
          "name": "reportId",
          "type": "uint256"
        },
        {
          "indexed": false,
          "internalType": "bool",
          "name": "approved",
          "type": "bool"
        },
        {
          "indexed": true,
          "internalType": "address",
          "name": "admin",
          "type": "address"
        }
      ],
      "name": "ReportResolved",
      "type": "event"
    },
    {
      "anonymous": false,
      "inputs": [
        {
          "indexed": true,
          "internalType": "uint256",
          "name": "reportId",
          "type": "uint256"
        },
        {
          "indexed": true,
          "internalType": "address",
          "name": "reporter",
          "type": "address"
        }
      ],
      "name": "ReportSubmitted",
      "type": "event"
    },
    {
      "anonymous": false,
      "inputs": [
        {
          "indexed": true,
          "internalType": "uint256",
          "name": "reportId",
          "type": "uint256"
        }
      ],
      "name": "ReportUpdated",
      "type": "event"
    },
    {
      "anonymous": false,
      "inputs": [
        {
          "indexed": true,
          "internalType": "bytes32",
          "name": "role",
          "type": "bytes32"
        },
        {
          "indexed": true,
          "internalType": "bytes32",
          "name": "previousAdminRole",
          "type": "bytes32"
        },
        {
          "indexed": true,
          "internalType": "bytes32",
          "name": "newAdminRole",
          "type": "bytes32"
        }
      ],
      "name": "RoleAdminChanged",
      "type": "event"
    },
    {
      "anonymous": false,
      "inputs": [
        {
          "indexed": true,
          "internalType": "bytes32",
          "name": "role",
          "type": "bytes32"
        },
        {
          "indexed": true,
          "internalType": "address",
          "name": "account",
          "type": "address"
        },
        {
          "indexed": true,
          "internalType": "address",
          "name": "sender",
          "type": "address"
        }
      ],
      "name": "RoleGranted",
      "type": "event"
    },
    {
      "anonymous": false,
      "inputs": [
        {
          "indexed": true,
          "internalType": "bytes32",
          "name": "role",
          "type": "bytes32"
        },
        {
          "indexed": true,
          "internalType": "address",
          "name": "account",
          "type": "address"
        },
        {
          "indexed": true,
          "internalType": "address",
          "name": "sender",
          "type": "address"
        }
      ],
      "name": "RoleRevoked",
      "type": "event"
    },
    {
      "anonymous": false,
      "inputs": [
        {
          "indexed": true,
          "internalType": "address",
          "name": "citizen",
          "type": "address"
        },
        {
          "indexed": false,
          "internalType": "uint256",
          "name": "newStake",
          "type": "uint256"
        },
        {
          "indexed": false,
          "internalType": "string",
          "name": "reason",
          "type": "string"
        }
      ],
      "name": "StakeUpdated",
      "type": "event"
    },
    {
      "anonymous": false,
      "inputs": [
        {
          "indexed": true,
          "internalType": "uint256",
          "name": "reportId",
          "type": "uint256"
        },
        {
          "indexed": true,
          "internalType": "address",
          "name": "voter",
          "type": "address"
        },
        {
          "indexed": false,
          "internalType": "bool",
          "name": "isUpVote",
          "type": "bool"
        }
      ],
      "name": "Voted",
      "type": "event"
    },
    {
      "inputs": [],
      "name": "ADMIN_ROLE",
      "outputs": [
        {
          "internalType": "bytes32",
          "name": "",
          "type": "bytes32"
        }
      ],
      "stateMutability": "view",
      "type": "function"
    },
    {
      "inputs": [],
      "name": "DEFAULT_ADMIN_ROLE",
      "outputs": [
        {
          "internalType": "bytes32",
          "name": "",
          "type": "bytes32"
        }
      ],
      "stateMutability": "view",
      "type": "function"
    },
    {
      "inputs": [],
      "name": "REPORT_FEE",
      "outputs": [
        {
          "internalType": "uint256",
          "name": "",
          "type": "uint256"
        }
      ],
      "stateMutability": "view",
      "type": "function"
    },
    {
      "inputs": [],
      "name": "REWARD_AMOUNT",
      "outputs": [
        {
          "internalType": "uint256",
          "name": "",
          "type": "uint256"
        }
      ],
      "stateMutability": "view",
      "type": "function"
    },
    {
      "inputs": [],
      "name": "STAKE_AMOUNT",
      "outputs": [
        {
          "internalType": "uint256",
          "name": "",
          "type": "uint256"
        }
      ],
      "stateMutability": "view",
      "type": "function"
    },
    {
      "inputs": [
        {
          "internalType": "uint256",
          "name": "reportId",
          "type": "uint256"
        },
        {
          "internalType": "bool",
          "name": "approve",
          "type": "bool"
        }
      ],
      "name": "adminResolve",
      "outputs": [],
      "stateMutability": "nonpayable",
      "type": "function"
    },
    {
      "inputs": [
        {
          "internalType": "uint256",
          "name": "reportId",
          "type": "uint256"
        }
      ],
      "name": "getReport",
      "outputs": [
        {
          "components": [
            {
              "internalType": "address",
              "name": "reporter",
              "type": "address"
            },
            {
              "internalType": "string",
              "name": "contentHash",
              "type": "string"
            },
            {
              "internalType": "string[]",
              "name": "imageCIDs",
              "type": "string[]"
            },
            {
              "internalType": "string",
              "name": "location",
              "type": "string"
            },
            {
              "internalType": "int256",
              "name": "score",
              "type": "int256"
            },
            {
              "internalType": "enum PublicService.Status",
              "name": "status",
              "type": "uint8"
            },
            {
              "internalType": "uint256",
              "name": "timestamp",
              "type": "uint256"
            }
          ],
          "internalType": "struct PublicService.Report",
          "name": "",
          "type": "tuple"
        }
      ],
      "stateMutability": "view",
      "type": "function"
    },
    {
      "inputs": [],
      "name": "getReports",
      "outputs": [
        {
          "components": [
            {
              "internalType": "address",
              "name": "reporter",
              "type": "address"
            },
            {
              "internalType": "string",
              "name": "contentHash",
              "type": "string"
            },
            {
              "internalType": "string[]",
              "name": "imageCIDs",
              "type": "string[]"
            },
            {
              "internalType": "string",
              "name": "location",
              "type": "string"
            },
            {
              "internalType": "int256",
              "name": "score",
              "type": "int256"
            },
            {
              "internalType": "enum PublicService.Status",
              "name": "status",
              "type": "uint8"
            },
            {
              "internalType": "uint256",
              "name": "timestamp",
              "type": "uint256"
            }
          ],
          "internalType": "struct PublicService.Report[]",
          "name": "",
          "type": "tuple[]"
        }
      ],
      "stateMutability": "view",
      "type": "function"
    },
    {
      "inputs": [
        {
          "internalType": "bytes32",
          "name": "role",
          "type": "bytes32"
        }
      ],
      "name": "getRoleAdmin",
      "outputs": [
        {
          "internalType": "bytes32",
          "name": "",
          "type": "bytes32"
        }
      ],
      "stateMutability": "view",
      "type": "function"
    },
    {
      "inputs": [
        {
          "internalType": "bytes32",
          "name": "role",
          "type": "bytes32"
        },
        {
          "internalType": "address",
          "name": "account",
          "type": "address"
        }
      ],
      "name": "grantRole",
      "outputs": [],
      "stateMutability": "nonpayable",
      "type": "function"
    },
    {
      "inputs": [
        {
          "internalType": "bytes32",
          "name": "role",
          "type": "bytes32"
        },
        {
          "internalType": "address",
          "name": "account",
          "type": "address"
        }
      ],
      "name": "hasRole",
      "outputs": [
        {
          "internalType": "bool",
          "name": "",
          "type": "bool"
        }
      ],
      "stateMutability": "view",
      "type": "function"
    },
    {
      "inputs": [
        {
          "internalType": "address",
          "name": "citizen",
          "type": "address"
        }
      ],
      "name": "isLocked",
      "outputs": [
        {
          "internalType": "bool",
          "name": "",
          "type": "bool"
        }
      ],
      "stateMutability": "view",
      "type": "function"
    },
    {
      "inputs": [
        {
          "internalType": "address",
          "name": "",
          "type": "address"
        }
      ],
      "name": "locked",
      "outputs": [
        {
          "internalType": "bool",
          "name": "",
          "type": "bool"
        }
      ],
      "stateMutability": "view",
      "type": "function"
    },
    {
      "inputs": [],
      "name": "registerCitizen",
      "outputs": [],
      "stateMutability": "payable",
      "type": "function"
    },
    {
      "inputs": [
        {
          "internalType": "bytes32",
          "name": "role",
          "type": "bytes32"
        },
        {
          "internalType": "address",
          "name": "callerConfirmation",
          "type": "address"
        }
      ],
      "name": "renounceRole",
      "outputs": [],
      "stateMutability": "nonpayable",
      "type": "function"
    },
    {
      "inputs": [],
      "name": "reportCount",
      "outputs": [
        {
          "internalType": "uint256",
          "name": "",
          "type": "uint256"
        }
      ],
      "stateMutability": "view",
      "type": "function"
    },
    {
      "inputs": [
        {
          "internalType": "uint256",
          "name": "",
          "type": "uint256"
        }
      ],
      "name": "reports",
      "outputs": [
        {
          "internalType": "address",
          "name": "reporter",
          "type": "address"
        },
        {
          "internalType": "string",
          "name": "contentHash",
          "type": "string"
        },
        {
          "internalType": "string",
          "name": "location",
          "type": "string"
        },
        {
          "internalType": "int256",
          "name": "score",
          "type": "int256"
        },
        {
          "internalType": "enum PublicService.Status",
          "name": "status",
          "type": "uint8"
        },
        {
          "internalType": "uint256",
          "name": "timestamp",
          "type": "uint256"
        }
      ],
      "stateMutability": "view",
      "type": "function"
    },
    {
      "inputs": [
        {
          "internalType": "bytes32",
          "name": "role",
          "type": "bytes32"
        },
        {
          "internalType": "address",
          "name": "account",
          "type": "address"
        }
      ],
      "name": "revokeRole",
      "outputs": [],
      "stateMutability": "nonpayable",
      "type": "function"
    },
    {
      "inputs": [
        {
          "internalType": "address",
          "name": "",
          "type": "address"
        }
      ],
      "name": "stakes",
      "outputs": [
        {
          "internalType": "uint256",
          "name": "",
          "type": "uint256"
        }
      ],
      "stateMutability": "view",
      "type": "function"
    },
    {
      "inputs": [
        {
          "internalType": "string",
          "name": "contentHash",
          "type": "string"
        },
        {
          "internalType": "string[]",
          "name": "imageCIDs",
          "type": "string[]"
        },
        {
          "internalType": "string",
          "name": "location",
          "type": "string"
        }
      ],
      "name": "submitReport",
      "outputs": [],
      "stateMutability": "payable",
      "type": "function"
    },
    {
      "inputs": [
        {
          "internalType": "bytes4",
          "name": "interfaceId",
          "type": "bytes4"
        }
      ],
      "name": "supportsInterface",
      "outputs": [
        {
          "internalType": "bool",
          "name": "",
          "type": "bool"
        }
      ],
      "stateMutability": "view",
      "type": "function"
    },
    {
      "inputs": [
        {
          "internalType": "uint256",
          "name": "reportId",
          "type": "uint256"
        },
        {
          "internalType": "string",
          "name": "newContentHash",
          "type": "string"
        },
        {
          "internalType": "string[]",
          "name": "newImageCIDs",
          "type": "string[]"
        },
        {
          "internalType": "string",
          "name": "newLocation",
          "type": "string"
        }
      ],
      "name": "updateReport",
      "outputs": [],
      "stateMutability": "nonpayable",
      "type": "function"
    },
    {
      "inputs": [
        {
          "internalType": "uint256",
          "name": "reportId",
          "type": "uint256"
        }
      ],
      "name": "voteDown",
      "outputs": [],
      "stateMutability": "nonpayable",
      "type": "function"
    },
    {
      "inputs": [
        {
          "internalType": "uint256",
          "name": "reportId",
          "type": "uint256"
        }
      ],
      "name": "voteUp",
      "outputs": [],
      "stateMutability": "nonpayable",
      "type": "function"
    }
  ],
  "bytecode": "0x60806040523480156200001157600080fd5b50600162000034620000286200007460201b60201c565b6200009f60201b60201c565b600001819055506200006d7fa49807205ce4d355092ef5a8a18f56e8913cf4a201fbe287825b095693c2177533620000a960201b60201c565b506200021e565b60007f9b779b17422d0df92223018b32b4d1fa46e071723d6817e2486d003becc55f0060001b905090565b6000819050919050565b6000620000bd8383620001ac60201b60201c565b620001a157600160008085815260200190815260200160002060000160008473ffffffffffffffffffffffffffffffffffffffff1673ffffffffffffffffffffffffffffffffffffffff16815260200190815260200160002060006101000a81548160ff0219169083151502179055506200013d6200021660201b60201c565b73ffffffffffffffffffffffffffffffffffffffff168273ffffffffffffffffffffffffffffffffffffffff16847f2f8788117e7eff1d82e926ec794901d17c78024a50270940304540a733656f0d60405160405180910390a460019050620001a6565b600090505b92915050565b600080600084815260200190815260200160002060000160008373ffffffffffffffffffffffffffffffffffffffff1673ffffffffffffffffffffffffffffffffffffffff16815260200190815260200160002060009054906101000a900460ff16905092915050565b600033905090565b61449c806200022e6000396000f3fe60806040526004361061014b5760003560e01c8063a217fddf116100b6578063cf8494421161006f578063cf849442146104c2578063d043f5ce146104ed578063d4ebc5ff14610509578063d547741f14610532578063eda72b2e1461055b578063faf5625f146105845761014b565b8063a217fddf1461039b578063a3c86daf146103c6578063ae7c18df146103f1578063bffe3cce1461041a578063c942adf714610443578063cbf9fe5f146104855761014b565b806336568abe1161010857806336568abe146102865780634a4fbeec146102af5780634e7f9b19146102ec57806375b238fc14610329578063907de2cc1461035457806391d148541461035e5761014b565b806301ffc9a7146101505780630d636de61461018d57806316934fc4146101b8578063185c6f84146101f5578063248a9ca3146102205780632f2ff15d1461025d575b600080fd5b34801561015c57600080fd5b50610177600480360381019061017291906130a9565b6105af565b60405161018491906130f1565b60405180910390f35b34801561019957600080fd5b506101a2610629565b6040516101af9190613125565b60405180910390f35b3480156101c457600080fd5b506101df60048036038101906101da919061319e565b610634565b6040516101ec9190613125565b60405180910390f35b34801561020157600080fd5b5061020a61064c565b6040516102179190613125565b60405180910390f35b34801561022c57600080fd5b5061024760048036038101906102429190613201565b610652565b604051610254919061323d565b60405180910390f35b34801561026957600080fd5b50610284600480360381019061027f9190613258565b610671565b005b34801561029257600080fd5b506102ad60048036038101906102a89190613258565b610693565b005b3480156102bb57600080fd5b506102d660048036038101906102d1919061319e565b61070e565b6040516102e391906130f1565b60405180910390f35b3480156102f857600080fd5b50610313600480360381019061030e91906132c4565b610764565b604051610320919061359b565b60405180910390f35b34801561033557600080fd5b5061033e610a33565b60405161034b919061323d565b60405180910390f35b61035c610a57565b005b34801561036a57600080fd5b5061038560048036038101906103809190613258565b610cf0565b60405161039291906130f1565b60405180910390f35b3480156103a757600080fd5b506103b0610d5a565b6040516103bd919061323d565b60405180910390f35b3480156103d257600080fd5b506103db610d61565b6040516103e89190613729565b60405180910390f35b3480156103fd57600080fd5b5061041860048036038101906104139190613777565b6111c2565b005b34801561042657600080fd5b50610441600480360381019061043c91906139d2565b612083565b005b34801561044f57600080fd5b5061046a600480360381019061046591906132c4565b612255565b60405161047c96959493929190613b04565b60405180910390f35b34801561049157600080fd5b506104ac60048036038101906104a7919061319e565b6123ce565b6040516104b991906130f1565b60405180910390f35b3480156104ce57600080fd5b506104d76123ee565b6040516104e49190613125565b60405180910390f35b61050760048036038101906105029190613b73565b6123f8565b005b34801561051557600080fd5b50610530600480360381019061052b91906132c4565b6126f8565b005b34801561053e57600080fd5b5061055960048036038101906105549190613258565b612706565b005b34801561056757600080fd5b50610582600480360381019061057d91906132c4565b612728565b005b34801561059057600080fd5b50610599612736565b6040516105a69190613125565b60405180910390f35b60007f7965db0b000000000000000000000000000000000000000000000000000000007bffffffffffffffffffffffffffffffffffffffffffffffffffffffff1916827bffffffffffffffffffffffffffffffffffffffffffffffffffffffff19161480610622575061062182612741565b5b9050919050565b66038d7ea4c6800081565b60016020528060005260406000206000915090505481565b60035481565b6000806000838152602001908152602001600020600101549050919050565b61067a82610652565b610683816127ab565b61068d83836127bf565b50505050565b61069b6128b0565b73ffffffffffffffffffffffffffffffffffffffff168173ffffffffffffffffffffffffffffffffffffffff16146106ff576040517f6697b23200000000000000000000000000000000000000000000000000000000815260040160405180910390fd5b61070982826128b8565b505050565b6000600460008373ffffffffffffffffffffffffffffffffffffffff1673ffffffffffffffffffffffffffffffffffffffff16815260200190815260200160002060009054906101000a900460ff169050919050565b61076c612efe565b600260008381526020019081526020016000206040518060e00160405290816000820160009054906101000a900473ffffffffffffffffffffffffffffffffffffffff1673ffffffffffffffffffffffffffffffffffffffff1673ffffffffffffffffffffffffffffffffffffffff1681526020016001820180546107f090613c49565b80601f016020809104026020016040519081016040528092919081815260200182805461081c90613c49565b80156108695780601f1061083e57610100808354040283529160200191610869565b820191906000526020600020905b81548152906001019060200180831161084c57829003601f168201915b5050505050815260200160028201805480602002602001604051908101604052809291908181526020016000905b828210156109435783829060005260206000200180546108b690613c49565b80601f01602080910402602001604051908101604052809291908181526020018280546108e290613c49565b801561092f5780601f106109045761010080835404028352916020019161092f565b820191906000526020600020905b81548152906001019060200180831161091257829003601f168201915b505050505081526020019060010190610897565b50505050815260200160038201805461095b90613c49565b80601f016020809104026020016040519081016040528092919081815260200182805461098790613c49565b80156109d45780601f106109a9576101008083540402835291602001916109d4565b820191906000526020600020905b8154815290600101906020018083116109b757829003601f168201915b50505050508152602001600482015481526020016005820160009054906101000a900460ff166002811115610a0c57610a0b61346b565b5b6002811115610a1e57610a1d61346b565b5b81526020016006820154815250509050919050565b7fa49807205ce4d355092ef5a8a18f56e8913cf4a201fbe287825b095693c2177581565b66b1a2bc2ec50000600160003373ffffffffffffffffffffffffffffffffffffffff1673ffffffffffffffffffffffffffffffffffffffff1681526020019081526020016000205410158015610af75750600460003373ffffffffffffffffffffffffffffffffffffffff1673ffffffffffffffffffffffffffffffffffffffff16815260200190815260200160002060009054906101000a900460ff16155b15610b2e576040517f3a81d6fc00000000000000000000000000000000000000000000000000000000815260040160405180910390fd5b66b1a2bc2ec500003414610b6e576040517ff1bc94d200000000000000000000000000000000000000000000000000000000815260040160405180910390fd5b34600160003373ffffffffffffffffffffffffffffffffffffffff1673ffffffffffffffffffffffffffffffffffffffff16815260200190815260200160002081905550600460003373ffffffffffffffffffffffffffffffffffffffff1673ffffffffffffffffffffffffffffffffffffffff16815260200190815260200160002060009054906101000a900460ff1615610ca0576000600460003373ffffffffffffffffffffffffffffffffffffffff1673ffffffffffffffffffffffffffffffffffffffff16815260200190815260200160002060006101000a81548160ff0219169083151502179055503373ffffffffffffffffffffffffffffffffffffffff167fb7df7ef889418eecc895118f0d863c3074abf7769bfe39ba852192114c725dfc60405160405180910390a25b3373ffffffffffffffffffffffffffffffffffffffff167f9f4e1c382cdd9fb482444097babab40742f8a3624c0ab69305c3c396f26794b834604051610ce69190613125565b60405180910390a2565b600080600084815260200190815260200160002060000160008373ffffffffffffffffffffffffffffffffffffffff1673ffffffffffffffffffffffffffffffffffffffff16815260200190815260200160002060009054906101000a900460ff16905092915050565b6000801b81565b6060600060035467ffffffffffffffff811115610d8157610d806137c1565b5b604051908082528060200260200182016040528015610dba57816020015b610da7612efe565b815260200190600190039081610d9f5790505b50905060005b6003548110156110b557600260008281526020019081526020016000206040518060e00160405290816000820160009054906101000a900473ffffffffffffffffffffffffffffffffffffffff1673ffffffffffffffffffffffffffffffffffffffff1673ffffffffffffffffffffffffffffffffffffffff168152602001600182018054610e4e90613c49565b80601f0160208091040260200160405190810160405280929190818152602001828054610e7a90613c49565b8015610ec75780601f10610e9c57610100808354040283529160200191610ec7565b820191906000526020600020905b815481529060010190602001808311610eaa57829003601f168201915b5050505050815260200160028201805480602002602001604051908101604052809291908181526020016000905b82821015610fa1578382906000526020600020018054610f1490613c49565b80601f0160208091040260200160405190810160405280929190818152602001828054610f4090613c49565b8015610f8d5780601f10610f6257610100808354040283529160200191610f8d565b820191906000526020600020905b815481529060010190602001808311610f7057829003601f168201915b505050505081526020019060010190610ef5565b505050508152602001600382018054610fb990613c49565b80601f0160208091040260200160405190810160405280929190818152602001828054610fe590613c49565b80156110325780601f1061100757610100808354040283529160200191611032565b820191906000526020600020905b81548152906001019060200180831161101557829003601f168201915b50505050508152602001600482015481526020016005820160009054906101000a900460ff16600281111561106a5761106961346b565b5b600281111561107c5761107b61346b565b5b815260200160068201548152505082828151811061109d5761109c613c7a565b5b60200260200101819052508080600101915050610dc0565b506000600190505b6003548110156111ba5760008282815181106110dc576110db613c7a565b5b6020026020010151905060008160800151905060008390505b60008111801561112e5750818560018361110f9190613cd8565b815181106111205761111f613c7a565b5b602002602001015160800151125b1561118b57846001826111419190613cd8565b8151811061115257611151613c7a565b5b602002602001015185828151811061116d5761116c613c7a565b5b6020026020010181905250808061118390613d0c565b9150506110f5565b8285828151811061119f5761119e613c7a565b5b602002602001018190525050505080806001019150506110bd565b508091505090565b7fa49807205ce4d355092ef5a8a18f56e8913cf4a201fbe287825b095693c217756111ec816127ab565b6111f46129aa565b60006002600085815260200190815260200160002090506000600281111561121f5761121e61346b565b5b8160050160009054906101000a900460ff1660028111156112435761124261346b565b5b1461127a576040517f986b6fa200000000000000000000000000000000000000000000000000000000815260040160405180910390fd5b82611286576002611289565b60015b8160050160006101000a81548160ff021916908360028111156112af576112ae61346b565b5b021790555060006006600086815260200190815260200160002080548060200260200160405190810160405280929190818152602001828054801561134957602002820191906000526020600020905b8160009054906101000a900473ffffffffffffffffffffffffffffffffffffffff1673ffffffffffffffffffffffffffffffffffffffff16815260200190600101908083116112ff575b505050505090506000600760008781526020019081526020016000208054806020026020016040519081016040528092919081815260200182805480156113e557602002820191906000526020600020905b8160009054906101000a900473ffffffffffffffffffffffffffffffffffffffff1673ffffffffffffffffffffffffffffffffffffffff168152602001906001019080831161139b575b50505050509050841561190957655af3107a400066038d7ea4c6800061140b9190613d35565b600160008560000160009054906101000a900473ffffffffffffffffffffffffffffffffffffffff1673ffffffffffffffffffffffffffffffffffffffff1673ffffffffffffffffffffffffffffffffffffffff168152602001908152602001600020600082825461147d9190613d35565b925050819055508260000160009054906101000a900473ffffffffffffffffffffffffffffffffffffffff1673ffffffffffffffffffffffffffffffffffffffff167f9a4e107c217fba3d242f257fd523c107ea3a28c2a71e8c7b6cf9a2893ecbb98d600160008660000160009054906101000a900473ffffffffffffffffffffffffffffffffffffffff1673ffffffffffffffffffffffffffffffffffffffff1673ffffffffffffffffffffffffffffffffffffffff168152602001908152602001600020546040516115519190613db5565b60405180910390a260005b82518110156116a957655af3107a40006001600085848151811061158357611582613c7a565b5b602002602001015173ffffffffffffffffffffffffffffffffffffffff1673ffffffffffffffffffffffffffffffffffffffff16815260200190815260200160002060008282546115d49190613d35565b925050819055508281815181106115ee576115ed613c7a565b5b602002602001015173ffffffffffffffffffffffffffffffffffffffff167f9a4e107c217fba3d242f257fd523c107ea3a28c2a71e8c7b6cf9a2893ecbb98d6001600086858151811061164457611643613c7a565b5b602002602001015173ffffffffffffffffffffffffffffffffffffffff1673ffffffffffffffffffffffffffffffffffffffff168152602001908152602001600020546040516116949190613e2f565b60405180910390a2808060010191505061155c565b5060005b81518110156119035760008282815181106116cb576116ca613c7a565b5b60200260200101519050655af3107a4000600160008373ffffffffffffffffffffffffffffffffffffffff1673ffffffffffffffffffffffffffffffffffffffff16815260200190815260200160002054106118f557655af3107a4000600160008373ffffffffffffffffffffffffffffffffffffffff1673ffffffffffffffffffffffffffffffffffffffff16815260200190815260200160002060008282546117769190613cd8565b925050819055508073ffffffffffffffffffffffffffffffffffffffff167f9a4e107c217fba3d242f257fd523c107ea3a28c2a71e8c7b6cf9a2893ecbb98d600160008473ffffffffffffffffffffffffffffffffffffffff1673ffffffffffffffffffffffffffffffffffffffff168152602001908152602001600020546040516118029190613ea9565b60405180910390a266b1a2bc2ec50000600160008373ffffffffffffffffffffffffffffffffffffffff1673ffffffffffffffffffffffffffffffffffffffff1681526020019081526020016000205410156118f4576001600460008373ffffffffffffffffffffffffffffffffffffffff1673ffffffffffffffffffffffffffffffffffffffff16815260200190815260200160002060006101000a81548160ff0219169083151502179055508073ffffffffffffffffffffffffffffffffffffffff167f78be06d07afe380e04d6deeba0f33c892db454f303fb739d9b768987a5ec6aca60405160405180910390a25b5b5080806001019150506116ad565b50612024565b655af3107a400066038d7ea4c680006119229190613d35565b600160008560000160009054906101000a900473ffffffffffffffffffffffffffffffffffffffff1673ffffffffffffffffffffffffffffffffffffffff1673ffffffffffffffffffffffffffffffffffffffff1681526020019081526020016000205410611c4957655af3107a400066038d7ea4c680006119a49190613d35565b600160008560000160009054906101000a900473ffffffffffffffffffffffffffffffffffffffff1673ffffffffffffffffffffffffffffffffffffffff1673ffffffffffffffffffffffffffffffffffffffff1681526020019081526020016000206000828254611a169190613cd8565b925050819055508260000160009054906101000a900473ffffffffffffffffffffffffffffffffffffffff1673ffffffffffffffffffffffffffffffffffffffff167f9a4e107c217fba3d242f257fd523c107ea3a28c2a71e8c7b6cf9a2893ecbb98d600160008660000160009054906101000a900473ffffffffffffffffffffffffffffffffffffffff1673ffffffffffffffffffffffffffffffffffffffff1673ffffffffffffffffffffffffffffffffffffffff16815260200190815260200160002054604051611aea9190613f23565b60405180910390a266b1a2bc2ec50000600160008560000160009054906101000a900473ffffffffffffffffffffffffffffffffffffffff1673ffffffffffffffffffffffffffffffffffffffff1673ffffffffffffffffffffffffffffffffffffffff168152602001908152602001600020541015611c48576001600460008560000160009054906101000a900473ffffffffffffffffffffffffffffffffffffffff1673ffffffffffffffffffffffffffffffffffffffff1673ffffffffffffffffffffffffffffffffffffffff16815260200190815260200160002060006101000a81548160ff0219169083151502179055508260000160009054906101000a900473ffffffffffffffffffffffffffffffffffffffff1673ffffffffffffffffffffffffffffffffffffffff167f78be06d07afe380e04d6deeba0f33c892db454f303fb739d9b768987a5ec6aca60405160405180910390a25b5b60005b8251811015611ea2576000838281518110611c6a57611c69613c7a565b5b60200260200101519050655af3107a4000600160008373ffffffffffffffffffffffffffffffffffffffff1673ffffffffffffffffffffffffffffffffffffffff1681526020019081526020016000205410611e9457655af3107a4000600160008373ffffffffffffffffffffffffffffffffffffffff1673ffffffffffffffffffffffffffffffffffffffff1681526020019081526020016000206000828254611d159190613cd8565b925050819055508073ffffffffffffffffffffffffffffffffffffffff167f9a4e107c217fba3d242f257fd523c107ea3a28c2a71e8c7b6cf9a2893ecbb98d600160008473ffffffffffffffffffffffffffffffffffffffff1673ffffffffffffffffffffffffffffffffffffffff16815260200190815260200160002054604051611da19190613f9d565b60405180910390a266b1a2bc2ec50000600160008373ffffffffffffffffffffffffffffffffffffffff1673ffffffffffffffffffffffffffffffffffffffff168152602001908152602001600020541015611e93576001600460008373ffffffffffffffffffffffffffffffffffffffff1673ffffffffffffffffffffffffffffffffffffffff16815260200190815260200160002060006101000a81548160ff0219169083151502179055508073ffffffffffffffffffffffffffffffffffffffff167f78be06d07afe380e04d6deeba0f33c892db454f303fb739d9b768987a5ec6aca60405160405180910390a25b5b508080600101915050611c4c565b50600081511115612023576000655af3107a40008351611ec29190613fcb565b90506000825182611ed3919061403c565b905060005b835181101561201f578160016000868481518110611ef957611ef8613c7a565b5b602002602001015173ffffffffffffffffffffffffffffffffffffffff1673ffffffffffffffffffffffffffffffffffffffff1681526020019081526020016000206000828254611f4a9190613d35565b92505081905550838181518110611f6457611f63613c7a565b5b602002602001015173ffffffffffffffffffffffffffffffffffffffff167f9a4e107c217fba3d242f257fd523c107ea3a28c2a71e8c7b6cf9a2893ecbb98d60016000878581518110611fba57611fb9613c7a565b5b602002602001015173ffffffffffffffffffffffffffffffffffffffff1673ffffffffffffffffffffffffffffffffffffffff1681526020019081526020016000205460405161200a91906140b9565b60405180910390a28080600101915050611ed8565b5050505b5b3373ffffffffffffffffffffffffffffffffffffffff16867f73a083c80d929db87db12fef6279f69cc0ef1cff5eeb56af2423987136de754e8760405161206b91906130f1565b60405180910390a350505061207e6129cd565b505050565b60006002600086815260200190815260200160002090503373ffffffffffffffffffffffffffffffffffffffff168160000160009054906101000a900473ffffffffffffffffffffffffffffffffffffffff1673ffffffffffffffffffffffffffffffffffffffff1614612123576040517f98b54f9f00000000000000000000000000000000000000000000000000000000815260040160405180910390fd5b600060028111156121375761213661346b565b5b8160050160009054906101000a900460ff16600281111561215b5761215a61346b565b5b14612192576040517f986b6fa200000000000000000000000000000000000000000000000000000000815260040160405180910390fd5b838160010190816121a39190614293565b50818160030190816121b59190614293565b5060005b835181101561222057816002018482815181106121d9576121d8613c7a565b5b60200260200101519080600181540180825580915050600190039060005260206000200160009091909190915090816122129190614293565b5080806001019150506121b9565b50847f76e478f351e69959848b5018dcec20960fea6a512e8907cf29958307da6256b760405160405180910390a25050505050565b60026020528060005260406000206000915090508060000160009054906101000a900473ffffffffffffffffffffffffffffffffffffffff169080600101805461229e90613c49565b80601f01602080910402602001604051908101604052809291908181526020018280546122ca90613c49565b80156123175780601f106122ec57610100808354040283529160200191612317565b820191906000526020600020905b8154815290600101906020018083116122fa57829003601f168201915b50505050509080600301805461232c90613c49565b80601f016020809104026020016040519081016040528092919081815260200182805461235890613c49565b80156123a55780601f1061237a576101008083540402835291602001916123a5565b820191906000526020600020905b81548152906001019060200180831161238857829003601f168201915b5050505050908060040154908060050160009054906101000a900460ff16908060060154905086565b60046020528060005260406000206000915054906101000a900460ff1681565b655af3107a400081565b6124006129aa565b600460003373ffffffffffffffffffffffffffffffffffffffff1673ffffffffffffffffffffffffffffffffffffffff16815260200190815260200160002060009054906101000a900460ff1615612484576040517fdb0e247600000000000000000000000000000000000000000000000000000000815260040160405180910390fd5b66b1a2bc2ec50000600160003373ffffffffffffffffffffffffffffffffffffffff1673ffffffffffffffffffffffffffffffffffffffff168152602001908152602001600020541015612504576040517faba4733900000000000000000000000000000000000000000000000000000000815260040160405180910390fd5b66038d7ea4c680003414612544576040517ff1bc94d200000000000000000000000000000000000000000000000000000000815260040160405180910390fd5b60006003600081548092919061255990614365565b9190505590506040518060e001604052803373ffffffffffffffffffffffffffffffffffffffff16815260200185815260200184815260200183815260200160008152602001600060028111156125b3576125b261346b565b5b8152602001428152506002600083815260200190815260200160002060008201518160000160006101000a81548173ffffffffffffffffffffffffffffffffffffffff021916908373ffffffffffffffffffffffffffffffffffffffff160217905550602082015181600101908161262b9190614293565b506040820151816002019080519060200190612648929190612f63565b50606082015181600301908161265e9190614293565b506080820151816004015560a08201518160050160006101000a81548160ff021916908360028111156126945761269361346b565b5b021790555060c082015181600601559050503373ffffffffffffffffffffffffffffffffffffffff16817ffe73cf9b793e65d9d707a5bfe3063e5f3a58eb52b27a356478c30fc83f5200f260405160405180910390a3506126f36129cd565b505050565b6127038160016129e8565b50565b61270f82610652565b612718816127ab565b61272283836128b8565b50505050565b6127338160006129e8565b50565b66b1a2bc2ec5000081565b60007f01ffc9a7000000000000000000000000000000000000000000000000000000007bffffffffffffffffffffffffffffffffffffffffffffffffffffffff1916827bffffffffffffffffffffffffffffffffffffffffffffffffffffffff1916149050919050565b6127bc816127b76128b0565b612e19565b50565b60006127cb8383610cf0565b6128a557600160008085815260200190815260200160002060000160008473ffffffffffffffffffffffffffffffffffffffff1673ffffffffffffffffffffffffffffffffffffffff16815260200190815260200160002060006101000a81548160ff0219169083151502179055506128426128b0565b73ffffffffffffffffffffffffffffffffffffffff168273ffffffffffffffffffffffffffffffffffffffff16847f2f8788117e7eff1d82e926ec794901d17c78024a50270940304540a733656f0d60405160405180910390a4600190506128aa565b600090505b92915050565b600033905090565b60006128c48383610cf0565b1561299f57600080600085815260200190815260200160002060000160008473ffffffffffffffffffffffffffffffffffffffff1673ffffffffffffffffffffffffffffffffffffffff16815260200190815260200160002060006101000a81548160ff02191690831515021790555061293c6128b0565b73ffffffffffffffffffffffffffffffffffffffff168273ffffffffffffffffffffffffffffffffffffffff16847ff6391f5c32d9c69d2a47ea670b442974b53935d1edc7fd64eb21e047a839171b60405160405180910390a4600190506129a4565b600090505b92915050565b6129b2612e6a565b60026129c46129bf612eab565b612ed6565b60000181905550565b60016129df6129da612eab565b612ed6565b60000181905550565b600460003373ffffffffffffffffffffffffffffffffffffffff1673ffffffffffffffffffffffffffffffffffffffff16815260200190815260200160002060009054906101000a900460ff1615612a6c576040517fdb0e247600000000000000000000000000000000000000000000000000000000815260040160405180910390fd5b66b1a2bc2ec50000600160003373ffffffffffffffffffffffffffffffffffffffff1673ffffffffffffffffffffffffffffffffffffffff168152602001908152602001600020541015612aec576040517faba4733900000000000000000000000000000000000000000000000000000000815260040160405180910390fd5b600073ffffffffffffffffffffffffffffffffffffffff166002600084815260200190815260200160002060000160009054906101000a900473ffffffffffffffffffffffffffffffffffffffff1673ffffffffffffffffffffffffffffffffffffffff1603612b88576040517f98b54f9f00000000000000000000000000000000000000000000000000000000815260040160405180910390fd5b6005600083815260200190815260200160002060003373ffffffffffffffffffffffffffffffffffffffff1673ffffffffffffffffffffffffffffffffffffffff16815260200190815260200160002060009054906101000a900460ff1615612c1d576040517f7c9a1cf900000000000000000000000000000000000000000000000000000000815260040160405180910390fd5b60016005600084815260200190815260200160002060003373ffffffffffffffffffffffffffffffffffffffff1673ffffffffffffffffffffffffffffffffffffffff16815260200190815260200160002060006101000a81548160ff02191690831515021790555060006002600084815260200190815260200160002090508115612d3657806004016000815480929190612cb8906143ad565b919050555060066000848152602001908152602001600020339080600181540180825580915050600190039060005260206000200160009091909190916101000a81548173ffffffffffffffffffffffffffffffffffffffff021916908373ffffffffffffffffffffffffffffffffffffffff160217905550612dc5565b806004016000815480929190612d4b906143f5565b919050555060076000848152602001908152602001600020339080600181540180825580915050600190039060005260206000200160009091909190916101000a81548173ffffffffffffffffffffffffffffffffffffffff021916908373ffffffffffffffffffffffffffffffffffffffff1602179055505b3373ffffffffffffffffffffffffffffffffffffffff16837ff2913dbe661ee2acc4a046d8fbcdc792373bda34c41c6086484b5345e5785e5f84604051612e0c91906130f1565b60405180910390a3505050565b612e238282610cf0565b612e665780826040517fe2517d3f000000000000000000000000000000000000000000000000000000008152600401612e5d92919061443d565b60405180910390fd5b5050565b612e72612ee0565b15612ea9576040517f3ee5aeb500000000000000000000000000000000000000000000000000000000815260040160405180910390fd5b565b60007f9b779b17422d0df92223018b32b4d1fa46e071723d6817e2486d003becc55f0060001b905090565b6000819050919050565b60006002612ef4612eef612eab565b612ed6565b6000015414905090565b6040518060e00160405280600073ffffffffffffffffffffffffffffffffffffffff1681526020016060815260200160608152602001606081526020016000815260200160006002811115612f5657612f5561346b565b5b8152602001600081525090565b828054828255906000526020600020908101928215612fab579160200282015b82811115612faa578251829081612f9a9190614293565b5091602001919060010190612f83565b5b509050612fb89190612fbc565b5090565b5b80821115612fdc5760008181612fd39190612fe0565b50600101612fbd565b5090565b508054612fec90613c49565b6000825580601f10612ffe575061301d565b601f01602090049060005260206000209081019061301c9190613020565b5b50565b5b80821115613039576000816000905550600101613021565b5090565b6000604051905090565b600080fd5b600080fd5b60007fffffffff0000000000000000000000000000000000000000000000000000000082169050919050565b61308681613051565b811461309157600080fd5b50565b6000813590506130a38161307d565b92915050565b6000602082840312156130bf576130be613047565b5b60006130cd84828501613094565b91505092915050565b60008115159050919050565b6130eb816130d6565b82525050565b600060208201905061310660008301846130e2565b92915050565b6000819050919050565b61311f8161310c565b82525050565b600060208201905061313a6000830184613116565b92915050565b600073ffffffffffffffffffffffffffffffffffffffff82169050919050565b600061316b82613140565b9050919050565b61317b81613160565b811461318657600080fd5b50565b60008135905061319881613172565b92915050565b6000602082840312156131b4576131b3613047565b5b60006131c284828501613189565b91505092915050565b6000819050919050565b6131de816131cb565b81146131e957600080fd5b50565b6000813590506131fb816131d5565b92915050565b60006020828403121561321757613216613047565b5b6000613225848285016131ec565b91505092915050565b613237816131cb565b82525050565b6000602082019050613252600083018461322e565b92915050565b6000806040838503121561326f5761326e613047565b5b600061327d858286016131ec565b925050602061328e85828601613189565b9150509250929050565b6132a18161310c565b81146132ac57600080fd5b50565b6000813590506132be81613298565b92915050565b6000602082840312156132da576132d9613047565b5b60006132e8848285016132af565b91505092915050565b6132fa81613160565b82525050565b600081519050919050565b600082825260208201905092915050565b60005b8381101561333a57808201518184015260208101905061331f565b60008484015250505050565b6000601f19601f8301169050919050565b600061336282613300565b61336c818561330b565b935061337c81856020860161331c565b61338581613346565b840191505092915050565b600081519050919050565b600082825260208201905092915050565b6000819050602082019050919050565b60006133c88383613357565b905092915050565b6000602082019050919050565b60006133e882613390565b6133f2818561339b565b935083602082028501613404856133ac565b8060005b85811015613440578484038952815161342185826133bc565b945061342c836133d0565b925060208a01995050600181019050613408565b50829750879550505050505092915050565b6000819050919050565b61346581613452565b82525050565b7f4e487b7100000000000000000000000000000000000000000000000000000000600052602160045260246000fd5b600381106134ab576134aa61346b565b5b50565b60008190506134bc8261349a565b919050565b60006134cc826134ae565b9050919050565b6134dc816134c1565b82525050565b6134eb8161310c565b82525050565b600060e08301600083015161350960008601826132f1565b50602083015184820360208601526135218282613357565b9150506040830151848203604086015261353b82826133dd565b915050606083015184820360608601526135558282613357565b915050608083015161356a608086018261345c565b5060a083015161357d60a08601826134d3565b5060c083015161359060c08601826134e2565b508091505092915050565b600060208201905081810360008301526135b581846134f1565b905092915050565b600081519050919050565b600082825260208201905092915050565b6000819050602082019050919050565b600060e08301600083015161360160008601826132f1565b50602083015184820360208601526136198282613357565b9150506040830151848203604086015261363382826133dd565b9150506060830151848203606086015261364d8282613357565b9150506080830151613662608086018261345c565b5060a083015161367560a08601826134d3565b5060c083015161368860c08601826134e2565b508091505092915050565b600061369f83836135e9565b905092915050565b6000602082019050919050565b60006136bf826135bd565b6136c981856135c8565b9350836020820285016136db856135d9565b8060005b8581101561371757848403895281516136f88582613693565b9450613703836136a7565b925060208a019950506001810190506136df565b50829750879550505050505092915050565b6000602082019050818103600083015261374381846136b4565b905092915050565b613754816130d6565b811461375f57600080fd5b50565b6000813590506137718161374b565b92915050565b6000806040838503121561378e5761378d613047565b5b600061379c858286016132af565b92505060206137ad85828601613762565b9150509250929050565b600080fd5b600080fd5b7f4e487b7100000000000000000000000000000000000000000000000000000000600052604160045260246000fd5b6137f982613346565b810181811067ffffffffffffffff82111715613818576138176137c1565b5b80604052505050565b600061382b61303d565b905061383782826137f0565b919050565b600067ffffffffffffffff821115613857576138566137c1565b5b61386082613346565b9050602081019050919050565b82818337600083830152505050565b600061388f61388a8461383c565b613821565b9050828152602081018484840111156138ab576138aa6137bc565b5b6138b684828561386d565b509392505050565b600082601f8301126138d3576138d26137b7565b5b81356138e384826020860161387c565b91505092915050565b600067ffffffffffffffff821115613907576139066137c1565b5b602082029050602081019050919050565b600080fd5b600061393061392b846138ec565b613821565b9050808382526020820190506020840283018581111561395357613952613918565b5b835b8181101561399a57803567ffffffffffffffff811115613978576139776137b7565b5b80860161398589826138be565b85526020850194505050602081019050613955565b5050509392505050565b600082601f8301126139b9576139b86137b7565b5b81356139c984826020860161391d565b91505092915050565b600080600080608085870312156139ec576139eb613047565b5b60006139fa878288016132af565b945050602085013567ffffffffffffffff811115613a1b57613a1a61304c565b5b613a27878288016138be565b935050604085013567ffffffffffffffff811115613a4857613a4761304c565b5b613a54878288016139a4565b925050606085013567ffffffffffffffff811115613a7557613a7461304c565b5b613a81878288016138be565b91505092959194509250565b613a9681613160565b82525050565b600082825260208201905092915050565b6000613ab882613300565b613ac28185613a9c565b9350613ad281856020860161331c565b613adb81613346565b840191505092915050565b613aef81613452565b82525050565b613afe816134c1565b82525050565b600060c082019050613b196000830189613a8d565b8181036020830152613b2b8188613aad565b90508181036040830152613b3f8187613aad565b9050613b4e6060830186613ae6565b613b5b6080830185613af5565b613b6860a0830184613116565b979650505050505050565b600080600060608486031215613b8c57613b8b613047565b5b600084013567ffffffffffffffff811115613baa57613ba961304c565b5b613bb6868287016138be565b935050602084013567ffffffffffffffff811115613bd757613bd661304c565b5b613be3868287016139a4565b925050604084013567ffffffffffffffff811115613c0457613c0361304c565b5b613c10868287016138be565b9150509250925092565b7f4e487b7100000000000000000000000000000000000000000000000000000000600052602260045260246000fd5b60006002820490506001821680613c6157607f821691505b602082108103613c7457613c73613c1a565b5b50919050565b7f4e487b7100000000000000000000000000000000000000000000000000000000600052603260045260246000fd5b7f4e487b7100000000000000000000000000000000000000000000000000000000600052601160045260246000fd5b6000613ce38261310c565b9150613cee8361310c565b9250828203905081811115613d0657613d05613ca9565b5b92915050565b6000613d178261310c565b915060008203613d2a57613d29613ca9565b5b600182039050919050565b6000613d408261310c565b9150613d4b8361310c565b9250828201905080821115613d6357613d62613ca9565b5b92915050565b7f417070726f766564207265706f72742072657761726400000000000000000000600082015250565b6000613d9f601683613a9c565b9150613daa82613d69565b602082019050919050565b6000604082019050613dca6000830184613116565b8181036020830152613ddb81613d92565b905092915050565b7f436f72726563742075702d766f74652072657761726400000000000000000000600082015250565b6000613e19601683613a9c565b9150613e2482613de3565b602082019050919050565b6000604082019050613e446000830184613116565b8181036020830152613e5581613e0c565b905092915050565b7f496e636f727265637420646f776e2d766f74652070656e616c74790000000000600082015250565b6000613e93601b83613a9c565b9150613e9e82613e5d565b602082019050919050565b6000604082019050613ebe6000830184613116565b8181036020830152613ecf81613e86565b905092915050565b7f52656a6563746564207265706f72742070656e616c7479000000000000000000600082015250565b6000613f0d601783613a9c565b9150613f1882613ed7565b602082019050919050565b6000604082019050613f386000830184613116565b8181036020830152613f4981613f00565b905092915050565b7f496e636f72726563742075702d766f74652070656e616c747900000000000000600082015250565b6000613f87601983613a9c565b9150613f9282613f51565b602082019050919050565b6000604082019050613fb26000830184613116565b8181036020830152613fc381613f7a565b905092915050565b6000613fd68261310c565b9150613fe18361310c565b9250828202613fef8161310c565b9150828204841483151761400657614005613ca9565b5b5092915050565b7f4e487b7100000000000000000000000000000000000000000000000000000000600052601260045260246000fd5b60006140478261310c565b91506140528361310c565b9250826140625761406161400d565b5b828204905092915050565b7f436f727265637420646f776e2d766f7465207265776172640000000000000000600082015250565b60006140a3601883613a9c565b91506140ae8261406d565b602082019050919050565b60006040820190506140ce6000830184613116565b81810360208301526140df81614096565b905092915050565b60008190508160005260206000209050919050565b60006020601f8301049050919050565b600082821b905092915050565b6000600883026141497fffffffffffffffffffffffffffffffffffffffffffffffffffffffffffffffff8261410c565b614153868361410c565b95508019841693508086168417925050509392505050565b6000819050919050565b600061419061418b6141868461310c565b61416b565b61310c565b9050919050565b6000819050919050565b6141aa83614175565b6141be6141b682614197565b848454614119565b825550505050565b600090565b6141d36141c6565b6141de8184846141a1565b505050565b5b81811015614202576141f76000826141cb565b6001810190506141e4565b5050565b601f82111561424757614218816140e7565b614221846140fc565b81016020851015614230578190505b61424461423c856140fc565b8301826141e3565b50505b505050565b600082821c905092915050565b600061426a6000198460080261424c565b1980831691505092915050565b60006142838383614259565b9150826002028217905092915050565b61429c82613300565b67ffffffffffffffff8111156142b5576142b46137c1565b5b6142bf8254613c49565b6142ca828285614206565b600060209050601f8311600181146142fd57600084156142eb578287015190505b6142f58582614277565b86555061435d565b601f19841661430b866140e7565b60005b828110156143335784890151825560018201915060208501945060208101905061430e565b86831015614350578489015161434c601f891682614259565b8355505b6001600288020188555050505b505050505050565b60006143708261310c565b91507fffffffffffffffffffffffffffffffffffffffffffffffffffffffffffffffff82036143a2576143a1613ca9565b5b600182019050919050565b60006143b882613452565b91507f7fffffffffffffffffffffffffffffffffffffffffffffffffffffffffffffff82036143ea576143e9613ca9565b5b600182019050919050565b600061440082613452565b91507f8000000000000000000000000000000000000000000000000000000000000000820361443257614431613ca9565b5b600182039050919050565b60006040820190506144526000830185613a8d565b61445f602083018461322e565b939250505056fea26469706673582212204b45a461551a5ff6e1561e00652b3b6b3fb9e10299c603857269a959ea1b8f4564736f6c63430008180033",
  "linkReferences": {},
  "deployedLinkReferences": {}
}